S01400004E6F6E5365637572654170702E737265635D
S1138000D836002065810000618100006181000094
S1138010000000000000000000000000000000005C
S1138020000000000000000000000000618100006A
S11380300000000000000000618100006181000078
S113804061810000618100006181000061810000A4
S11380506181000061810000618100006181000094
S11380606181000061810000618100006181000084
S11380706181000061810000618100006181000074
S11380806181000061810000618100006181000064
S11380906181000061810000618100006181000054
S11380A06181000061810000618100006181000044
S11380B06181000061810000618100006181000034
S11380C06181000061810000618100006D82000017
S11380D06181000061810000618100006181000014
S11380E06181000061810000618100006181000004
S11380F06181000010B542F26804C2F200042378E2
S113810063B940F20003C0F200032BB149F264707A
S1138110C0F2000000E000BF0123237010BDC04680
S113812040F20003C0F2000310B54BB142F26C01FF
S113813049F26470C2F20001C0F2000000E000BF26
S113814049F26470C0F20000036803B910BD40F244
S11381500003C0F20003002BF8D09847F6E7C046AE
S1138160FEE7C04649F2647142F20000C0F2000129
S1138170C2F2000010B581420FD042F26803C2F28D
S11381800003984209D2C243D21848F67D5392089C
S113819001329200C0F20003984742F2680042F2B2
S11381A0D443C2F20000C2F2000398420AD2C2438E
S11381B0D21848F68F539208013292000021C0F27F
S11381C00003984748F200037F22C0F20003934360
S11381D04EF60052CEF20002936048F62D53C0F2E0
S11381E00003984748F29D63C0F200039847FEE7F6
S11381F040F60003202110B5C4F20003DA69B82464
S11382000A43DA6141F60042B823C4F20002203185
S1138210D15013591942FCD041F2004340F220627C
S1138220C4F200231A6001221A730F4A02219A82AF
S11382304201121A520092B29A8300229A821A6858
S11382400A431A6010225A724EF20013083ACEF210
S113825000035A6042F28803C2F20003186000214E
S113826000209860D96010BDCDFEFFFF42F2880364
S113827001200021C2F2000330B59C68DD680019BA
S113828069419860D96041F200431022C4F200238E
S1138290997A0A4200D09A7230BDC04642F28803ED
S11382A000200021C2F200039860D9607047C046E4
S11382B0F8B542F20043C0F2F4039C4648F6F904D0
S11382C042F20042000140426044010CC0F200044A
S11382D0C0F2F40200230004A04743F2000380220A
S11382E0582102240127C4F2000352049A605A5C04
S11382F03C262243D2B25A545A5C3A43D2B25A541C
S11383000F22995D91432143995580218904596035
S113831059215D5C2543EDB25D5404255C5CAC439E
S11383205C545C5C3C43E4B25C54995DAC240A400C
S113833020210A439A5540F600030221C4F20003A7
S1138340DA690A43DA6141F60042AC23C4F200025E
S11383503E31D15013591942FCD040F2004204235B
S1138360C4F20022C4F231031360C02302219B0231
S113837080B25360908113680B431360D369194230
S1138380FCD1F8BD10B504786CB140F20042012173
S1138390C4F200220130137E1942FCD0A4B2148529
S11383A00478002CF6D110BD0A2290FBF2F130B50E
S11383B08C006418640085B0041B01AB30341C705D
S11383C0002900DC8FE091FBF2F5AC006419640035
S11383D0091B30315970642190FBF1F1002900D15F
S11383E083E091FBF2F5AC0064196400091B3031A1
S11383F0997040F2E83190FBF1F1002900D176E068
S113840091FBF2F5AC0064196400091B3031D9709A
S113841042F2107190FBF1F100296AD091FBF2F560
S1138420AC0064196400091B3031197148F2A06171
S1138430C0F2010190FBF1F100295CD091FBF2F54F
S1138440AC0064196400091B3031597144F24021B5
S1138450C0F20F0190FBF1F100294ED091FBF2F52F
S1138460AC0064196400091B3031997149F28061D0
S1138470C0F2980190FBF1F1002940D091FBF2F594
S1138480AC0064196400091B3031D9714EF200113B
S1138490C0F2F55190FBF1F1002932D091FBF2F2D8
S11384A09400A2185200891A4CF60022C3F69A329C
S11384B090FBF2F03031197228B330305872092031
S11384C0181840F200426B460121DD1CC4F2002260
S11384D00478137E1942FCD0A4B201381485A84252
S11384E0F6D105B030BD0020EAE70120E8E702201C
S11384F0E6E70320E4E70420E2E70520E0E70620BE
S1138500DEE70720DCE70820DAE7C04630B5441888
S1138510002913DD40F200428025C4F20022042128
S11385206D4203E0137E5BB2002B08DB137E19421D
S1138530F8D0138D03700130A042F7D130BD137E03
S11385402B43DBB21376138D03700130A042EDD1BF
S1138550F4E7C04670B549F2C85048F28535C0F218
S11385600000C0F20005A84742F2A00344F2C02470
S113857040F20041C2F200031A68A41A8C4201D9E5
S113858040F2004412191A6042F2B00048F20D534E
S11385902100C2F20000C0F20003984748F2A93358
S11385A02000C0F20003984749F29860C0F200002E
S11385B0A84742F2B000C2F2000070BD70B542F2AA
S11385C0000042F2980447F60943C2F20004C0F2E4
S11385D000030121C2F200002578984743F200030A
S11385E0C4F200031B6A35B31B01DB0F42F2000522
S11385F0C2F200052A7849F2D8509B18DBB22371E5
S113860048F28534C0F20000C0F200042B70A04789
S113861048F2A9332878C0F20003984749F29860D9
S1138620C0F20000A04747F6114328000121C0F220
S11386300003984770BD1B06DB0FD7E748F68F533E
S1138640F0B583B00E0004000322002101A8C0F29B
S11386500003984748F2853549F2E050C0F200051E
S1138660C0F20000A847002E10DD48F61177A619C5
S1138670C0F2000749F2E4512278C0F2000101A8D7
S1138680B847013401A8A847B442F3D149F298602D
S1138690C0F20000A84703B0F0BDC046F0B5D6460E
S11386A046464F4648F2F113C0B540F2F410A2B06A
S11386B0C0F200039847E12048F2B1234002C0F21F
S11386C00003984748F2853549F2EC50C0F20005A2
S11386D0C0F20000A84742F2980442F2000047F6B4
S11386E00943C2F20004C0F200030121C2F20000F7
S11386F02678984743F20003C4F200031B6A002E55
S113870000D1F6E01B01DB0F42F2000649F2D8501B
S113871048F2A938C2F200063278C0F200009B1871
S1138720DBB22371C0F200083370A8473078C04729
S113873049F29860C0F20000A84747F611433000A0
S11387400121C0F20003984743F20003802247212D
S11387500220C4F200039A605A5C48F68F56024322
S11387605A5448F29D23C0F200039847C0F2000611
S11387706422002109A8B04749F20460C0F2000055
S1138780A84748F20D534921C0F2000309A89847AD
S113879049F20860C0F20000A847099B0B9F9A4663
S11387A00A9B50469946C04749F21060C0F2000047
S11387B0A8474846C04749F21060C0F20000A847E5
S11387C0FF203840C04749F29860C0F20000A84733
S11387D049F21460C0F20000A84748F25550C0F2B4
S11387E00000C04749F29860C0F20000A84749F26F
S11387F09860C0F20000A84749F22860C0F2000067
S1138800A84748F2BD50C0F20000C04749F2986042
S1138810C0F20000A84749F23C60C0F20000A8473B
S1138820534608934B4649F29860039301232770FB
S11388300494059304340333C0F2000006940793B0
S1138840A84702AA944625236344190047F6014326
S113885003A8C0F20003984749F25460C0F2000034
S1138860A847079B65270093069B0099180001936E
S113887048F23D63C0F20003984749F27460C0F2C5
S11388800000A8470322002102A8B04749F2E050A3
S1138890C0F20000A84702AA9446252348F61176A0
S11388A063441C006744C0F2000649F2E451227894
S11388B0C0F2000102A8B047013402A8A847BC4294
S11388C0F3D149F29860C0F20000A84749F29C60D5
S11388D0C0F20000A847069B1868C04749F2986098
S11388E0C0F20000A84722B01CBC90469946A2469C
S11388F0F0BD1B06DB0F07E7002B11D1002A0FD1B7
S1138900002900D1002802D00021C943081C07B463
S1138910024802A14018029003BDC046D1030000E2
S113892003B4684601B5029800F006F8019B9E4620
S113893002B00CBC7047C046F0B557464546DE460B
S11389404E469846E0B583B01700019216004246A1
S113895005000C0083468A46002A4CD18F4200D879
S113896078E0380000F0C4F950B120232A001B1A23
S1138970DA40844013008540234386409A46AB4640
S1138980370CBAFBF7F2390053464FF6FF745143E4
S11389901500591A5B463440654309041B0C0B430C
S11389A09D4209D99B19511E9E4200D97CE19D42EA
S11389B000D879E1023A9B19591BB1FBF7F35C43E8
S11389C05F432500C91B4FF6FF745F4609043C4012
S11389D00C43A54200D95CE1120413430022641B3A
S11389E001920C9A2AB1C4400C9A0C98146000228B
S11389F0426018000AE0884510D90C9B002B00D176
S1138A0070E118605960002300200193019903B0BC
S1138A103CBC90469946A246AB46F0BD404600F0A9
S1138A2067F90190002800D0A3E0A04502D3AF422B
S1138A3000D951E1EF1B4346BD42AD41E41A6D42FA
S1138A40631B9A4601200C9B002BDFD052461F600B
S1138A505A60DBE717B90136B6FBF7F6300000F0D1
S1138A6047F9B8BB4FF6FF770123A51B3740340CF9
S1138A700193B5FBF4F33A005A43944622005A4357
S1138A80AA1A5D4612042D0C2A43944507D992195B
S1138A905D1E964202D8944500D920E12B0065461C
S1138AA0521BB2FBF4F56C435946121B4FF6FF748C
S1138AB06F4312040C401443A74207D9A4196A1E39
S1138AC0A64202D8A74200D903E115001B04E41B07
S1138AD02B4386E720212A002300091A864084407C
S1138AE0CA40CB402243340CB3FBF4F185404FF62B
S1138AF0FF77AB460D0037407D43AC4625004D4320
S1138B005D1B2D04130C91462B439C4509D99B19DD
S1138B104D1E9E4200D9DAE09C4500D8D7E00239C8
S1138B209B1962469B1AB3FBF4FC62464FF6FF782E
S1138B3062439B1A1B049A4642464B4665461A40BA
S1138B4053467D4313439D420DD962469B19013A16
S1138B509E4200D9B7E09D4200D8B4E002225242BE
S1138B6090469B19C4445D1B634609041943019153
S1138B707FE7202301983A001B1A9C46434661462E
S1138B808340CA4013432A002600CA408440CE4092
S1138B9022431C0C87408540B6FBF4F091464FF607
S1138BA0FF7201001A405143884621004143761A5E
S1138BB049463604090C0E43B04509D9411EF6183E
S1138BC08A46B34200D980E0B0457ED90238F6180F
S1138BD04146761AB6FBF4F841464C434A43361BE9
S1138BE049464FF6FF7436040C403443A2420BD975
S1138BF04146E4184E1EA34263D8A24261D9022121
S1138C0049428946E418C84441464FF6FF760004B9
S1138C100843310001408A46010C884651463E40D3
S1138C20714389464146A21A3C0C4E43614388462F
S1138C3051464C434946090C8A46A4195444A64259
S1138C4003D9802149028A46D044260C46444FF673
S1138C50FF7821048A464C464146214089465446C1
S1138C604C44B24224D321D00C9B83B12C1BA5428B
S1138C70AD41921B6D42521B130061468B4001991A
S1138C80CC40CA401C430C9B1C605A6000230193D7
S1138C90BCE6A419591EA64204D8A54202D9023B37
S1138CA0A41999E60B0097E60A0085E6A542DBD2F3
S1138CB0E71BF31ABC42B641764201389E1B3C00C6
S1138CC0D2E7B046A0E794464DE7504680E7290036
S1138CD027E7023DA419F9E600202F00B3E6023B82
S1138CE09219DCE60023002001938FE67047C0460A
S1138CF01C2101231B04984201D3000C10391B0AC8
S1138D00984201D3000A08391B09984201D300098B
S1138D10043902A2105C40187047C04604030202E2
S1138D2001010101000000000000000070B50025F1
S1138D300E4B0F4CE41AA410A54209D1002500F0F3
S1138D40FDFC0C4C0C4BE41AA410A54207D170BDD9
S1138D50064AAB009B181B6898470135ECE7064AA6
S1138D60AB009B181B6898470135EEE74897000055
S1138D70489700004C97000048970000002310B566
S1138D809A4200D110BDCC5CC4540133F8E703000F
S1138D908218934200D1704719700133F9E700003B
S1138DA070B5050081B10C1F2368002B00DAE418AC
S1138DB0280000F0CFF81E4A136811002BB9636035
S1138DC01460280000F0C7F870BDA3420BD92268D4
S1138DD0A018834203D118685B688218226063601C
S1138DE00C60EEE713005A680AB1A242FAD9196876
S1138DF05818A0420BD120680918581819608242EB
S1138E00DFD110685268411819605A60D9E7A0424E
S1138E1002D90C232B60D4E721686018824203D165
S1138E20106852684118216062605C60C9E7C046FE
S1138E30A4200020032370B5CD1C9D4308350600F3
S1138E400C2D1CD20C25A9421BD8300000F082F84E
S1138E50254A14682100C1B9244C23681BB9300089
S1138E6000F046F820602900300000F041F8431C6F
S1138E702DD10C233000336000F06DF803E0002D99
S1138E80E1DA0C233360002070BD0B685B1B1BD43C
S1138E900B2B03D90B60CC18256003E08C420FD157
S1138EA063681360300000F056F8200007220B308E
S1138EB0231D9043C31A002BE6D05A42E250E3E745
S1138EC04B6863600C00EDE70C004968C3E70323BB
S1138ED0C41C9C43A042DFD0211A300000F008F8E3
S1138EE0431CD9D1C5E7C046A4200020A8200020F7
S1138EF0002370B5054C05000800236000F054FB06
S1138F00431C02D1236803B12B6070BDD024002020
S1138F100EB410B59DB002A9029008610B4840F24E
S1138F20082488604861012040421FABC88108487A
S1138F3004CB006801938C8100F070F80023029A3E
S1138F4013701DB010BC08BC03B01847FFFFFF7FAF
S1138F500420002070477047F0B58E6885B0070084
S1138F600C00039201939E4239D840F280438A89CF
S1138F701A4234D00325096923685B1A0293636992
S1138F8002985D43EB0F5D19019B6D1001331B18B3
S1138F90AB4200D91D00530532D529003800FFF734
S1138FA049FF060048B90C233B6040230120A289F5
S1138FB040421343A38105B0F0BD029A2169FFF733
S1138FC0DDFEA389144A1A4080231343A381029B24
S1138FD02661F61826606561019EED1AA560019B65
S1138FE0B34200D21E0032000399206800F09DFABB
S1138FF0A36800209B1BA36023689E192660DAE700
S11390002A00380000F0A3FA06000028DFD1216905
S11390103800FFF7C5FEC6E77FFBFFFFF0B59FB042
S1139020029005938B890F0016001B060FD50B6960
S11390306BB94021FFF7FEFE3860386128B90C2374
S1139040029A013813601FB0F0BD40237B610023F6
S113905006AD6B6120336B761033AB763400237826
S1139060002B46D1A31B04936BB1A31B3200390020
S11390700298FFF771FF431C00D1B3E06A69049BB7
S1139080944663446B612378002B00D1AAE001224B
S1139090002352426A6002A95432521801342B60F0
S11390A0EB60AB601370AB65574E0522217830003E
S11390B000F030FA621C00BB2968CB0604D55323A8
S11390C002AE20309B1918700B0704D553232B20B4
S11390D002AE9B19187023782A2B16D000210A207F
S11390E00126099B2278303A092A52D9A9B1099359
S11390F013E0252BB6D00134B1E70123801B834054
S1139100296814000B432B60CEE7059B181D1B68D0
S11391100590002B37DB0993140023782E2B0BD1F9
S11391206378621C2A2B3CD1059B02341A1D1B68F0
S11391300592002B32DB0793344E21780322300052
S113914000F0E8F930B14023801B83402A680134E1
S113915013432B60217806222D48661C297600F0E3
S1139160D9F9002846D02B4B83BB2968059B0722DD
S1139170C90529D59B189343083305936B69039A52
S11391809B186B616AE75B42EB6002230B432B6025
S1139190C2E7434301349B183100A3E701235B4238
S11391A0C9E7002314000A201A0001266B60217805
S11391B03039092903D9002BBED00792BCE74243BA
S11391C0013452183300F2E70733D4E705AB0093B8
S11391D03A00114B2900029800E000BF0390039B62
S11391E00133CBD1BB890B985B0600D42BE701205C
S11391F0404228E705AB00933A00074B2900029848
S113920000F078F8EAE7C046A8960000AE960000A1
S1139210B296000000000000598F0000F7B5150059
S113922001938A680B6900900C00934200DA1300E2
S113923022002B60433212780AB101332B60236879
S11392409B0602D52B6802332B60062723681F4038
S11392503FB3230043331B785A1E9341226892067E
S113926030D42200019943320098089EB047431C31
S113927025D0062320682A68E16803400025042BD2
S113928003D18D1AEB43DB171D40A3682269934277
S113929001DD9B1AED180027BD4220D1002010E00B
S11392A00137E3682A689B1A9F42D2DA220001231D
S11392B0193201990098089EB047431CF0D101204F
S11392C04042FEBD3020E1184331087021005A1C91
S11392D045310978A218433202331170C1E72200E4
S11392E001231A3201990098089EB047431CE6D026
S11392F00137D1E7F0B50E0089B0059303900492CD
S11393000A7E0C000E9B43366E2A00D18BE017D8E0
S1139310632A2CD008D8002A00D195E0582A65D0B9
S1139320250042352A7029E0642A01D0692AF7D140
S113933021681A68080623D5111D1960136825E0F1
S1139340732A00D184E008D86F2A27D0702AE7D185
S1139350202209680A43226003E0752A1ED0782A75
S1139360DED12200782145321170684941E00D00B8
S11393701A684235111D196013682B70012374E0BB
S11393804906D9D5111D19600023D35E002B02DADA
S11393902D225B4232705E490A2215E0206819686A
S11393A0050603D5081D18600B6805E04006F9D5CD
S11393B0081D18600B689BB255496F2A31D1673A72
S11393C020000025433005706068A060002872DB2F
S11393D004252768AF432760002B6ED13500002891
S11393E077D025000B7842352B7072E045310A7036
S11393F047491A682068151D1D60136805060CD5B9
S1139400C20702D52022104320601022002BD7D19E
S11394102020256885432560D2E74506F0D59BB218
S1139420EEE70A22CCE709681A68080605D5111D7B
S11394301960136862691A6006E04906F7D5111DC0
S113944019601368A28A1A800023350023614EE054
S11394501A68111D1960156800216268280000F05F
S113946059F808B1401B60606368236100233370BE
S11394703DE023692A0004990398059DA847431CED
S11394803FD0236800259B070FD4079BE0689842D0
S113949039DA180037E022000123193204990398BD
S11394A0059EB047431C2CD00135E368079A9B1AEC
S11394B09D42F0DBE9E7002B93D03500B3FBF2F0DB
S11394C017004743DB1BCB5C013D2B7003000028D6
S11394D0F4D1082A09D12368DB0706D56368226919
S11394E0934202DC3023013D2B70761B2661059BE1
S11394F007AA00932100049B0398FFF78FFE431CE7
S1139500B7D10120404209B0F0BDC046CA96000060
S1139510B9960000C9B28218904201D10020704768
S113952003788B42FBD00130F6E710B5884202D9AC
S11395308B18984208D300239A4207D0CC5CC454B9
S11395400133F9E78B5C8354013AFBD210BDF8B5C3
S113955007000D00160029B91100FFF76BFC040089
S11395602000F8BD1AB9FFF71BFC3400F8E700F03F
S113957013F82C008642F3D931003800FFF75AFC67
S113958004000028ECD029003200FFF7F7FB290083
S11395903800FFF705FCE3E70B1F1B68181F002BBF
S11395A001DA0B58C018704742F2AC03C2F2000350
S11395B01A681AB1101818601000704742F2D842A5
S11395C0C2F20002F6E7C046535048494E43535096
S11395D048494E430A0000000A20506F583A2000C0
S11395E030780000252E32780000000041206C6F96
S11395F074206F662068656C6C6F6F6F6F6F6F0A95
S11396000000000048690A00526563656976653A9E
S1139610200000006765745F737068696E635F7330
S113962069672061743A2000577261707065722016
S1139630746573742061743A20000000537461727D
S1139640742072756E6E696E6720737068696E63DC
S1139650730A00003D3D3D3D3D3D3D3D3D3D3D20CA
S11396604F7574707574203D3D3D3D3D3D3D3D3D20
S11396703D3D0A003D3D3D3D3D3D3D3D3D3D3D20A3
S11396804F757470757420746F6B656E203D3D3D2D
S11396903D3D3D3D3D3D3D3D0A0000005374616349
S11396A06B20757365640A00232D302B2000686CD1
S11396B04C006566674546470030313233343536F1
S11396C0373839414243444546003031323334352A
S11396D03637383961626364656600000000000053
S11396E00000000000000000000000000000000076
S11396F00000000000000000000000000000000066
S11397000000000000000000000000000000000055
S11397100000000000000000000000000000000045
S11397200000000000000000000000000000000035
S1139730000000000000000000000000F8B5C04672
S1139740F8BC08BC9E46704721810000F8B5C046AD
S10F9750F8BC08BC9E467047F580000081
S10B975CDCF1FF7F01000000B5
S11397640A0000000820002000000000FC9600000D
S11397741C970000DC9600000000000000000000BC
S113978400000000000000000000000000000000D1
S113979400000000000000000000000000000000C1
S11397A400000000000000000000000000000000B1
S11397B400000000000000000000000000000000A1
S10B97C4000000000000000099
S90380007C
