:10800000C83E0020658100006181000061810000A0
:108010000000000000000000000000000000000060
:10802000000000000000000000000000618100006E
:10803000000000000000000061810000618100007C
:1080400061810000618100006181000061810000A8
:108050006181000061810000618100006181000098
:108060006181000061810000618100006181000088
:108070006181000061810000618100006181000078
:108080006181000061810000618100006181000068
:108090006181000061810000618100006181000058
:1080A0006181000061810000618100006181000048
:1080B0006181000061810000618100006181000038
:1080C000618100006181000061810000F181000098
:1080D0006181000061810000618100006181000018
:1080E0006181000061810000618100006181000008
:1080F0006181000010B542F2D814C2F20004237866
:1081000063B940F20003C0F200032BB14BF6084004
:10811000C0F2000000E000BF0123237010BDC04684
:1081200040F20003C0F2000310B54BB142F2DC1183
:108130004BF60840C2F20001C0F2000000E000BFB0
:108140004BF60840C0F20000036803B910BD40F2CE
:108150000003C0F20003002BF8D09847F6E7C046B2
:10816000FEE7C0464BF6084142F20000C0F20001B3
:10817000C2F2000010B581420FD042F2D413C2F215
:108180000003984209D2C243D2184AF62F539208EC
:1081900001329200C0F20003984742F2D81042F632
:1081A000C403C2F20000C2F2000398420AD2C243E2
:1081B000D2184AF641539208013292000021C0F2CF
:1081C0000003984748F200037F22C0F20003934364
:1081D0004EF60052CEF2000293604AF6AD43C0F272
:1081E0000003984748F6E563C0F200039847FEE7AE
:1081F00042F2F81301200021C2F2000330B59C685E
:10820000DD68001969419860D96041F2004310228D
:10821000C4F20023997A0A4200D09A7230BDC04657
:10822000F8B540F2004242F25023C4F20022C2F2FA
:1082300000031A6042F24C230B22C2F200031A60C0
:1082400042F248230224C2F200031C6042F20043BF
:10825000C0F2F4039C4649F66D0542F20042012645
:10826000000140426044010CC0F20005C0F2F4027B
:1082700000230004A847B44643F20003802258219B
:1082800002256646C4F2000352049A605A5C3C27F9
:108290002A43D2B25A545A5C3243D2B25A540F22B1
:1082A000D95D91432943D9558021890459605921C9
:1082B0005E5C2E43F6B25E5404265D5CB5436646B2
:1082C0005D545D5C3543EDB25D54D95D0A402021BB
:1082D0000A43DA5540F60003C4F20003DA6940218C
:1082E000144341F60042DC61AC23AC24C4F200022A
:1082F000D15013591942FCD040F200420423C4F279
:108300000022C4F231031360C02302219B0280B219
:108310005360908113680B431360D3691942FCD1F9
:10832000F8BDC04610B5047874B142F25023012163
:10833000C2F200031A680130137E1942FCD0A4B2C5
:1083400014850478002CF6D110BDC0460A2290FB9B
:10835000F2F130B58C006418640085B0041B01ABE9
:1083600030341C70002900DC91E091FBF2F5AC0088
:1083700064196400091B30315970642190FBF1F1DC
:10838000002900D185E091FBF2F5AC00641964008E
:10839000091B3031997040F2E83190FBF1F100296E
:1083A00000D178E091FBF2F5AC0064196400091B80
:1083B0003031D97042F2107190FBF1F1002900D1F7
:1083C0006BE091FBF2F5AC0064196400091B3031DD
:1083D000197148F2A061C0F2010190FBF1F100298E
:1083E0005DD091FBF2F5AC0064196400091B3031DB
:1083F000597144F24021C0F20F0190FBF1F10029C4
:108400004FD091FBF2F5AC0064196400091B3031C8
:10841000997149F28061C0F2980190FBF1F1002955
:1084200041D091FBF2F5AC0064196400091B3031B6
:10843000D9714EF20011C0F2F55190FBF1F1002913
:1084400033D091FBF2F29400A2185200891A4CF634
:108450000022C3F69A3290FBF2F03031197230B339
:1084600030305872092042F2502218186B46012110
:10847000C2F200021268DD1C0478137E1942FCD09F
:10848000A4B201381485A842F6D105B030BD002051
:10849000E9E70120E7E70220E5E70320E3E704201E
:1084A000E1E70520DFE70620DDE70720DBE708201E
:1084B000D9E7C04642F25023C2F200031A680421F1
:1084C00003E0137E5BB2002B05DB137E1942F8D06C
:1084D000108DC0B270478021137E0B431376F7E7EF
:1084E00070B5002915DD42F250258026042441187C
:1084F000C2F2000576422A6803E0137E5BB2002BCD
:1085000008DB137E1C42F8D0138D037001308842C3
:10851000F1D170BD137E3343DBB21376138D03703C
:1085200001308842E7D1F4E730B500290FDD42F28F
:1085300050230124C2F200031A6841180578137E03
:108540001C42FCD0ADB2013015858842F6D130BD59
:10855000F0B5DE464E465746454642F27C2047F689
:108560000943E0B5C0F2000383B040F24461C2F2B7
:108570000000984742F27C23C2F200030193984620
:1085800045F200034AF65919C4F2C373002440F2BD
:10859000000A1A269B46C0F20009032352461342E2
:1085A00038D0454647466035200001346130C84721
:1085B00094FBF6F3734301C7E41AAF42F4D10022EF
:1085C000534642F27C2140F2006C9B00C2F2000153
:1085D00063448C46634440F2010CE2441A60534603
:1085E000A846102BD9D10E2240F24063019942F2E5
:1085F0007C20CA5047F6114340F24461C2F20000A9
:10860000C0F20003984703B03CBC90469946A2468E
:10861000AB46F0BD4746002503E001350437182D71
:1086200010D0200001346130C84794FBF6F3734347
:108630003860E41A5545F0D15B4601353B6004379C
:10864000182DEED1FE22454692056035B8E7C046AA
:1086500042F27C2047F6094370B540F244619AB07B
:10866000C2F20000C0F20003984748F225354BF2F1
:108670006870C0F20005C0F2000048F2B544A84797
:10868000C0F20004A0473C28FCD1A0477028F9D1D3
:10869000A0473E28F6D14BF27470C0F20000A84704
:1086A000A0473C28FCD1A0477028F9D1A0473E281C
:1086B000F6D148F2E14303216846C0F2000398472F
:1086C0004BF28070C0F20000A8476A460023D370C6
:1086D0004AF681436846C0F20003984748F24D339A
:1086E0000600FF20C0F20003304098474BF2847030
:1086F000C0F20000A8474AF6F913F0B2C0F2000336
:108700009847029042F27C2040F24061C2F20000A1
:10871000435802AC84465A00D218230052016244E6
:1087200070CB70C2140064CB64C4435800241A0098
:108730008132FF32920014500F220133DC17240FD4
:108740001B1913401B1B435047F611430431C0F261
:10875000000398471AB070BDF0B54E4645465746DF
:10876000DE46E0B542F25425C2F20005A3B02B006C
:1087700090466A4606901091103351CB51C251CBAE
:1087800051C249F26D140F0028686968AA68EB6845
:10879000C0F20004A047002F00DCF7E04AF2A53346
:1087A00000214AF61D1AC0F200030B93C4F2C8213F
:1087B00040469847C0F2000AD04700230C9342F28B
:1087C0007C234AF64151C2F2000348F2253B9C4605
:1087D000139349F6BD4253464446C0F20001C0F22D
:1087E000000B12914BF2492149F27529C0F20002A7
:1087F00040F200680D935B46A2469346C0F200012A
:108800000F90C0F200091191E0440E9342F27C24D3
:1088100046460027C2F200040A96534608930A9B74
:108820006A4607932B000694103343CB43C243CBD5
:1088300043C2EB686968AA682868C847011C381CED
:10884000D8470A9B60340433071C0A934445E4D19B
:1088500032220021129B15A8984700210B9BC4F2DD
:10886000C801381C98470D9B98474BF2987102003D
:108870000F9BC0F2000115A8119CA0470E9B15A8E4
:1088800098470C9B109A01330C939A42BED10D9BD2
:108890009A460E9B9B4640F2006C139B52466344E3
:1088A0000C93984649F2312342F27C2448F24D362B
:1088B0005F46AA46C0F20003C2F200040D93C0F264
:1088C00000060A9253466A460694103323CB23C20D
:1088D00023CB23C253460D9D59689A681868DB68FC
:1088E000A84783464BF2B87040F26009C0F200001E
:1088F000B8473B00A1444D4699460A9F01CCB84772
:10890000B0474BF6F400C0F20000C847AC42F5D1C6
:108910004BF2C070C0F200000A97C8475B460021C6
:108920001868C4F2C8210B9DA8470A9A9047B0471F
:108930004BF6F400C0F20000C8474BF2C870C0F21A
:108940000000C8474246002101CAC4F2C82190462F
:10895000A8470A9B9847B0474BF6F400C0F20000C6
:10896000C8474BF65410C0F20000C8470C9B4F4656
:108970009C42A7D14BF65410C0F20000C84723B068
:108980003CBC90469946A246AB46F0BD42F27C23E1
:10899000C2F2000313934AF2A5334AF61D1A48F2B5
:1089A000253BC0F200030B93C0F2000AC0F2000B9B
:1089B00071E7C04670B542F27C2547F60943C2F222
:1089C0000005280040F24461C0F2000342F208248E
:1089D00098474AF61D13C2F200046068C0F2000313
:1089E000984748F2597326680100321CA068C0F20B
:1089F0000003984747F61143280040F24461C0F253
:108A00000003984770BDC046F0B5DE4657464E4657
:108A100045460023E0B5A7B0049342F20F730499D2
:108A200042F20F72994205DC049B01330493049BCC
:108A30009342F9DD4AF641530DAD64220021C0F2A4
:108A400000032800984742F2082748F2E143392101
:108A50002800C0F20003C2F2000798473B0005AEB1
:108A600010334BF2D0714AF61154F36005230522FE
:108A7000C0F200012800C0F2000477603377B561CE
:108A8000A04748B14BF2D8710522C0F2000128007E
:108A9000A047002800D0C8E04BF2E07048F225342F
:108AA000C0F20000C0F20004A04704AB9C4629229B
:108AB0006244537811781B0219439378D2781B04CF
:108AC0000B4312061A432D234BF2F870634492466F
:108AD0005A781978120211439A78DB7812040A4303
:108AE0001B061343C0F200009946A047280048F235
:108AF00029553921C0F20005A8474BF6040048F279
:108B00004D38C0F20000A047C0F200085046C047F0
:108B10004BF61000C0F20000A0474846C0474BF695
:108B20001800C0F20000A047534673614B460593FE
:108B30000C23B3601433336104AB9C46312142F201
:108B400008204AF62F5361440C22C0F20003C2F2FF
:108B50000000984704AA94463D23634419009946AF
:108B600047F601433000C0F2000398474BF62C0053
:108B7000C0F20000A047F3681868C0474BF6380001
:108B8000C0F20000A04742F65043FE68C2F2000364
:108B9000103E9E4200D89EE11A78D92A09D05A7810
:108BA000D92A06D09A78D92A03D0DA78D92A00D0DF
:108BB0008BE101339E42EFD143F6C863C2F200035A
:108BC0009E1B4BF64400C0F20000A0473000C04797
:108BD0004BF65000C0F20000B846A0470A264F46A8
:108BE0004BF65C00C0F20000A04740462021103048
:108BF000A8474BF6F400C0F20000A047202138003F
:108C0000A8474BF66400013EC0F20000A047002ECA
:108C1000E6D14BF66C00C0F20000A04727B03CBC88
:108C200090469946A246AB46F0BD4BF6740105222C
:108C3000C0F200012800A047002800D034E14BF624
:108C40007C0048F22534C0F20000C0F20004A047C6
:108C500004AB9C4629226244537811781B021943C5
:108C60009378D2781B040B4312061A4393462D22A5
:108C70006244537811781B0219439378D2781B040D
:108C80000B4312061A435B4642F2542873610C23CD
:108C9000C2F20008B36043461B683121F3604346CB
:108CA0009B69029299469B00336163465B18326070
:108CB0001A78634601315B181B7801311B021A4395
:108CC000634634205B1861461B7809181B04134364
:108CD0000A784AF61D1A1206110019433523634417
:108CE0001A0018785B78C0F2000A1B0203439078E0
:108CF000009100040343D07800061843D04704AA2B
:108D00009446392363441A0019785B7803901B0258
:108D100019439378D2781B0412060B4311001943B0
:108D200043464BF690005B69C0F200004B440933A8
:108D30009B0099460191A047280048F22955392106
:108D4000C0F20005A8474BF6040048F24D38C0F2C7
:108D50000000C0F20008A0475846C0474BF610007C
:108D6000C0F20000A0470298C0474BF69C00C0F23A
:108D70000000A0474AF2A53B44F20001C0F2000BFC
:108D8000C4F21C610098D847D047C0474BF6A400F6
:108D9000C0F20000A0470398C0474BF6B000C0F2F5
:108DA0000000A04744F200010198C4F21C61D847BA
:108DB000D047C0474BF6BC00C0F20000A047306966
:108DC000C0474BF6CC00C0F20000A0474846C04761
:108DD0004BF61800C0F20000A04704A98C463123CE
:108DE000634419004AF62F530C22C0F200033800E6
:108DF000984704AA94463D2363441900994647F6D0
:108E000001433000C0F2000398474BF62C00C0F23B
:108E10000000A047F3681868C0474BF63800C0F25E
:108E20000000A04742F65043F968C2F2000310392F
:108E3000994253D91A78D92A08D05A78D92A05D014
:108E40009A78D92A02D0DA78D92A02D101338B4212
:108E5000F0D143F6C867C2F20007FF1A4BF6440090
:108E6000C0F20000A0473800C0474BF65000C0F2E7
:108E70000000A0470A274BF65C00C0F20000A047A4
:108E80003169F068A8474BF6F400C0F20000A04733
:108E900020214846A8474BF66400013FC0F200007D
:108EA000A047002FE7D1B4E64BF6DC0048F22534AA
:108EB000C0F20000C0F20004A0472800A0474BF613
:108EC0005410C0F20000A047A8E643F6C866C2F2FC
:108ED0000006F61A75E641F2782672E641F2782726
:108EE000BCE7C046F0B58BB06B4642F20822C2F236
:108EF0000002D360190042F6C7221039C2F2000204
:108F000091427AD94DF229524AF64154CDF6FF7278
:108F10009A180F3B981AD921C0F20004A047E1200B
:108F200048F221234002C0F20003984748F2253559
:108F30004BF6F800C0F20005C0F20000A8474BF65F
:108F40000C10C0F20000A84748F24D3648F25150CC
:108F5000C0F20006C0F20000B0474BF62010C0F28D
:108F60000000A84748F25160C0F20000B0474BF63D
:108F70003810C0F20000A84748F6B510C0F2000053
:108F8000B0474BF64C10C0F20000A84742F27C20DC
:108F900042F2542649F24D4740F244620021C2F2A7
:108FA0000000A047C2F200060123182168460822EB
:108FB000C0F20007B8476C4632000BCC0BC20BCC9A
:108FC0000BC20BCC0BC248F60926236848F2B54405
:108FD0001360C0F20006C0F20004B047A0474F285B
:108FE000FCD1A0474128F9D1A0474B28F6D14BF638
:108FF0005810C0F20000A847EFE74AF64154C0F20B
:1090000000048CE7F0B5DE4657464E464546E0B5CF
:1090100087B09A46149B04919B46129B0292002BA8
:109020004DDD119B49F6BD459B009846129B4AF2C7
:10903000A5399B005344039349F2C943C0F200038E
:10904000009349F6D573C0F200030193534607001D
:10905000C0F20005C0F200090593119B0026002B09
:1090600012DD2B0000244546002698465B46395900
:109070001859C847011C301CC0470434061CA542BF
:10908000F4D14346A8461D00029B301C1968A8472E
:1090900080231B069C46009B60449847FE2189055F
:1090A000A847011CFE20019B80059847534601C339
:1090B0009A46039B47445345CFD1059B9A46139B41
:1090C000002B4BDD109B49F6BD459B46129B4AF297
:1090D000A5399B009846139B049F9B005B44039318
:1090E00049F2C943C0F20003009349F6D573C0F2B8
:1090F0000003C0F200050193C0F20009129B002694
:10910000002B12DD2B0000244546002698465346CE
:1091100039591859C847011C301CC0470434061C73
:10912000A542F4D14346A8461D00029B301C596855
:10913000A84780231B069C46009B60449847FE215D
:109140008905A847011CFE20019B800598475B46C6
:1091500001C39B46039B47445B45CFD107B03CBC52
:1091600090469946A246AB46F0BDC04684B0F0B5E5
:10917000DE464E4657464546E0B583B00F93169BF4
:109180000C909946119B0D910193129B0E929B4658
:10919000002B1FDD0C9B4BF2B5184AF659174AF20B
:1091A000A5364AF2FD559A460024C0F20008C0F2E6
:1091B0000007C0F20006C0F20005C047B847C02152
:1091C0008905B0474946A8475346013401C39A462A
:1091D0005C45F2D1019B002B20DD0E9B4BF2B518B4
:1091E0004AF659174AF2A5364AF2FD559A46002426
:1091F000C0F20008C0F20007C0F20006C0F200058D
:10920000C047B847C0218905B0474946A8475346DB
:1092100001C39A46019B01349C42F1D103B03CBC8E
:1092200090469946A246AB46F0BC08BC04B018472D
:1092300084B030B587B004000A900B91080011008B
:109240000C920A0001002000149C0E9D0494139CB3
:1092500000950394129C0D930294119C019449F281
:109260000504C0F20004A047280007B030BC08BCC9
:1092700004B0184784B0F0B5DE4657464E46454622
:10928000E0B593B01E001F93209B05001C9008932F
:109290001800239B0C001F001D911100019749F23B
:1092A00005071E92259A11930F920A002699249B76
:1092B00004910F99109303910293009033002100C1
:1092C0002800C0F20007B847109B002B00DC86E0A6
:1092D000119BB2469B000793109B0C949B000A9332
:1092E0000F9B4AF2FD569B00099300230E9349F60B
:1092F000BD434AF2A534C0F200030D95C0F200064A
:10930000C0F200040B930F9B002B00DC99E00023BC
:109310000025D1460C9F0693089B5B599846279BD6
:1093200040465959B0478346FE2041468005B04724
:109330004146A04782463B685846191C9846A047BC
:109340005146A0470B9B011C069898474B46069038
:1093500019682898A0475946A0475146A047011CC4
:109360004046B0470A9B04359C46099B38606744D9
:10937000AB42D1D1069BCA469946119B0025002BD2
:109380001CDDB0460D9E5346FE201F688005391C2B
:10939000C047391C83462898A047011C5846A0475F
:1093A0004946A047269B5959A047011C7059C04700
:1093B000079B70510435AB42E5D1464640F2040CA0
:1093C0000799E2448C460D9A0E9B62440D920C9ACA
:1093D000013304320C92109A0E939A4293D10F9B50
:1093E000002B31DD9B0049F6BD479946279B4AF289
:1093F000FD584AF2A535002400269A46C0F200071F
:10940000BB46089FC0F20008C0F200055346395918
:109410001859C047011CA847FC218905A847011C11
:10942000301CD8470434061CA145EFD1301C13B0C2
:109430003CBC90469946A246AB46F0BC08BC04B082
:1094400018470023994698E70026EFE7F0B5DE4677
:1094500057464E46454698460B00E0B54AF68D45C0
:1094600043445343040083B01800C0F2000589460A
:10947000042116009A46A847042107000220A847A5
:10948000042183463000A847042101904046A847A4
:109490004B4673439B002760FF185B46A360019B0C
:1094A0002061E360022363615346A3614B462000C1
:1094B000E361434667602662636203B03CBC90464A
:1094C0009946A246AB46F0BDF0B542F200048BB01F
:1094D000051C00F073F80023C2F20004E356061CDA
:1094E00001333DD0281C00F07DF9C8B347F280114C
:1094F000281CC4F2B12100F0A5F90700002832D1E0
:109500004FF2B511281CCCF2CF2100F087F938B307
:10951000042300934BF66013281CC0F20003019350
:10952000089701F0AFFA0023002206920793002368
:10953000E3566E460490059102900391022B37D0BA
:10954000300000F04DF9002832D0336A1BB101F031
:10955000A7FB336A0360B069F16901F0E5FA061C04
:10956000301C0BB0F0BD032300934BF66013C0F228
:10957000000301930023281C089301F083FA0023C1
:10958000E3566E46049005910290039143B9E022A0
:109590004FF6FF731206C4F2EF7306920793CFE7FC
:1095A00000210020C7F6F07106900791022BC7D169
:1095B00001F076FB22230360C7E7C046F8B5FF221F
:1095C000CE464746430080B5041C5B08D205934253
:1095D00000D98EE0C50F934200D191E047F21722E7
:1095E000C4F2B122904200DDB0E0002800DAA3E02E
:1095F00047F21822C3F6B162934200D884E041F2E8
:109600009152C3F68572934200D9BCE04BF67013B9
:10961000AF00C0F20003F958201C00F0EFFF4BF63A
:10962000781301248146C0F20003641BFF58651BB8
:10963000391C484600F0E2FF041C211C201C00F0ED
:10964000B1FE4BF64C31C3F23131061C00F0AAFEDC
:109650004EF60E21C3F2DD5100F0D0FF311C00F0B8
:10966000A1FE4BF25531C3F68A0100F027FB311CF5
:1096700000F098FE40F66131C3F6363100F0BEFFCF
:10968000311C00F08FFE4AF6AB21C3F62A6100F0D0
:1096900015FB311C00F086FE011C201C00F0AEFF03
:1096A0008046011C201C002D58D000F07BFE041CBD
:1096B00080204146C00500F0A1FF011C201C00F0E5
:1096C00089FC011C381C00F099FF494600F096FF08
:1096D000011CFE20800500F091FF2B007D3300DB94
:1096E0007AE0D8216435ED052818090500F05AFE06
:1096F00002E0011C00F0E2FA0CBC90469946F8BD6D
:10970000002DF9D00020F7E74FF6FF72C3F27F1269
:10971000934219D84FF2CA21201CC7F2491100F018
:10972000CDFAFE21890500F08DF868B1FE21201CDC
:10973000890500F0C3FADFE74FF2B512C4F2CF2279
:10974000934200D854E7DDE7002576E74FF2CA21BF
:10975000C7F24911081C00F025FECDE700F022FEFB
:109760008021051CC905404600F048FF011C281C4B
:1097700000F030FC211C00F041FF011CFE208005A0
:1097800000F03CFFB8E74AF63B21201CC3F6B87155
:1097900000F008FE4BF66813AD00C0F20003E95874
:1097A00000F08CFA01F0BAF8050001F0D5F847F2A4
:1097B0008011C3F63171071C00F0F4FD011C201C60
:1097C00000F01CFF4FF2D1718146C3F21771381CB3
:1097D00000F0E8FD071C2BE7ED0528188CE7C046D4
:1097E000002070474FF6FF72430000205B08C7F669
:1097F0007F729A42404170478446081C6146FFE7E9
:109800001FB500F091FD002801D40021C8421FBD02
:1098100010B500F029FD4042013010BD10B500F038
:1098200083FD002801DB002010BD012010BDC046D3
:1098300010B500F079FD002801DD002010BD0120E9
:1098400010BDC04610B500F035FD002801DC002039
:1098500010BD012010BDC04610B500F02BFD002842
:1098600001DA002010BD012010BDC046002B11D12F
:10987000002A0FD1002900D1002802D00021C943BD
:10988000081C07B4024802A14018029003BDC0465C
:10989000B113000003B4684601B5029800F034F833
:1098A000019B9E4602B00CBC7047C046F0B54FF617
:1098B000FF75CE4647462C00154099462B000440C4
:1098C000160C80B5070C63437D43774366431C0C3D
:1098D0007619A4199C46A54203D980235B029846B9
:1098E0004744250CEF1963464FF6FF751D404B4664
:1098F00051434343240464195918C91920000CBC6E
:1099000090469946F0BDC046F0B557464546DE46FE
:109910004E469846E0B583B01700019216004246C5
:1099200005000C0083468A46002A4CD18F4200D89D
:1099300078E0380001F086F950B120232A001B1A84
:10994000DA40844013008540234386409A46AB4664
:10995000370CBAFBF7F2390053464FF6FF74514308
:109960001500591A5B463440654309041B0C0B4330
:109970009D4209D99B19511E9E4200D97CE19D420E
:1099800000D879E1023A9B19591BB1FBF7F35C430C
:109990005F432500C91B4FF6FF745F4609043C4036
:1099A0000C43A54200D95CE1120413430022641B5E
:1099B00001920C9A2AB1C4400C9A0C9814600022AF
:1099C000426018000AE0884510D90C9B002B00D19A
:1099D00070E118605960002300200193019903B0E1
:1099E0003CBC90469946A246AB46F0BD404601F0CD
:1099F00029F90190002800D0A3E0A04502D3AF428E
:109A000000D951E1EF1B4346BD42AD41E41A6D421E
:109A1000631B9A4601200C9B002BDFD052461F602F
:109A20005A60DBE717B90136B6FBF7F6300001F0F4
:109A300009F9B8BB4FF6FF770123A51B3740340C5B
:109A40000193B5FBF4F33A005A43944622005A437B
:109A5000AA1A5D4612042D0C2A43944507D992197F
:109A60005D1E964202D8944500D920E12B00654640
:109A7000521BB2FBF4F56C435946121B4FF6FF74B0
:109A80006F4312040C401443A74207D9A4196A1E5D
:109A9000A64202D8A74200D903E115001B04E41B2B
:109AA0002B4386E720212A002300091A86408440A0
:109AB000CA40CB402243340CB3FBF4F185404FF64F
:109AC000FF77AB460D0037407D43AC4625004D4344
:109AD0005D1B2D04130C91462B439C4509D99B1902
:109AE0004D1E9E4200D9DAE09C4500D8D7E00239ED
:109AF0009B1962469B1AB3FBF4FC62464FF6FF7853
:109B000062439B1A1B049A4642464B4665461A40DE
:109B100053467D4313439D420DD962469B19013A3A
:109B20009E4200D9B7E09D4200D8B4E002225242E2
:109B300090469B19C4445D1B634609041943019177
:109B40007FE7202301983A001B1A9C464346614652
:109B50008340CA4013432A002600CA408440CE40B6
:109B600022431C0C87408540B6FBF4F091464FF62B
:109B7000FF7201001A405143884621004143761A82
:109B800049463604090C0E43B04509D9411EF61862
:109B90008A46B34200D980E0B0457ED90238F61833
:109BA0004146761AB6FBF4F841464C434A43361B0D
:109BB00049464FF6FF7436040C403443A2420BD999
:109BC0004146E4184E1EA34263D8A24261D9022145
:109BD00049428946E418C84441464FF6FF760004DE
:109BE0000843310001408A46010C884651463E40F8
:109BF000714389464146A21A3C0C4E436143884654
:109C000051464C434946090C8A46A4195444A6427D
:109C100003D9802149028A46D044260C46444FF697
:109C2000FF7821048A464C464146214089465446E5
:109C30004C44B24224D321D00C9B83B12C1BA542AF
:109C4000AD41921B6D42521B130061468B4001993E
:109C5000CC40CA401C430C9B1C605A6000230193FB
:109C6000BCE6A419591EA64204D8A54202D9023B5B
:109C7000A41999E60B0097E60A0085E6A542DBD217
:109C8000E71BF31ABC42B641764201389E1B3C00EA
:109C9000D2E7B046A0E794464DE7504680E729005A
:109CA00027E7023DA419F9E600202F00B3E6023BA6
:109CB0009219DCE60023002001938FE6F0B5C6463A
:109CC0004E024702760A7B0A4400C50FF70048009F
:109CD000984600B5240E2A00DB00000EC90FBC46D2
:109CE0008D4267D0221A002A00DCA5E000283AD174
:109CF000002F00D193E0511E002900D0BBE00124C9
:109D0000DB1B5A0146D59B019E09300000F09AFFEB
:109D100005388640844200DD9CE0041B3200202090
:109D20000134E240041BA64033005E1EB341002410
:109D300013435A0704D00F221A40042A00D00433D8
:109D40005A0129D50134FF2C00D180E02A009B0163
:109D50005B0AE4B25B02E405580AD20720431043D1
:109D600004BC9046F0BDFF2CE3D080213800C9042C
:109D7000084384461B2A00DD81E020206146D14053
:109D8000821A604690400200501E82410A439B1A8C
:109D90005A01B8D45A07CED1DE082A00FF2C3AD196
:109DA000002E00D1ACE08023DB0333435B025B0A6F
:109DB000FF24CFE7211A002951DD90B3FF2CB8D042
:109DC00080203E00C0040643B4461B2900DDA9E004
:109DD00020266046C840711A66468E4031004E1EED
:109DE000B14101435B185901D4D50134FF2C00D196
:109DF00086E0012275491A405B080B40134398E73F
:109E0000002C00D0A3E0002B00D0B1E03B00002FDD
:109E100060D10026002273025B0AE4B29AE71400C4
:109E200087E7002F4BD0481E002855D163440124FA
:109E30005A01AFD50224DCE722BB621CD2B2012A50
:109E4000DEDDDE1B720134D5FE1A0D005DE72A004F
:109E500000237FE733005E4A241A134069E7002994
:109E600062D1611CC8B201284DDDFF2948D063448E
:109E70005B080C005DE7FF2A40D00A007AE7012268
:109E80009B1A85E7ECB1FF2822D08024E4045242DB
:109E900023431B2A00DD86E01C002025D440AA1A9B
:109EA00093405A1E9341234362460400D31A0D0087
:109EB00027E7002E00D028E700220024ABE70C00A3
:109EC00037E7002B49D0D243002AEDD0FF28E0D15C
:109ED0006346FF240D002CE7FF290FD0010074E733
:109EE000002B5DD0FF24002F00D122E780224146C5
:109EF000D203114202D0164200D13B00FF2418E7E2
:109F0000FF24002326E7002CEAD1002B54D0002F99
:109F100000D10EE763445A0100D43BE72C4A0C0001
:109F2000134006E701215DE7DCB9F3B3C94359B13A
:109F3000FF2835D01B2947DC1C002026CC40711A95
:109F40008B40591E8B412343634404004BE7C3B944
:109F50003B006FB30D00FF24EBE63B0004000D0057
:109F6000E7E6FF281CD08024E40449422343E1E7CC
:109F7000002F00D1DDE6DE1B72011FD5FB1A0D009C
:109F8000D7E6FF24002F00D1D3E680224046D2033B
:109F90001042B3D01642B1D13B000D00FF24C8E6F9
:109FA0006346FF24C5E601237EE73B000400C0E6CC
:109FB00080260022F603F6E63B00BAE63300002EC8
:109FC00000D0E7E6002226E70123BDE7FFFFFF7D83
:109FD000FFFFFFFBF0B557464E46DE464546E0B56F
:109FE00043004402C60F1B0E83B00F1C640AB24626
:109FF000002B54D0FF2B28D08022E400D20414433D
:10A000007F225242904640F2000940F2000B9844F1
:10A0100078007D02FB0F000E6D0A009328B3FF2825
:10A0200045D080230021ED00DB041D437F384746E7
:10A03000381A4F460F43BF00B9463300009A874F86
:10A0400053404A46BA5801939746002C4DD17800A8
:10A050007D02FB0F000E40F2080940F2FF0840F2BB
:10A06000020B6D0A00930028D9D125BB00200121E5
:10A070003300009A7A4F53404246101A4A460A4328
:10A080009200BA581D009746009B2C009A468B46BA
:10A090005B46022B30D15346FF21002437E0B4B990
:10A0A00040F2040940F2000840F2010BB0E7FF2043
:10A0B0005DB90221DCE7280000F0C4FD431F9D408C
:10A0C00076235B42181A0021B1E70321AFE7200095
:10A0D00000F0B8FD431F9C4076235B421B1A984654
:10A0E00040F2000940F2000B92E740F20C0940F206
:10A0F000FF0840F2030B8BE7032B00D1A5E0554688
:10A10000012B00D081E00123002100242B406402B8
:10A11000C905600ADB070843184303B03CBC9046FE
:10A120009946A246AB46F0BD80240023E403FF21FC
:10A13000EDE7FF210024EAE70123591A1B2966DD18
:10A14000019A134000210024E1E78023DB031C4235
:10A1500038D01D4251D01C436402640A3300FF21F1
:10A16000D5E763016C01A3423BD21B2600210138D5
:10A1700001251F0049005B00002F01DB9C4201D834
:10A180001B1B2943013E002EF3D11C00631E9C4182
:10A190000C4301007F310029CEDD630704D00F237B
:10A1A0002340042B00D00434230103D501002D4BA0
:10A1B00080311C40FE290DDD0123019AFF2113404F
:10A1C0000024A4E78023DB031C436402640A3300F9
:10A1D000FF219CE70123019AA401640AC9B213403C
:10A1E00095E71B1B1A260121C2E7009B8B469A4666
:10A1F00000244DE76302E5D500258024E4032C43C9
:10A200006402640A009BFF2181E70195C1E72300F6
:10A210002020CB40411A8C40611E8C411C436307B7
:10A2200004D00F232340042B00D00434630105D550
:10A230000123019A01211340002468E70123019AB8
:10A24000A401640A1340002161E78023DB031C435F
:10A250006402640A5346FF2159E7C04680B90000F2
:10A26000C0B90000FFFFFFF770B5420045024E0283
:10A270004C00C30F6D0A120E760A240EC90F01207E
:10A28000FF2A06D0FF2C03D0A24201D1B54206D04E
:10A2900070BD002DFCD1FF2CFAD1002EF8D18B42DD
:10A2A00006D00120002AF3D12800451EA841EFE77F
:10A2B0000020EDE7F0B5420045024C02C30F480014
:10A2C0006D0A120E640A000EC90FFF2A1DD0FF2866
:10A2D00010D03AB96E426E41F6B280B97CB9002016
:10A2E0003DB103E000B90CB18B4211D001215842BD
:10A2F0000843F0BD002CECD002204042F9E7002ECC
:10A30000F2D0012001390843F3E7002DDFD0F3E755
:10A310008242EBDC04DBA542E8D80020A542E8D26B
:10A320000121581E0843E4E7F0B542004D024C00FD
:10A330004602760A120EC30F6D0A240EC90FFF2AB9
:10A3400016D0FF2C10D042B970427041C0B29CB1FF
:10A3500020B1012001390843F0BD9CB1994214D0CD
:10A3600001205B421843F7E70220002DF4D1EAE711
:10A370000220002EF0D1E4E7002DE9D10020002ECC
:10A38000EAD0EDE7002DE9D1EAE7A24206DCE0DB06
:10A39000AE4203D80020AE42DBD3DDE701204942C4
:10A3A0000843D9E7F0B546464F46D6464302C0B506
:10A3B00046005B0A360E88469946C40F002E51D0DF
:10A3C000FF2E23D08020DB00C004184381460027E5
:10A3D00040F2000A7F3E434658005D02000EDB0F4C
:10A3E0006D0A984608B3FF2842D0EB008025ED04A3
:10A3F0001D4300237F38414636186140701C1F43BF
:10A400000F2F69D87B4ABF00D2599746002B48D1FD
:10A41000434658005D02000EDB0F0827FF2640F27E
:10A42000020A6D0A98460028DDD1002D3ED1002099
:10A430000123E0E74146022B20D0032B00D1CFE0DF
:10A44000012B00D0ADE0002200201940CCB2400228
:10A45000D205400AE407104320431CBC90469946AD
:10A46000A246F0BD7BB90427002640F2010AB2E7FC
:10A47000FF200223002DBED00323BCE70124FF22CE
:10A480000C400020E3E7180000F0DCFB4A46431FC5
:10A4900076269A4076429146361A002740F2000A04
:10A4A00099E70C27FF2640F2030A94E7280000F002
:10A4B000C9FB431F9D4076235B42181A00239AE78D
:10A4C00080200024C003FF22C1E74D465346B2E777
:10A4D0004D4621005346AEE74B461B0C98464A4674
:10A4E0004FF6FF731A402B401C0054432F0CA44618
:10A4F000454644467D43574362466343120CFF186A
:10A50000D219934203D980235B029846454467469B
:10A510004FF6FF7314043B40E418A3015F1EBB41D8
:10A52000120CA40E55191C43AD0125432B0104D573
:10A53000012306006A081D40154332007F32002ABD
:10A5400027DD6B0704D00F232B40042B00D00435EC
:10A550002B0103D53200284B80321D40FE2A8DDCB2
:10A560000124A801400AD2B20C4070E780204B467B
:10A57000C003034208D0054205D128434002400AE7
:10A580004446FF2263E74B4618434002400AFF223D
:10A590005DE70124A31A1B2B05DD0C4000220020DF
:10A5A00055E70600C9E72A002020DA40C31A9D407B
:10A5B0002B005D1EAB4113435A0704D00F221A40F3
:10A5C000042A00D004335A0104D5012401220C408E
:10A5D00000203CE701249B01580A0C40002236E78A
:10A5E00080200124C00328434002400A0C40FF227F
:10A5F0002DE7C04600BA0000FFFFFFF7F8B5CE46D2
:10A6000047464400C20F80B547024802400A8446CC
:10A6100066467B0A48009946240E1500DB00000EB2
:10A62000C90FF600FF2800D18DE040F2010847462F
:10A630007940914265D0221A002A00DC9CE0002873
:10A640003CD1002E00D18AE0511E002900D0B3E099
:10A6500001249B1B5A0143D59B019F09380000F040
:10A66000F1FA05388740844200DD94E0041B3A008B
:10A6700020200134E240041BA7403B005F1EBB4189
:10A68000002413435A0704D00F221A40042A00D092
:10A6900004335A0126D50134FF2C00D177E0012282
:10A6A0009B015B0AE4B22A405B02E405580AD20728
:10A6B000204310430CBC90469946F8BDFF2CE1D0D6
:10A6C0008021C9040E431B2A7ADC31002020D140AE
:10A6D000821A9640721E96410E439B1B5A01BBD4B0
:10A6E0005A07D1D10122DF082A40FF2C33D1002F95
:10A6F00000D1A6E08023DB033B435B025B0AFF241F
:10A70000D2E7211A00294BDD58B3FF2CBAD08020A4
:10A71000C00406431B2900DDACE030002027C84000
:10A72000791A8E40711E8E4106439B195901D7D567
:10A730000134FF2C00D184E0012276491A405B08E5
:10A740000B4013439EE7002E00D072E76DE73B00FD
:10A75000002FC5D100227B025B0AE4B2A4E71400FB
:10A7600090E7002E4BD0481E002855D19B1901249C
:10A770005A01B5D50224DFE72ABB621CD2B2012AF6
:10A7800071DD9F1B7A0134D5F71A0D0066E70122AF
:10A7900000232A4088E73B005F4A241A134071E7F0
:10A7A000002969D1611CC8B201284DDDFF2948D0BC
:10A7B0009B195B080C0065E7FF2A40D00A0082E77E
:10A7C00001269B1B8AE7E4B1FF2821D08024E40402
:10A7D000524223431B2A00DD90E01C002025D44078
:10A7E000AA1A93405A1E93412343F31A04000D0002
:10A7F00030E7002F00D031E700220024ABE70C0047
:10A8000040E7002B52D0D243002AEED0FF28E1D1FE
:10A810003300FF240D0035E7FF2910D0010079E750
:10A82000002B68D0FF24002E00D12BE78022494660
:10A83000D203114203D06146114200D13300FF24FC
:10A8400020E7FF2400232FE7002CE9D1002B5DD067
:10A85000002E00D116E79B195A0100D440E72E4A7A
:10A860000C0013400EE7DCB95BBB002E4BD033006D
:10A870000D0007E7012658E7E4B9002B40D0C94393
:10A8800059B1FF2837D01B2942DC1C002027CC40BF
:10A89000791A8B40591E8B4123439B19040045E7CD
:10A8A000CBB926BB80270022FF0323E73300040037
:10A8B0000D00E7E6FF281ED08024E404494223432C
:10A8C000E1E7002E00D1DDE69F1B7A0100D43EE7D0
:10A8D000F31A0D00D6E6FF24002E00D1D2E6802226
:10A8E0004846D2031042AAD060461042A7D1330096
:10A8F0000D00FF24C6E63300FF24C3E6012374E7FE
:10A9000033000400BEE60027002224E73300B9E646
:10A910000123C2E7FFFFFF7DFFFFFFFB4102430072
:10A92000C20F490A1B0E00207E2B0CDD9D2B0BDC79
:10A93000802000040143952B09DC9620C31AD940DE
:10A94000484202B908007047024BD018FBE7963B1B
:10A950009940F5E7FFFFFF7F70B5002830D0C3179F
:10A96000C4185C40C50F200000F06CF99E231B1A30
:10A97000962B0DDC9622D21A94402A006402640AB7
:10A98000DBB26402DB05600AD2071843104370BDD6
:10A99000992B19DC9922D21A002A29DD9440220031
:10A9A000144C1440510704D00F210A40042A00D04F
:10A9B0000434620113D4A401640ADBB22A00E0E784
:10A9C000002200230024DCE705222100121AD140D6
:10A9D000B922D21A9440621E94410C43DAE7054B27
:10A9E0002A001C409F23A4011B1A640ADBB2C8E79B
:10A9F0002200D5E7FFFFFFFB10B5040038B300F0DD
:10AA000021F99E231B1A962B0ADC9622D21A944017
:10AA10006402640ADBB26402DB05600A184310BDFD
:10AA2000992B17DC9922D21A002A27DD94402200A4
:10AA3000134C1440510704D00F210A40042A00D0BF
:10AA40000434620112D4A401640ADBB2E3E70023F8
:10AA50000024E0E7B9222100D21A91400A00511ED9
:10AA60008A410521091ACC401443DBE7044B1C4002
:10AA70009F23A4011B1A640ADBB2CCE72200D7E7AC
:10AA8000FFFFFFFB4100090E4B1C4202DBB270B519
:10AA9000560AC40F012B19DD130B40F280327607E2
:10AAA0008D1800210A0D12051A4340F2FF732B4046
:10AAB0004FF6FF75C8F20F052A401B0513435B00D4
:10AAC000E4075B0823433000190070BDA9B90EB339
:10AAD000300000F0B7F80A281FDC0B2332001B1AE5
:10AAE000DA40030015339E4040F2893540F2FF7191
:10AAF00012032D1A130B0D40D3E73EB18023120B26
:10AB00001B037607134340F2FF75CAE740F2FF7557
:10AB10000023C6E700250023C3E7030032000B3BF8
:10AB20009A400026E0E7C046F0B540F2FF754C00C1
:10AB30000B03640D460F5B0A671C3343C90FC60045
:10AB40003D40012D29DD3B4AA518FE2D1CDC002DC2
:10AB50003EDD80010200501E8241760F3243DB0051
:10AB600013435A0704D00F221A40042A00D004339A
:10AB70008022D2041A40002A59D00135FF2D03D07B
:10AB80009B015B0AECB201E0FF2400235802E405BC
:10AB9000400AC90720430843F0BD44B11E43002EBC
:10ABA000F2D08020DB0080040343FF25D9E7334344
:10ABB0001BB10523DB08FF2C03D05B025B0AE4B268
:10ABC000E4E793B38020C00303435B025B0ADDE745
:10ABD0002A00173214DB80221E27120413437F1B26
:10ABE0001F2F0FDC144A944664443200A6403500FF
:10ABF000A3406E1EB541FA402B4313430025B0E736
:10AC00000024D6E702225242551B1A00EA40202FA8
:10AC100009D00A4884466444A34033435E1EB341CE
:10AC2000002513439DE70023F7E70023AEE72C0040
:10AC3000C0E7C04680FCFFFF82FCFFFFA2FCFFFFD5
:10AC40007047C0461C2101231B04984201D3000C0D
:10AC500010391B0A984201D3000A08391B0998428F
:10AC600001D30009043902A2105C40187047C046A5
:10AC700004030202010101010000000000000000C5
:10AC800010B50A22002100F07FFB10BD10B5034B68
:10AC90000A000100186800F05BF810BD04200020D5
:10ACA000014B18687047C0460420002070B500258D
:10ACB0000E4B0F4CE41AA410A54209D1002500F058
:10ACC0008FFF0C4C0C4BE41AA410A54207D170BDA9
:10ACD000064AAB009B181B6898470135ECE7064A0B
:10ACE000AB009B181B6898470135EEE7ECBB0000F2
:10ACF000ECBB0000F0BB0000ECBB000010B5034B48
:10AD00000100186800F07CF810BDC0460420002047
:10AD100030B50024A24201D1002005E0035D651C8E
:10AD20000C5DA34201D0181B30BD2C00F2E70023BC
:10AD300010B59A4200D110BDCC5CC4540133F8E781
:10AD400003008218934200D1704719700133F9E76C
:10AD50004A4370B51100140000F052F8050018B114
:10AD600022000021FFF7ECFF280070BD70B5050040
:10AD700081B10C1F2368002B00DAE418280000F0D2
:10AD800045FB1E4A136811002BB96360146028004C
:10AD900000F03DFB70BDA3420BD92268A01883428E
:10ADA00003D118685B688218226063600C60EEE76C
:10ADB00013005A680AB1A242FAD919685818A04279
:10ADC0000BD120680918581819608242DFD1106829
:10ADD0005268411819605A60D9E7A04202D90C2381
:10ADE0002B60D4E721686018824203D11068526852
:10ADF0004118216062605C60C9E7C0463C220020C7
:10AE0000032370B5CD1C9D43083506000C2D1CD2C4
:10AE10000C25A9421BD8300000F0F8FA254A146826
:10AE20002100C1B9244C23681BB9300000F0FCF9A3
:10AE300020602900300000F0F7F9431C2DD10C23CD
:10AE40003000336000F0E3FA03E0002DE1DA0C2378
:10AE50003360002070BD0B685B1B1BD40B2B03D928
:10AE60000B60CC18256003E08C420FD1636813603F
:10AE7000300000F0CCFA200007220B30231D904355
:10AE8000C31A002BE6D05A42E250E3E74B686360F6
:10AE90000C00EDE70C004968C3E70323C41C9C4386
:10AEA000A042DFD0211A300000F0BEF9431CD9D1F6
:10AEB000C5E7C0463C22002040220020F7B515001F
:10AEC00001938A680B6900900C00934200DA13002A
:10AED00022002B60433212780AB101332B602368C1
:10AEE0009B0602D52B6802332B60062723681F4080
:10AEF0003FB3230043331B785A1E934122689206C6
:10AF000030D42200019943320098089EB047431C78
:10AF100025D0062320682A68E16803400025042B19
:10AF200003D18D1AEB43DB171D40A36822699342BE
:10AF300001DD9B1AED180027BD4220D1002010E052
:10AF40000137E3682A689B1A9F42D2DA2200012364
:10AF5000193201990098089EB047431CF0D1012096
:10AF60004042FEBD3020E1184331087021005A1CD8
:10AF700045310978A218433202331170C1E722002B
:10AF800001231A3201990098089EB047431CE6D06D
:10AF90000137D1E7F0B50E0089B005930390049214
:10AFA0000A7E0C000E9B43366E2A00D18BE017D828
:10AFB000632A2CD008D8002A00D195E0582A65D001
:10AFC000250042352A7029E0642A01D0692AF7D188
:10AFD00021681A68080623D5111D1960136825E039
:10AFE000732A00D184E008D86F2A27D0702AE7D1CD
:10AFF000202209680A43226003E0752A1ED0782ABD
:10B00000DED12200782145321170684941E00D00FF
:10B010001A684235111D196013682B70012374E002
:10B020004906D9D5111D19600023D35E002B02DA21
:10B030002D225B4232705E490A2215E020681968B1
:10B04000050603D5081D18600B6805E04006F9D514
:10B05000081D18600B689BB255496F2A31D1673AB9
:10B0600020000025433005706068A060002872DB76
:10B0700004252768AF432760002B6ED135000028D8
:10B0800077D025000B7842352B7072E045310A707D
:10B0900047491A682068151D1D60136805060CD500
:10B0A000C20702D52022104320601022002BD7D1E6
:10B0B0002020256885432560D2E74506F0D59BB260
:10B0C000EEE70A22CCE709681A68080605D5111DC3
:10B0D0001960136862691A6006E04906F7D5111D08
:10B0E00019601368A28A1A800023350023614EE09C
:10B0F0001A68111D1960156800216268280000F0A7
:10B1000068F908B1401B60606368236100233370F5
:10B110003DE023692A0004990398059DA847431C34
:10B120003FD0236800259B070FD4079BE068984217
:10B1300039DA180037E02200012319320499039804
:10B14000059EB047431C2CD00135E368079A9B1A33
:10B150009D42F0DBE9E7002B93D03500B3FBF2F022
:10B1600017004743DB1BCB5C013D2B70030000281D
:10B17000F4D1082A09D12368DB0706D56368226960
:10B18000934202DC3023013D2B70761B2661059B28
:10B1900007AA00932100049B0398FFF78FFE431C2E
:10B1A000B7D10120404209B0F0BDC046B1BA00009D
:10B1B000A0BA0000164B10B51C68A36BBBB91820D1
:10B1C000FFF79CFD43F20E33A0630380114B012275
:10B1D000438041F2342383800F4BC3800F4B0381A4
:10B1E0000523438106338381002302614361A46BFD
:10B1F0000B4A206961690B4BFEF758FB01220023C3
:10B2000080185941206161614800400810BDC04666
:10B2100004200020CDABFFFF6DE6FFFFECDEFFFF5B
:10B220002D7F954C2DF45158002370B5054C050029
:10B230000800236000F088FA431C02D1236803B1A0
:10B240002B6070BDC02800200EB410B59DB002A9BF
:10B25000029008610B4840F2082488604861012090
:10B2600040421FABC881084804CB006801938C8121
:10B2700000F056F90023029A13701DB010BC08BCF0
:10B2800003B01847FFFFFF7F04200020F0B51F0028
:10B290000E0087B00590039102920C98347800F06C
:10B2A00085F8082200194378751C13405BB92D2CD2
:10B2B0000BD101332C780193B51C67B1102F14D139
:10B2C000302C0AD011E02E00E7E701932B2CF4D1AB
:10B2D0002C78B51CF1E7302C2BD120222B7893430E
:10B2E000582B4AD110276C780235019B254A9918B2
:10B2F000B1FBF7F63B007343CB1A04930123002202
:10B300005B4210009C462300303B092B13D81C00E5
:10B31000A7421CDD531C09D06246864206D302D1E7
:10B32000049BA34202DB0122784320182C780135CC
:10B33000E9E70A27D9E72300413B192B01D8373C1D
:10B34000E6E72300613B192B01D8573CE0E7531C8B
:10B3500007D12223059A08001360029B4BB907B05E
:10B36000F0BD019B03B14042029B002BF7D0039B31
:10B3700002B16B1E029A1360F1E73024002FB4D1A2
:10B380000837B2E7FFFFFF7F37B51300054A050016
:10B390001068046A04B9044C0A0000942900FFF7FD
:10B3A00075FF3EBD0420002068200020EC300068BE
:10B3B000704782B001B901A910002AB133B11378E6
:10B3C0000B601078431E984102B070470220404243
:10B3D000FAE7C9B28218904201D100207047037881
:10B3E0008B42FBD00130F6E710B5884202D98B18AA
:10B3F000984208D300239A4207D0CC5CC45401334E
:10B40000F9E78B5C8354013AFBD210BD704770475B
:10B41000F8B507000D00160029B91100FFF7F0FC80
:10B4200004002000F8BD1AB9FFF7A0FC3400F8E7CB
:10B4300000F082F92C008642F3D931003800FFF782
:10B44000DFFC04000028ECD029003200FFF76FFC7D
:10B4500029003800FFF78AFCE3E70000F0B58E68AA
:10B4600085B007000C00039201939E4239D840F248
:10B4700080438A891A4234D00325096923685B1AFC
:10B480000293636902985D43EB0F5D19019B6D1098
:10B4900001331B18AB4200D91D00530532D52900DA
:10B4A0003800FFF7ADFC060048B90C233B60402391
:10B4B0000120A28940421343A38105B0F0BD029A46
:10B4C0002169FFF734FCA389144A1A4080231343EF
:10B4D000A381029B2661F61826606561019EED1A24
:10B4E000A560019BB34200D21E0032000399206880
:10B4F000FFF77AFFA36800209B1BA36023689E19B7
:10B500002660DAE72A003800FFF782FF06000028ED
:10B51000DFD121693800FFF729FCC6E77FFBFFFF79
:10B52000F0B59FB0029005938B890F0016001B06A3
:10B530000FD50B696BB94021FFF762FC38603861A9
:10B5400028B90C23029A013813601FB0F0BD4023C4
:10B550007B61002306AD6B6120336B761033AB76D5
:10B5600034002378002B46D1A31B04936BB1A31B9B
:10B57000320039000298FFF771FF431C00D1B3E09D
:10B580006A69049B944663446B612378002B00D165
:10B59000AAE00122002352426A6002A954325218E2
:10B5A00001342B60EB60AB601370AB65574E052226
:10B5B00021783000FFF70DFF621C00BB2968CB0625
:10B5C00004D5532302AE20309B1918700B0704D505
:10B5D00053232B2002AE9B19187023782A2B16D0E8
:10B5E00000210A200126099B2278303A092A52D9E3
:10B5F000A9B1099313E0252BB6D00134B1E701239B
:10B60000801B8340296814000B432B60CEE7059B09
:10B61000181D1B680590002B37DB09931400237855
:10B620002E2B0BD16378621C2A2B3CD1059B023454
:10B630001A1D1B680592002B32DB0793344E2178CC
:10B6400003223000FFF7C5FE30B14023801B83404A
:10B650002A68013413432B60217806222D48661C8A
:10B660002976FFF7B6FE002846D02B4B83BB29680E
:10B67000059B0722C90529D59B18934308330593D9
:10B680006B69039A9B186B616AE75B42EB6002236C
:10B690000B432B60C2E7434301349B183100A3E7FF
:10B6A00001235B42C9E7002314000A201A00012687
:10B6B0006B6021783039092903D9002BBED007925D
:10B6C000BCE74243013452183300F2E70733D4E7B2
:10B6D00005AB00933A00114B2900029800E000BF2F
:10B6E0000390039B0133CBD1BB890B985B0600D43D
:10B6F0002BE70120404228E705AB00933A00074BB7
:10B7000029000298FFF746FCEAE7C046CCBA0000E1
:10B71000D2BA0000D6BA0000000000005DB40000FC
:10B720000B0021B1FF2A04D98A2303608B3B180048
:10B7300070470A700123FAE70B1F1B68181F002BC4
:10B7400001DA0B58C018704742F24423C2F20003DA
:10B750001A681AB1101818601000704742F6C80233
:10B76000C2F20002F6E7C0465B535D41415B455DB6
:10B770000A0000005B535D42425B455D0A00000029
:10B780005B535D005B455D0A0000000030780000FF
:10B79000252E3278000000006572726F72202564D9
:10B7A000203A3A206C6561726E696E67207261742E
:10B7B000652025640A000000496E7075743A0A001D
:10B7C0000A50443A000000000A47543A00000000C2
:10B7D0005B7374705D0000005B636C745D0000005F
:10B7E0005B546573745D2053657475702F636F6C63
:10B7F0006C6563743A20000072657475726E696ED0
:10B80000672000002C20636F756E7465723D000028
:10B810002C2066756E633D00203D20646F6E6520B0
:10B82000205B2F546573745D200A00005B535374D2
:10B8300061636B5D200000005B53537461636B5D5B
:10B840000A0000005B4E53537461636B5D203D0042
:10B850005B4E53537461636B5D0A00005B4F535D35
:10B86000000000005B4F455D0A0000005B4F7665FD
:10B87000725D0A005B74726E5D0000005B5465735C
:10B88000745D20547261696E696E673A2000000031
:10B8900052657475726E696E672000002C206C72A0
:10B8A0003D0000002C2065706F63683D00000000C3
:10B8B0002C20696E69745F76616C3D002C206F7579
:10B8C000747075742073697A653D00002C20616C7A
:10B8D0006C6F632073697A653D0000006661696C76
:10B8E000656420746F20706172736520636F6D6D85
:10B8F000616E643A200000002041206C6F74206F5C
:10B90000662068656C6C6F6F6F6F6F002077726177
:10B91000707065725F696E69742061743A2000000E
:10B9200020777261707065725F636F6C6C656374B1
:10B930002061743A20000000207772617070657297
:10B940005F747261696E2061743A20005B537461A8
:10B9500072745D200A0000005B4E6578745D0A0019
:10B9600065787066000000000000003F000000BF26
:10B970008071313F807131BFD1F71737D1F717B7D9
:10B9800062A1000032A1000044A1000088A00000D4
:10B9900044A1000028A1000044A1000088A00000EC
:10B9A00032A1000032A1000028A1000088A0000000
:10B9B00090A0000090A0000090A000004AA100000C
:10B9C00032A1000032A1000006A10000EAA100009F
:10B9D00006A1000028A1000006A10000EAA10000C5
:10B9E00032A1000032A1000028A10000EAA100005D
:10B9F00090A0000090A0000090A00000F4A1000022
:10BA0000D8A4000036A4000036A4000034A400002E
:10BA1000CAA40000CAA40000C0A4000034A400000E
:10BA2000CAA40000C0A40000CAA4000034A40000FE
:10BA3000D0A40000D0A40000D0A400006CA5000099
:10BA400000000000000000000000000000000000F6
:10BA500000000000000000000000000000000000E6
:10BA600000000000000000000000000000000000D6
:10BA700000000000000000000000000000000000C6
:10BA800000000000000000000000000000000000B6
:10BA900000000000000000000000000000000000A6
:10BAA00030313233343536373839414243444546F4
:10BAB000003031323334353637383961626364658A
:10BAC00066004300504F534958002E00232D302B61
:10BAD0002000686C4C0065666745464700002020E2
:10BAE000202020202020202828282828202020202E
:10BAF00020202020202020202020202020208810EE
:10BB0000101010101010101010101010101004044D
:10BB10000404040404040404101010101010104154
:10BB200041414141410101010101010101010101C5
:10BB3000010101010101010101101010101010425A
:10BB40004242424242020202020202020202020295
:10BB50000202020202020202021010101020000073
:10BB600000000000000000000000000000000000D5
:10BB700000000000000000000000000000000000C5
:10BB800000000000000000000000000000000000B5
:10BB900000000000000000000000000000000000A5
:10BBA0000000000000000000000000000000000095
:10BBB0000000000000000000000000000000000085
:10BBC0000000000000000000000000000000000075
:10BBD0000000000000000000000000000000000065
:10BBE000F8B5C046F8BC08BC9E46704721810000ED
:10BBF000F8B5C046F8BC08BC9E467047F58000000A
:08BC000008DDFF7F01000000D8
:10BC080001000000082000200000000060BA0000C9
:10BC180080BA000040BA00000000000000000000E8
:10BC2800000000000000000000000000000000000C
:10BC380000000000000000000000000000000000FC
:10BC480000000000000000000000000000000000EC
:10BC580000000000000000000000000000000000DC
:10BC68000000000000000000430000000000000089
:10BC780000000000000000000000000000000000BC
:10BC88000000000000000000430000000000000069
:10BC9800000000000000000000000000000000009C
:10BCA8000000000000000000430000000000000049
:10BCB800000000000000000000000000000000007C
:10BCC8000000000000000000430000000000000029
:10BCD800000000000000000000000000000000005C
:10BCE8000000000000000000430000000000000009
:10BCF800000000000000000000000000000000003C
:10BD080000000000000000004300000000000000E8
:10BD1800000000000000000000000000000000001B
:10BD280000000000000000004300000000000000C8
:10BD380000000000000000000000000000000000FB
:10BD4800000000000000000021B70000B3B30000AD
:10BD580000000000DDBA0000CABA0000D1BA000035
:10BD6800D1BA0000D1BA0000D1BA0000D1BA00009F
:10BD7800D1BA0000D1BA0000D1BA0000D1BA00008F
:10BD8800FFFFFFFFFFFFFFFFFFFFFFFFFFFF0000B9
:10BD98000100415343494900000000000000000031
:10BDA800000000000000000000000000000000008B
:10BDB8000000415343494900000000000000000012
:10BDC800000000000000000000000000000000006B
:04BDD8000000000067
:040000030000800079
:00000001FF
