:1000000020130020156300000D6300001163000041
:1000100000000000000000000000000000000000E0
:100020000000000000000000000000000D63000060
:1000300000000000000000000D6300000D630000E0
:100040000D6300000D6300000D6300000D630000F0
:100050000D6300000D6300000D6300000D630000E0
:100060000D6300000D6300000D6300000D630000D0
:100070000D6300000D6300000D6300000D630000C0
:100080000D6300000D6300000D6300000D630000B0
:100090000D6300000D6300000D6300000D630000A0
:1000A0000D6300000D6300000D6300000D63000090
:1000B0000D6300000D6300000D6300000D63000080
:1000C0000D6300000D6300000D6300000D63000070
:1000D0000D6300000D6300000D6300000D63000060
:1000E0000D6300000D6300000D6300000D63000050
:1000F0000D63000046F2A54310B5C0F20003984717
:100100000020010002000300844610BC01BC8646AA
:1001100080F300880447C04646F2494310B5C0F258
:10012000000398470020010002000300844610BC31
:1001300001BC864680F300880447C04646F2F94376
:1001400010B5C0F200039847002001000200030030
:10015000844610BC01BC864680F300880447C04634
:1001600010B540F2EC04C2F20004237863B940F207
:100170000003C0F200032BB14CF27000C0F280000B
:1001800000E000BF0123237010BDC04640F2000311
:10019000C0F2000310B54BB140F2F0014CF2700018
:1001A000C2F20001C0F2800000E000BF4CF270001B
:1001B000C0F28000036803B910BD40F20003C0F232
:1001C0000003002BF8D09847F6E7C04670B546F21A
:1001D00075750400C0F20005442200212030A847B4
:1001E0004EF26763C6F6092323664AF68563CBF6AB
:1001F000673363664FF27233C3F66E43A3664FF202
:100200003A53CAF24F53E36645F27F23C5F20E1309
:10021000236746F68C03C9F6053363674DF6AB13C7
:10022000C1F68373A3674CF619532000C5F6E0337B
:10023000E367082200218030A84770BDF0B557461B
:100240004E464546DE46D3009C46E0B5E84CFF23CB
:10025000A544069262461A40039263466A461371A9
:10026000137902279A46030006250026072440F248
:10027000FF09059180330190072C00D1BAE1022CCF
:1002800000DDF4E10021DA795218DA71013E013D16
:10029000013B013F013CEFD2019B9B46069B002B9B
:1002A00040D086235A46D25C853B1340594687226C
:1002B00003263F258A5C0698D2085B01059C9B18A3
:1002C0001B1A21789E431D40F30099400B00AA1091
:1002D00092005A44116A0B4313620200631C059397
:1002E000D34301386C1C5D1BC8B15E46AC46059912
:1002F000402C20D06246032512180F782A40D200E5
:1003000097403A00A3109B00F3181D6A01382A4356
:100310001A62013101340028EAD1B3460591402C1C
:1003200000D161E140F244239D443CBC9046994693
:10033000A246AB46F0BDB3460591069046F6D801FD
:1003400046F23F7340F20012C0F20001C0F2000317
:1003500010A8984700225B461E6A1A625B6A509694
:1003600051935B465A629B6A594652935B469A6226
:10037000DB6A102753935B46DA621B6B40F2070877
:1003800054935B461A635B6B40F2120C55935B46C9
:100390005A639B6B40F2110A56935B469A63DB6B80
:1003A00051AD57935B46DA631B6C58935B461A64F6
:1003B0005B6C59935B465A649B6C5A935B469A6498
:1003C000DB6C01975B935B46DA641B6D5C935B4669
:1003D0001A655B6D5D935B469C6D5A659A65DB6D36
:1003E0005E945F93CA652A68404611006746C14122
:1003F0001000F841574641402000F841132781463C
:100400002000F8414F46A40A78404440286AA419C5
:1004100081466E68D00841404C4464184046310023
:100420006746C1413000F841574641401800F84145
:10043000132781461800F8414F469B0A78404340F5
:10044000686AEC6381464B449B18F2085140019A5C
:100450005B1802322B64019208353E2AC3D180AB6F
:1004600099465B4640F2070840F2120C112713260A
:100470007EAD01936A68414613001400CB4161468A
:10048000CC41A96B5C4008000B00F041FB41584097
:100490002B68D2089B466B6A62409A46D3445B46FF
:1004A0009A188B0A4340D3182B640435A945E1D12F
:1004B000019B9B461B6E1E0007935B465B6E1A00FA
:1004C00008935B469B6E190009935B46DB6E180030
:1004D0000A935B461B6F1D000B935B465B6F1C0012
:1004E0000C935B469B6FA2461F000D935B46DB6F30
:1004F00004000E939C465B46B9460F9300271000FC
:10050000A0460B0005E0D1460300AA4630000D00CE
:1005100016000D2234000221D4413200CA412900C4
:1005200054400B220194D14106242A00E24151405B
:1005300010AAD2590291039250AAD25913340492AC
:100540000499039A8B462900E141029C5A44614078
:100550005218514629408B4649465C46A9436140A2
:10056000521819001C0041400440314061408B4644
:1005700034001621CC412100019C62444C4041468C
:100580005C445118121940F2001404379846CC46C6
:10059000A742B8D10C0019000F9B80469B46079BD1
:1005A00010009C465B4660441866089B5A469C4671
:1005B0005B4666445E66099B434493660A9B5B18F0
:1005C000D3660B9B9C460C9B64449C460D9B6544E8
:1005D000534493670E9B14674B44D367069B556740
:1005E000002B00D05DE69DE600230693A6E6C046FC
:1005F000BCFDFFFF6046DA79039902905118FF298C
:1006000033DD019A521980321178481C1070FF298D
:1006100027D1022C25D45A79511C5971FF2A20D197
:10062000032C1ED41A79511C1971FF2A19D1042CDC
:1006300017D4DA78511CD970FF2A12D17A1C10D045
:100640009A78511C9970FF2A0BD1062C09D45A783C
:10065000511C5970FF2A04D1721C02D01A78511C07
:1006600019706946DA79097A0EE651460CE6E2001D
:10067000524206993532D140484608408346DA79DD
:10068000029193445846FF2801DD681CB9D1C9B2D4
:10069000FAE5C04646F2757370B592B0C0F2000339
:1006A00004000E0015000021482268469847802368
:1006B0006A461370002D30D140F23D26C0F200068C
:1006C0008623E55C853B2B4087220225EB1AA55C3F
:1006D0005B01ED085D1B082D00DC40352800210082
:1006E00046F23F730838C0F20003082280316844A4
:1006F000984720002A006946B047002303200100E4
:100700009A101832920099431259C900CA40E25413
:100710000133202BF3D112B070BD310040F23D26E1
:100720002A002000C0F20006B047C9E70000000020
:1007300070B50824E31ADB0001330400002003A590
:100740005B1920C940CAAD1920C4184720C940CA46
:10075000754120C420C940CA754120C420C940CA7F
:10076000754120C420C940CA754120C420C940CA6F
:10077000754120C420C940CA754120C420C940CA5F
:10078000754120C4404170BD000000000000000021
:1007900070B50824E31ADB000133002403A5C0462A
:1007A0005B1920C940CAAD1B20C0184720C940CAE8
:1007B000B54120C020C940CAB54120C020C940CAA7
:1007C000B54120C020C940CAB54120C020C940CA97
:1007D000B54120C020C940CAB54120C020C940CA87
:1007E000B54120C064416042604170BDF0B5DE4655
:1007F00057464E464546E0B5013B9B0098465B0098
:100800009946002300240025002601B4002702E0B9
:10081000370040463F1A9A46A346AC46B646F01B00
:100820001458C859030C80B2250CA4B21E006E43A4
:100830006343454360431C041B0C00195E412C04B8
:100840002D0C00196E4153465C4665461B187441D9
:100850000020454176460437474501DCB742DADDE2
:100860000098835123462C46002504364645CDDDAD
:100870004E45CDDD835101BC3CBC90469946A24615
:10088000AB46F0BD70B551B146F6410604004518BF
:10089000C0F20006B04720700134AC42FAD101200A
:1008A00070BDC046F0B557464E464546DE46E0B5FB
:1008B000551EEDB28DB06BB2070002919146002B30
:1008C00005DA08E0013B5BB25A1C00D179E09A00DE
:1008D0005258002AF6D001335BB200217BB13A4A6C
:1008E00002999A1892005258002122B152080131FF
:1008F000002AFBD189B2013B5B01C91809B240F261
:10090000000AC2F2000A53461A68B2B34B469B0073
:100910009B46043B98464B465B01591A012309B29A
:100920005B42CB40019340F291730135AD007C19DD
:10093000C0F2000359463800B8444026039300949F
:100940009047D0B14246019B126849461340424647
:1009500013603B000022002906DD009C02CB0A4305
:100960009C42FBD1009482B9013E36B153465946B0
:100970001A68380090470028E4D100200DB03CBC34
:1009800090469946A246AB46F0BD3A004B46039CC2
:10099000029904A8A0470023421E90410022009C17
:1009A00004A98958043200910B43AA42F8D15A1E77
:1009B000934140001B1ADBB20094012BD4D10120DB
:1009C000DCE700219BE7C046FFFFFF3FF0B545464F
:1009D0008846DE464E465746190014004246E0B5AA
:1009E000ABB002931AAB08930B0009926A46013B25
:1009F00013709B46137889011370994613780790FA
:100A00005BB289B2002B05DA08E0013B5BB25A1CED
:100A100000D192E19A001259002AF6D001335BB25C
:100A200000207BB1D44A9A1892001259002A00D1B2
:100A30009FE152080130002AFBD180B2013B5B01EB
:100A4000C01880B2091A0BB21F2518002A0084466C
:100A50000193DB171A40DB0E6244C11852110D409E
:100A6000ED1A56B22DB2002E0BDD46F27573013A27
:100A7000D2B201320AAF920000213800C0F2000366
:100A80009847002D00DC5AE1029B002B00D16AE15F
:100A90002168B2000800A84020230AAFB8500A001D
:100AA00002995B1BDA40012900D8A9E06168701C3B
:100AB000A94080001143395062680299DA40022946
:100AC00000D19DE0A168B01CA940800011433950BD
:100AD000A2680299DA40032900D191E0E168F01C94
:100AE000A940800011433950E2680299DA40042994
:100AF00000D185E02169301DA940800011433950A3
:100B000022690299DA4005297AD06169701DA940ED
:100B100080001143395062690299DA4006296FD08A
:100B2000A169B01DA940800011433950A269029902
:100B3000DA40072964D0E169F01DA9408000114323
:100B40003950E2690299DA40082959D0216A300007
:100B5000A9400830114380003950226A0299DA40D6
:100B600009294DD0616A3000A94009301143800045
:100B70003950626A0299DA400A2941D0A16A3000EC
:100B8000A9400A30114380003950A26A0299DA4024
:100B90000B2935D0E16A3000A9400B3011438000A9
:100BA0003950E26A0299DA400C2929D0216B3000D1
:100BB000A9400C30114380003950226B0299DA4071
:100BC0000D291DD0616B3000A9400D30114380000C
:100BD0003950626B0299DA400E2911D0A16B3000B6
:100BE000A9400E30114380003950A26B0299DA40BF
:100BF0000F2905D0E36B0F36AB40B6001343BB5152
:100C0000019B002B00DA80E0029840F2010C830087
:100C10001A000693F918C300FC18043BFB1805934F
:100C20005B4640009B0080469B46043ABA180394FA
:100C300004924346002B00DC7DE0634608AA9B003B
:100C4000D558624601239B1A9B0008AAD35800245A
:100C50009946002348461E00894643460022B8466E
:100C6000290000904046A5009200825848598246CB
:100C7000821A921B9245804157464042974200D0CB
:100C800006000098013464B2425122009C42E9DB24
:100C900047464946984633006246D31A584258415F
:100CA000C3B29C46002304981C00B94201D808E056
:100CB00018000268530823430360D407031FB84297
:100CC000F6D85A46069BBA58FB5805980093DB079E
:100CD00013435A46BB500023039A1C00914201D390
:100CE00008E018000268530823430360D407031F79
:100CF0008842F6D8019B013B1BB20193002B98DA86
:100D000063469C0008AB1B599846029B002B0BDDE9
:100D10000022002340460799029C855801335BB2AC
:100D20008D5004329C42F8DC2BB03CBC9046994676
:100D3000A246AB46F0BD0023AEE7002082E6029B50
:100D4000002B10DD4A4646F23F730AAFB000013275
:100D5000C0F200033818920021009847019B002B35
:100D600000DB51E7D4E7019B0AAF002B00DB4BE728
:100D7000DAE7002062E6C046FFFFFF3FF0B55746C6
:100D800045464E46DE460024E0B540F29178160016
:100D90009BB0249D1F002C572B1D82460091019370
:100DA00002002300310002A8C0F20008C04740B191
:100DB00040F2317902A923002A1D0800C0F200097F
:100DC000C847002340F2ED7940F2B00B02AA1100AF
:100DD000C0F20009EB560AA8C8475B460AA902A858
:100DE000EB589847002302AAEB5651460AA8C84779
:100DF0005B460AA95046EB589847002302AAEB56D7
:100E000031000AA8C8475B460AA9EB58300098474A
:100E10002300009A39003800C04740B140F2317BCE
:100E200023002A1D39003800C0F2000BD8470023E8
:100E30003A00EB5639000AA8C847B0230AA9EB5874
:100E400002A8984702A9230052460800C04740B1B3
:100E500040F2317B02A923002A1D0800C0F2000BDA
:100E6000D84702A9230032000800C04740B140F231
:100E7000317B02A923002A1D0800C0F2000BD847CD
:100E80002300524631003000C04740B140F2317B70
:100E900023002A1D31003000C0F2000BD847002388
:100EA00000993200EB560AA88B46C847B0230AA91E
:100EB000EB5858469847230002AA51463000C047D5
:100EC00040B140F2317A23002A1D31003000C0F2D7
:100ED000000AD04700233200EB5639000AA8C84761
:100EE000B0230AA9EB58380098472300009A39002C
:100EF0003800C04740B140F231752300019A3900F3
:100F00003800C0F20005A847002C0ADD46F23F7306
:100F1000013CE2B20132920002A93000C0F20003AB
:100F200098471BB03CBC90469946A246AB46F0BDE4
:100F3000F0B5574640F2000A0B68DE4603604B6886
:100F40004E4643608B6845468360CB6840F2090B90
:100F5000C3600B69E0B503614B698BB043618B697A
:100F6000894683615346059304930393CB6903AE8B
:100F700006930B6A5F4607934B6A050008938B6ADA
:100F800009930300002105A4C046C046C046C046E0
:100F90003F1910CD04CEA41810C3384710CD04CE8D
:100FA000544110C310CD04CE544110C310CD04CE13
:100FB000544110C310CD04CE544110C310CD04CE03
:100FC000544110C310CD04CE544110C310CD04CEF3
:100FD000544110C349414B46DB6A009106934B468E
:100FE0001B6B03AE07934B465B6B5F460893534600
:100FF000050009930300002404A2C046C046C04671
:10100000BF1804CD02CE521804C3384704CD02CE17
:101010004A4104C304CD02CE4A4104C304CD02CEEA
:101020004A4104C304CD02CE4A4104C304CD02CEDA
:101030004A4104C304CD02CE4A4104C304CD02CECA
:101040004A4104C364414B46DB69A44603934B46C3
:101050001B6A03AE04934B465B6A5F4605934B469F
:101060009B6A040006934B46DB6A07934B461B6B57
:1010700008934B465B6B09930300002503A2C0460F
:10108000BF1804CC02CE521A04C3384704CC02CE97
:101090008A4104C304CC02CE8A4104C304CC02CEEC
:1010A0008A4104C304CC02CE8A4104C304CC02CEDC
:1010B0008A4104C304CC02CE8A4104C304CC02CECC
:1010C0008A4104C36D414B46DB6AA84603934B46F5
:1010D0001B6B020004934B465B6B594601930593CF
:1010E00053460400099308930793069303AB002526
:1010F00006A7C046C046C046C046C046C046C04619
:10110000C91980CC40CBBF1B80C2084780CC40CBE4
:10111000B74180C280CC40CBB74180C280CC40CBAD
:10112000B74180C280CC40CBB74180C280CC40CB9D
:10113000B74180C280CC40CBB74180C280CC40CB8D
:10114000B74180C26D41009B46F6D81663441C002F
:1011500043465A425341E41A6B426B41E31A9C46A0
:10116000C0F20006002B00DA4FE0331D984640F233
:1011700009093DE04369013340D1036901333DD1A1
:10118000C36801333AD1836823B9436813B903684C
:10119000002B33D00300424649460600002503A732
:1011A000C91980CE10CA3F1B80C3084780CE10CA21
:1011B000A74180C380CE10CAA74180C380CE10CA89
:1011C000A74180C380CE10CAA74180C380CE10CA79
:1011D000A74180C380CE10CAA74180C380CE10CA69
:1011E000A74180C36D4162466B426B41D31A9C4656
:1011F0006346002BCED183690133BBD00BB03CBC1E
:1012000090469946A246AB46F0BD331D984640F243
:1012100009090300424649460400002503A6C046CA
:10122000891940CC80CAF61940C3084740CC80CA0F
:101230007E4140C340CC80CA7E4140C340CC80CA7E
:101240007E4140C340CC80CA7E4140C340CC80CA6E
:101250007E4140C340CC80CA7E4140C340CC80CA5E
:101260007E4140C36D4163465B199C46D1D4C5E7BE
:10127000F0B5DE4657464E464546994640F2ED7873
:10128000E0B59BB083468A460AA84946C0F20008EA
:10129000140007234A46C04740F631730AA9C0F23A
:1012A000000303A81D0001939847249A0723494689
:1012B0000AA8C0470AA95046A8475B4603AA259931
:1012C0000920002705A6C046C046C046C046C04605
:1012D000801940CA20C9761940C3004740CA20C9B6
:1012E0006E4140C340CA20C96E4140C340CA20C9B4
:1012F0006E4140C340CA20C96E4140C340CA20C9A4
:101300006E4140C340CA20C96E4140C340CA20C993
:101310006E4140C37F41CFB95B469B69013342D1E7
:101320005B465B6901333ED15B461B6901333AD1B1
:101330005B46DB68013336D15B469B6833B95B465D
:101340005B681BB95B461B68002B2CD046F6D81394
:10135000C0F200030433584609225946002603A56B
:10136000521920C980CBED1B20C0104720C980CB6B
:10137000BD4120C020C980CBBD4120C020C980CB49
:10138000BD4120C020C980CBBD4120C020C980CB39
:10139000BD4120C020C980CBBD4120C020C980CB29
:1013A000BD4120C076415346092250465646002191
:1013B00006A5C046C046C046C046C046C046C04658
:1013C000521920C880CEED1920C3104720C880CE06
:1013D0007D4120C320C880CE7D4120C320C880CE5F
:1013E0007D4120C320C880CE7D4120C320C880CE4F
:1013F0007D4120C320C880CE7D4120C320C880CE3F
:101400007D4120C34941C9B953469B69013342D14B
:1014100053465B6901333ED153461B6901333AD1D0
:101420005346DB68013336D153469B6833B9534684
:101430005B681BB953461B68002B2CD046F6D813AB
:10144000C0F200030433514609225046002503A68A
:10145000921940C880CBF61B40C1104740C880CBD2
:10146000BE4140C140C880CBBE4140C140C880CBD6
:10147000BE4140C140C880CBBE4140C140C880CBC6
:10148000BE4140C140C880CBBE4140C140C880CBB6
:10149000BE4140C16D41259A03A90AA80723C04750
:1014A0002000019B0AA9984725002300092220005B
:1014B000002106A6C046C046C046C046C046C0463B
:1014C000921940C880CDF61940C3104740C880CD5E
:1014D0007E4140C340C880CD7E4140C340C880CDDE
:1014E0007E4140C340C880CD7E4140C340C880CDCE
:1014F0007E4140C340C880CD7E4140C340C880CDBE
:101500007E4140C3494191B9A369013343D1636925
:10151000013340D1236901333DD1E36801333AD12E
:10152000A36823B9636813B92368002B33D046F648
:10153000D812C0F200020432230009212000002545
:1015400006A6C046C046C046C046C046C046C046C5
:10155000891940C880CAF61B40C3084740C880CAE2
:10156000BE4140C340C880CABE4140C340C880CAD3
:10157000BE4140C340C880CABE4140C340C880CAC3
:10158000BE4140C340C880CABE4140C340C880CAB3
:10159000BE4140C36D4123000922200025000021E7
:1015A00006A6C046C046C046C046C046C046C04665
:1015B000921940C880CDF61940C3104740C880CD6D
:1015C0007E4140C340C880CD7E4140C340C880CDED
:1015D0007E4140C340C880CD7E4140C340C880CDDD
:1015E0007E4140C340C880CD7E4140C340C880CDCD
:1015F0007E4140C3494191B9A36901333BD163693D
:10160000013338D12369013335D1E368013332D155
:10161000A36823B9636813B92368002B2BD046F65F
:10162000D813C0F20003043309222100002003A5CF
:10163000521920C940CBAD1B20C4104720C940CB54
:10164000B54120C420C940CBB54120C420C940CBFE
:10165000B54120C420C940CBB54120C420C940CBEE
:10166000B54120C420C940CBB54120C420C940CBDE
:10167000B54120C440411BB03CBC90469946A246AF
:10168000AB46F0BDF0B5DE4657464E46454646F2FF
:101690007574E0B50127A7B00E00C0F200040390F6
:1016A0002022002106A80EADA047202200212800FC
:1016B0000697A04700230E97F35640F231741F009F
:1016C00006AA1000311DC0F200040493A0477A1E40
:1016D000D3B205935BB2002B05DA0CE0013B5BB2A1
:1016E0005A1C00D19BE026A98C469A006244803A9D
:1016F0001268002AF2D001335BB2002B00D18EE0D9
:1017000026A98C46504A00249A1892006244803AD6
:10171000126822B152080134002AFBD1A4B25B0145
:10172000213BE41824B2012C00DC78E0019605E0AE
:10173000013FBFB23CB2012F00D170E0019A16AE5A
:101740001378013B9B0098465B00994600230022DA
:101750000021002040B4002702E007004646BF1BDE
:101760009A4693468C468646C61BAA59EE59330CB8
:10177000B6B2110C92B2180048435343714356431A
:101780001A041B0CB61858410A04090CB618484133
:1017900053465A4661469B194241002671417046A4
:1017A0000437474501DC8742DADD009E335013469B
:1017B0000A46002104304045CDDD4845CDDD33509B
:1017C00040BCB023019A3100D358280002939847B7
:1017D00026AB9C461F230122A7B23B409A40130030
:1017E0006411A4006444803C22681A4200D19FE73F
:1017F000002340F2ED74019E039AF356290016A8C7
:10180000C0F20004A047B023013FF35816A92800F6
:10181000BFB202933CB29847012F00D08EE7049BE1
:10182000002B09DD46F23F73059A29000132920030
:101830000398C0F20003984727B03CBC90469946F5
:10184000A246AB46F0BDC046FFFFFF3FF0B557468E
:1018500045464E46DE46E0B58A46984602215B5E26
:101860001F24190099461F31CB171C4064186311BF
:1018700083B001934B4607270733D9170F40FF1852
:101880000500FF10974200D917006B461B795BB229
:101890009B46002B0BDD019B00215A1E46F27573FF
:1018A000D2B2013292002800C0F20003984703230D
:1018B000FA1CD1170B409B189B105AB2002A0ADD64
:1018C000013BDAB246F27573013292000021280022
:1018D000C0F2000398477B1E51460324002F0DDD04
:1018E00026001A0008781E40F600B040A243AA184D
:1018F0001668013130431060013BF1D2FF004F45C3
:1019000030D94B46FF1A019B9A00AA18131F954223
:1019100015D22021C91B8946591B0331890889002A
:10192000521A083A160000201968043B0A00FA40CF
:1019300002435A604A4691400800B342F4D14246FD
:10194000019C2432013C61B2002906DA11E0984280
:101950000FD3013949B24B1C0BD08B00D058EB5838
:101960009842F4D903B03CBC90469946A246AB4697
:10197000F0BD40F291745B4629002800C0F20004DB
:10198000A047EFE70000000000000000000000009A
:10199000F0B5C646082400B5984606AB1B7806008D
:1019A0005BB2E41AE4009C4601341500002203A750
:1019B000E41980C908CDFF1A80C6204780C908CD28
:1019C0009F4180C680C908CD9F4180C680C908CD8F
:1019D0009F4180C680C908CD9F4180C680C908CD7F
:1019E0009F4180C680C908CD9F4180C680C908CD6F
:1019F0009F4180C652413AB940F231746346424633
:101A00000100C0F20004A04704BC9046F0BDC046EF
:101A1000F0B5C646082400B59C4606AB1B78050009
:101A20005BB2E41AE40098460134002703A3C046E1
:101A3000E41808C940CA9B1908C5204708C940CA0C
:101A4000734108C508C940CA734108C508C940CADE
:101A5000734108C508C940CA734108C508C940CACE
:101A6000734108C508C940CA734108C508C940CABE
:101A7000734108C57F41BFB94346591E49B2002989
:101A800012DB63468A009C588258944214D807D2CD
:101A90000AE063468C001D590459A5420CD803D3B3
:101AA000013949B24A1CF4D140F29174434662466E
:101AB0000100C0F20004A04704BC9046F0BDC0463F
:101AC000F0B5DE4657464E4645460023894646F267
:101AD0003F7BE0B593B00E930F93109311931433A3
:101AE0004B4419008046142209A8C0F2000B9A4604
:101AF000D8470D9B19205A080D920C9ADB07510804
:101B00000B430C930B9BD20759080A430B920A9A7A
:101B1000DB0751080B430A93099BD2075B08134369
:101B200009934B465B6908AADB07089351461400EA
:101B3000002306A5C046C046C046C046C046C046B3
:101B4000401920CC40C9AD1920C2004720CC40C963
:101B5000754120C220CC40C9754120C220CC40C96B
:101B6000754120C220CC40C9754120C220CC40C95B
:101B7000754120C220CC40C9754120C220CC40C94B
:101B8000754120C25B4108A95BB100274E691C006A
:101B9000002532003B0012196B4104310A61002B11
:101BA000F3D14246494608AB1920002403A5C0469C
:101BB000401920C940CBAD1920C2004720C940CBF5
:101BC000754120C220C940CB754120C220C940CBFD
:101BD000754120C220C940CB754120C220C940CBED
:101BE000754120C220C940CB754120C220C940CBDD
:101BF000754120C2644146F2757314220021C0F27F
:101C00000003484698474B461D1D14220DA9280085
:101C1000D847494600231831524618008D4201D357
:101C200008E01A0011684B0803431360C807131F2C
:101C30009542F6D34A460D9B0DA9DB071360192088
:101C40004D46002305A6C046C046C046C046C04615
:101C5000801940CD80C9F61940C2004740CD80C9E7
:101C60007E4140C240CD80C97E4140C240CD80C946
:101C70007E4140C240CD80C97E4140C240CD80C936
:101C80007E4140C240CD80C97E4140C240CD80C926
:101C90007E4140C25B4155461E005BB100232A686D
:101CA0003000002116001F0036184F4140C53E008D
:101CB000002FF3D143464A4619214546002003A68A
:101CC000891940CD80CAF61940C3084740CD80CA63
:101CD0007E4140C340CD80CA7E4140C340CD80CAD2
:101CE0007E4140C340CD80CA7E4140C340CD80CAC2
:101CF0007E4140C340CD80CA7E4140C340CD80CAB2
:101D00007E4140C340412418002C37D046F658206D
:101D100040F2380940F2190AC446C0F2000081447A
:101D2000013C63464A4651466746002003A5C0462B
:101D3000491920CF40CAAD1B20C3084720CF40CA55
:101D4000B54120C320CF40CAB54120C320CF40CAEF
:101D5000B54120C320CF40CAB54120C320CF40CADF
:101D6000B54120C320CF40CAB54120C320CF40CACF
:101D7000B54120C34041002CD2D1E04643461B6907
:101D8000013340D14346DB6801333CD143469B6875
:101D9000013338D143465B68013334D143461B6875
:101DA000002B30DA46F65822C0F2000238324346A1
:101DB00019214046002405A5C046C046C046C0467D
:101DC000491920C840CAAD1B20C3084720C840CAD3
:101DD000B54120C320C840CAB54120C320C840CA6D
:101DE000B54120C320C840CAB54120C320C840CA5D
:101DF000B54120C320C840CAB54120C320C840CA4D
:101E0000B54120C3644113B03CBC90469946A246FC
:101E1000AB46F0BD00000000000000000000000024
:101E2000F0B5DE46454657464E4646F27573E0B578
:101E30009DB0040090468A4620220021C0F2000393
:101E400004A8984703230493434640F2ED791B7896
:101E500052465BB251460CA8C0F200091D00029325
:101E6000C8474246B0230CA9D358200098474346A0
:101E70001A1D2B0040F291750192C0F2000504AAD0
:101E8000210020000395A84740B140F2317B029B1E
:101E9000019A21002000C0F2000BD84743461B786E
:101EA000524621000CA85BB2C8474246B0230CA999
:101EB000D358200098470823029A21009B1A4246D3
:101EC000DB00013384322700002004A6C046C04650
:101ED0009B1940CF20CA761940C1184740CF20CA6D
:101EE0006E4140C140CF20CA6E4140C140CF20CAA0
:101EF0006E4140C140CF20CA6E4140C140CF20CA90
:101F00006E4140C140CF20CA6E4140C140CF20CA7F
:101F10006E4140C14041C0B9029B013B5BB2002B06
:101F200006DA12E0914210D3013B5BB25A1C0CD08E
:101F300001999A008958A2589142F3D91DB03CBC2E
:101F400090469946A246AB46F0BD2100029B019AFD
:101F50002000039CA047F1E7000000000000000003
:101F6000F0B5CE464746002340F2ED7640F2B00889
:101F700080B591B081461500D35668460A00C0F27C
:101F800000060F00B047434669464846EB5898475D
:101F900000233A00EB5649466846B0474346484658
:101FA000EB58694698472A002B1D9C4684324B46C5
:101FB00001204F46002605A1C046C046C046C04687
:101FC000401802CF10CA091902C3004702CF10CA35
:101FD000614102C302CF10CA614102C302CF10CADD
:101FE000614102C302CF10CA614102C302CF10CACD
:101FF000614102C302CF10CA614102C302CF10CABD
:10200000614102C3764186BB4A462B6AD2699A4235
:1020100000D258E029D84B46EA699B699A4200D918
:1020200051E022D34B46AA695B699A424BD81CD334
:102030004B466A691B699A4245D816D34B462A69B2
:10204000DB689A423FD810D34B46EA689B689A42B5
:1020500039D80AD34B46AA685B689A4233D804D36E
:102060004A466B68126893422DD84846634601225F
:102070004946002405A5C046C046C046C046C046E5
:10208000521920C940CBAD1B20C0104720C940CBFE
:10209000B54120C020C940CBB54120C020C940CBAC
:1020A000B54120C020C940CBB54120C020C940CB9C
:1020B000B54120C020C940CBB54120C020C940CB8C
:1020C000B54120C0644111B00CBC90469946F0BDAA
:1020D000F0B5DE46574645464E460B68E0B5036010
:1020E0004B68040043608B6840F2110A8360CB6840
:1020F00087B0C3600B69884603614B69182243614E
:1021000046F23F7318316846C0F200039847250035
:1021100023006A465046002604A1C046C046C04679
:10212000401802CD80CAC91902C3004702CD80CA37
:10213000794102C302CD80CA794102C302CD80CA6F
:10214000794102C302CD80CA794102C302CD80CA5F
:10215000794102C302CD80CA794102C302CD80CA4F
:10216000794102C3764140F200094B460193009346
:1021700043469B69B34602934346DB696A46039331
:1021800043461B6A5046049343465B6A2700059307
:102190002300002105A5C046C046C046C046C04633
:1021A000401920CF40CAAD1920C3004720CF40CAF4
:1021B000754120C320CF40CA754120C320CF40CAFB
:1021C000754120C320CF40CA754120C320CF40CAEB
:1021D000754120C320CF40CA754120C320CF40CADB
:1021E000754120C3494143469B6A8C460293009344
:1021F0004346DB6A2200039301934B465146059305
:10220000049325006B46002004A6C046C046C04685
:10221000891940CD80CBF61940C2084740CD80CB0C
:102220007E4140C240CD80CB7E4140C240CD80CB7C
:102230007E4140C240CD80CB7E4140C240CD80CB6C
:102240007E4140C240CD80CB7E4140C240CD80CB5C
:102250007E4140C240415D4646F6D8266544AC46C4
:1022600040F26C08C0F200068444B04440F2110908
:102270003EE02369013341D1E36801333ED1A368D5
:10228000DA1C3BD9013305D06368013336D12368AA
:10229000013333D12300424649462600002003A7DC
:1022A000C91980CE20CA7F1B80C3084780CE20CAB0
:1022B000AF4180C380CE20CAAF4180C380CE20CA48
:1022C000AF4180C380CE20CAAF4180C380CE20CA38
:1022D000AF4180C380CE20CAAF4180C380CE20CA28
:1022E000AF4180C34041624643424341D31A9C46BA
:1022F0006346002BCED163690133BAD007B03CBC32
:1023000090469946A246AB46F0BDC046000000008C
:10231000F0B5DE4657464E4645460023E0B593B03D
:102320000B930C930D930E930F931093119346F20E
:102330006163C0F200030C001D00834640F2D132FD
:10234000086A00230021A8470F00029040F2D13212
:102350000023606A0021A8473A00002380185941F1
:102360000023A9461E000D00039040F2D132002345
:10237000A06A0021C8472A00330080185941002371
:102380000D001E00049040F2D1320023E06A0021CB
:10239000C8472A0033008018594100230D001E0051
:1023A000059040F2D1320023206B0021C8472A005B
:1023B00033008018594100230D001E00069040F2A2
:1023C000D1320023606B0021C8472A0033008018F7
:1023D000594100230D001E00079040F2D132002326
:1023E000A06B0021C8472A00330080185941002300
:1023F0000D001E00089040F2D1320023E06B002156
:10240000C8472A00330040F20108801859412200D1
:1024100003AB0A910990203241461D00002003A71A
:10242000C91980CD40CABF1980C3084780CD40CAB2
:10243000774180C380CD40CA774180C380CD40CAF8
:10244000774180C380CD40CA774180C380CD40CAE8
:10245000774180C380CD40CA774180C380CD40CAD8
:10246000774180C340410B905B46220002A9404661
:10247000002506A7C046C046C046C046C046C04666
:10248000C01980CA40C9BF1980C3004780CA40C96B
:10249000774180C380CA40C9774180C380CA40C9A0
:1024A000774180C380CA40C9774180C380CA40C990
:1024B000774180C380CA40C9774180C380CA40C980
:1024C000774180C36D4146F27573202200212000C0
:1024D000C0F20003984740F2D13200230A9800214D
:1024E000C84723004F46894601C3019340F2D132C9
:1024F00000230B980021B8474A4600238018594111
:102500000023AA461E000D00606040F2D132002375
:102510000C980021B8472A00330080185941002345
:102520000D001E00A06040F2D13200230D98002162
:10253000B8472A0033008018594100230D001E00BF
:10254000E06040F2D13200230E980021B8472A0003
:1025500033008018594100230D001E00206140F215
:10256000D13200230F980021B8472A003300801889
:10257000594100230D001E00606140F2D13200235A
:1025800010980021B8472A003300801859410023D1
:102590000D001E00A06140F2D132002311980021ED
:1025A000B8472A00330080185941019FE061216239
:1025B0000AAB42463800002104A6C046C046C046C9
:1025C000921940C820CB761940C7104740C820CB8D
:1025D0006E4140C740C820CB6E4140C740C820CBA9
:1025E0006E4140C740C820CB6E4140C740C820CB99
:1025F0006E4140C740C820CB6E4140C740C820CB89
:102600006E4140C7494161625B46424659460020DF
:1026100006A6C046C046C046C046C046C046C046E4
:10262000921940C980CCF61940C3104740C980CCEC
:102630007E4140C340C980CC7E4140C340C980CC6C
:102640007E4140C340C980CC7E4140C340C980CC5C
:102650007E4140C340C980CC7E4140C340C980CC4C
:102660007E4140C340415044002836D046F6D8341D
:1026700040F2200C40F20108C0F20004A4440138EA
:102680005B46624641465F46002404A6C046C046FB
:10269000891940CF20CA761B40C3084740CF20CAC3
:1026A000AE4140C340CF20CAAE4140C340CF20CA54
:1026B000AE4140C340CF20CAAE4140C340CF20CA44
:1026C000AE4140C340CF20CAAE4140C340CF20CA34
:1026D000AE4140C364410028D1D15B46DB69013380
:1026E0001ED15B469B6901331AD15B465B6901339E
:1026F00016D15B461B69013312D15B46DB6801339F
:102700000ED15B469B6801330AD15B465B685A1C5D
:102710000DD0023304D15A461F4B12689A4206D894
:1027200013B03CBC90469946A246AB46F0BD46F677
:10273000D833C0F2000320335D4601225946002001
:1027400006A4C046C046C046C046C046C046C046B5
:10275000121910C940CBA41B10C5104710C940CB9B
:10276000B44110C510C940CBB44110C510C940CB0D
:10277000B44110C510C940CBB44110C510C940CBFD
:10278000B44110C510C940CBB44110C510C940CBED
:10279000B44110C54041C3E72FFCFFFF000000001B
:1027A000F0B557464E464546DE460024914640F277
:1027B0009178E0B5AFB09A46389B03901C570293CE
:1027C00004330491019302002300494606A8C0F295
:1027D0000008C04740B140F2317606A92300019AB3
:1027E0000800C0F20006B04740F2ED7BB026029F21
:1027F00006AA3B781100C0F2000B1EA85BB2D847B6
:102800001EA906A8BB599847039D3B7806AA290034
:102810001EA85BB2D8471EA92800BB5998473B7831
:1028200006AA49461EA85BB2D847BB591EA948460E
:10283000984708231B1BDB00013318000593524601
:1028400006AB0499002605A5C046C046C046C04652
:10285000401920CA80C9ED1920C3004720CA80C989
:102860007D4120C320CA80C97D4120C320CA80C9C0
:102870007D4120C320CA80C97D4120C320CA80C9B0
:102880007D4120C320CA80C97D4120C320CA80C9A0
:102890007D4120C37641E6B9631E5BB2002B18DB95
:1028A00001999A0006A8895882588A4216D310D8EE
:1028B000019D029F07E09A0006A8A95882589142FC
:1028C00000D92DE103D3013B5BB25A1CF3D1019532
:1028D000029706A92300019A0800C0472300049A22
:1028E00051465046C04740B140F231762300019A2C
:1028F00051465046C0F20006B0470EAB1800009398
:10290000039A23004946C04740B140F23175009810
:102910002300019A0100C0F20005A8470023009E91
:10292000029F049D3200FB5629001EA8D847B02301
:102930001EA9FB5828009847009632000399484684
:10294000059B002505A7C046C046C046C046C046F8
:10295000DB1980C940C8BF1980C2184780C940C868
:10296000774180C280C940C8774180C280C940C8D1
:10297000774180C280C940C8774180C280C940C8C1
:10298000774180C280C940C8774180C280C940C8B1
:10299000774180C26D41E5B9631E5BB2002B18DB45
:1029A000019900989A0089588258914216D810D3FC
:1029B000019D029F07E000989A00A9588258914211
:1029C00000D9AAE003D3013B5BB25A1CF3D10195B5
:1029D000029700982300019A0100C0470023029D3E
:1029E0005246EB5651461EA8D847B0231EA9EB58B5
:1029F000484698472300009A49464846C04740B198
:102A000040F231752300019A49464846C0F200055C
:102A1000A84723004A46039916A8C04740B140F290
:102A2000317916A92300019A0800C0F20009C847AD
:102A30000023029D16AAEB5651461EA8D847B02384
:102A40001EA9EB58504698472300049A5146504619
:102A5000C04740B140F231792300019A51465046B7
:102A6000C0F20009C8470023029D06AA1100EB56D8
:102A70001EA8D847B0231EA9EB5816A8984716A938
:102A80002300009A0800C04740B140F2317916A9EE
:102A90002300019A0800C0F20009C8472300039AE6
:102AA00016A90098C04740B140F231790098230040
:102AB000019A0100C0F20009C8470023009D029E50
:102AC00006AAF35629001EA8D847B0231EA9F3581A
:102AD000280098470498230002002900C04740B10D
:102AE00040F2317504982300019A0100C0F20005FC
:102AF000A847002C0ADD46F23F73013CE2B20132E6
:102B0000920016A90398C0F2000398472FB03CBC6E
:102B100090469946A246AB46F0BD019502975DE707
:102B200001950297DAE6C0460000000000000000B0
:102B3000F0B557464E464546DE4640F200090B6862
:102B4000E0B503604B6891B043608B6808AC83606C
:102B5000CB688246C3600B69012503614B6926007F
:102B600043618B6927008361CB69C3614B460A933C
:102B700009930893CB6A0B930B6B0C934B6B0D93E0
:102B80008B6B0E93CB6B0F93002304A2C046C04601
:102B9000AD1804CE01CF121804C4284704CE01CFCB
:102BA000424104C404CE01CF424104C404CE01CF4B
:102BB000424104C404CE01CF424104C404CE01CF3B
:102BC000424104C404CE01CF424104C404CE01CF2B
:102BD000424104C45B4101260193544608AD53466B
:102BE000002706A2C046C046C046C046C046C046F2
:102BF000B61804CB01CD121804C4304704CB01CD64
:102C0000424104C404CB01CD424104C404CB01CDF4
:102C1000424104C404CB01CD424104C404CB01CDE4
:102C2000424104C404CB01CD424104C404CB01CDD4
:102C3000424104C47F414B460C6B0F930B944C6B89
:102C400002970C948C6B01250D94CC6B0E9408AC00
:102C500026002300002705A2C046C046C046C04645
:102C6000AD1804CE01CB121804C4284704CE01CB02
:102C7000424104C404CE01CB424104C404CE01CB82
:102C8000424104C404CE01CB424104C404CE01CB72
:102C9000424104C404CE01CB424104C404CE01CB62
:102CA000424104C47F4101260397544608AD534670
:102CB000002706A2C046C046C046C046C046C04621
:102CC000B61804CB01CD121804C4304704CB01CD93
:102CD000424104C404CB01CD424104C404CB01CD24
:102CE000424104C404CB01CD424104C404CB01CD14
:102CF000424104C404CB01CD424104C404CB01CD04
:102D0000424104C47F414B460C6A0D9308944C6ABF
:102D10000C9309948C6A0B930A948C6B04970E9411
:102D2000CC6B08AD0F94012654465346002703A2EE
:102D3000B61804CB01CD121804C4304704CB01CD22
:102D4000424104C404CB01CD424104C404CB01CDB3
:102D5000424104C404CB01CD424104C404CB01CDA3
:102D6000424104C404CB01CD424104C404CB01CD93
:102D7000424104C47F414C6A8D6B08948C6A0C9567
:102D80000994CC6ACD6B0A944C6B0D950B940E9400
:102D90000C6A05970F9408AD544601265346002748
:102DA00006A2C046C046C046C046C046C046C04651
:102DB000B61804CB01CD121804C4304704CB01CDA2
:102DC000424104C404CB01CD424104C404CB01CD33
:102DD000424104C404CB01CD424104C404CB01CD23
:102DE000424104C404CB01CD424104C404CB01CD13
:102DF000424104C47F414B46CC6A0D9308940C6B4E
:102E00000C9309944C6B0B930A940C6AB8460E947D
:102E10008C6A08AD0F94012654465346002703A23E
:102E2000B61804CB01CD121A04C4304704CB01CD2F
:102E3000824104C404CB01CD824104C404CB01CD42
:102E4000824104C404CB01CD824104C404CB01CD32
:102E5000824104C404CB01CD824104C404CB01CD22
:102E6000824104C47F414B460C6B0D9308944C6B1C
:102E70000C9309948C6BBC460A94CC6B08AD0B94F4
:102E80004C6A01260E94CC6A53460F945446002790
:102E900006A2C046C046C046C046C046C046C04660
:102EA000B61804CB01CD121A04C4304704CB01CDAF
:102EB000824104C404CB01CD824104C404CB01CDC2
:102EC000824104C404CB01CD824104C404CB01CDB2
:102ED000824104C404CB01CD824104C404CB01CDA2
:102EE000824104C47F414B464C6B0E9308948C6B1B
:102EF000BB460994CC6B08AD0A940C6A01260B946E
:102F00004C6A53460C948C6A0D940C6B0F94544687
:102F1000002706A2C046C046C046C046C046C046BE
:102F2000B61804CB01CD121A04C4304704CB01CD2E
:102F3000824104C404CB01CD824104C404CB01CD41
:102F4000824104C404CB01CD824104C404CB01CD31
:102F5000824104C404CB01CD824104C404CB01CD21
:102F6000824104C47F414B468C6B4A6B0894CC6B06
:102F70000A9309944C6A0E930B948C6A07920C94F2
:102F8000CC6A0F920D940697514608AA0133544615
:102F9000002506A6C046C046C046C046C046C0463C
:102FA0009B1940CC01CA361A40C1184740CC01CA0F
:102FB000864140C140CC01CA864140C140CC01CAD3
:102FC000864140C140CC01CA864140C140CC01CAC3
:102FD000864140C140CC01CA864140C140CC01CAB3
:102FE000864140C16D41029F019BB946039F4B44FE
:102FF000B946049F4B44B9466246059F4B44B946C7
:1030000051424A414B4443449B1A5A4651424A4119
:10301000069F9B1A7A42574146F65846DF1B6C4280
:103020006C41C0F200063C1B00D556E040F254084B
:1030300040F20109B044A446504641E08369002BA8
:1030400044D0012B0ED8436963B9036953B9C368EF
:1030500043B98368013339D14368013336D10368FA
:10306000013333D10300424649460600002503A739
:10307000C91980CE10CA3F1B80C3084780CE10CA32
:10308000A74180C380CE10CAA74180C380CE10CA9A
:10309000A74180C380CE10CAA74180C380CE10CA8A
:1030A000A74180C380CE10CAA74180C380CE10CA7A
:1030B000A74180C36D4162466B426B41D31A9C4667
:1030C0006346002BCED1C3690133B7D011B03CBCED
:1030D00090469946A246AB46F0BD40F2540C40F2F1
:1030E0000108D146B4444B46624641464E4600254F
:1030F00006A7C046C046C046C046C046C046C046F9
:10310000C91980CE01CA3F1880C3084780CE01CAC2
:10311000474180C380CE01CA474180C380CE01CAE7
:10312000474180C380CE01CA474180C380CE01CAD7
:10313000474180C380CE01CA474180C380CE01CAC7
:10314000474180C36D416419CDD4BFE70000000042
:10315000F0B5DE4657464E46454640F2ED789A4673
:10316000E0B51B78A3B08346C0F20008914612A8D0
:103170000A005BB2B0270C00C047534612A90AA848
:10318000DB59984753461B780AAA594612A85BB2E6
:10319000C047534612A902A8DB59984753461B78EB
:1031A0005A46594612A85BB2C047534612A9584620
:1031B000DB59984753461B780AAA110012A85BB244
:1031C000C047534612A90AA8DB59984753461B78B3
:1031D0004A46210012A85BB2C047534612A9DB59E8
:1031E0004846984753460433019322005B46012129
:1031F0005F46002005A6C046C046C046C046C04641
:10320000891940CB20CF761940C2084740CB20CF48
:103210006E4140C240CB20CF6E4140C240CB20CF58
:103220006E4140C240CB20CF6E4140C240CB20CF48
:103230006E4140C240CB20CF6E4140C240CB20CF38
:103240006E4140C2404180BB53461A6AE3699A42CC
:1032500000D958E029D35346DA69A3699A4200D9C4
:1032600051E022D353469A6963699A424BD81CD3E2
:1032700053465A6923699A4245D816D353461A6968
:10328000E3689A423FD810D35346DA68A3689A425B
:1032900039D80AD353469A6863689A4233D804D31C
:1032A000534622685B6893422DD82300019A01217E
:1032B0002000002505A6C046C046C046C046C04600
:1032C000891940C880CAF61B40C3084740C880CA55
:1032D000BE4140C340C880CABE4140C340C880CA46
:1032E000BE4140C340C880CABE4140C340C880CA36
:1032F000BE4140C340C880CABE4140C340C880CA26
:10330000BE4140C36D4123005A46012127000020E1
:1033100006A5C046C046C046C046C046C046C046D8
:10332000491920CF40CAAD1920C3084720CF40CA51
:10333000754120C320CF40CA754120C320CF40CA69
:10334000754120C320CF40CA754120C320CF40CA59
:10335000754120C320CF40CA754120C320CF40CA49
:10336000754120C3404180BB53461A6AE3699A42C3
:1033700000D958E029D35346DA69A3699A4200D9A3
:1033800051E022D353469A6963699A424BD81CD3C1
:1033900053465A6923699A4245D816D353461A6947
:1033A000E3689A423FD810D35346DA68A3689A423A
:1033B00039D80AD353469A6863689A4233D804D3FB
:1033C0005246236852689A422ED82300019A01215E
:1033D0002000002505A6C046C046C046C046C046DF
:1033E000891940C880CAF61B40C3084740C880CA34
:1033F000BE4140C340C880CABE4140C340C880CA25
:10340000BE4140C340C880CABE4140C340C880CA14
:10341000BE4140C340C880CABE4140C340C880CA04
:10342000BE4140C36D4123680122134200D0E1E157
:10343000E26940F218095108E161D10722001C320B
:10344000A14494423AD240F2140CA269A444500818
:103450000143A161D1074C4530D240F210096269A5
:10346000A144500801436161D107644526D240F26E
:103470000C0C2269A444500801432161D1074C453A
:103480001CD240F20809E268A14450080143E160FF
:10349000D107644512D2A26850080143A160D10748
:1034A000221D94464C4509D2626850080143616070
:1034B000D207644502D25B081343236053461B784E
:1034C0002200210012A85BB2C0475246B02340F24E
:1034D0000109D35812A9584698475F465B4602AA8D
:1034E0004946002005A5C046C046C046C046C04665
:1034F000491920CF40CAAD1B20C3084720CF40CA7E
:10350000B54120C320CF40CAB54120C320CF40CA17
:10351000B54120C320CF40CAB54120C320CF40CA07
:10352000B54120C320CF40CAB54120C320CF40CAF7
:10353000B54120C3404100282DD15B4601994A4640
:103540005846002505A6C046C046C046C046C046EF
:10355000921940C880C9F61940C3104740C880C9B5
:103560007E4140C340C880C97E4140C340C880C935
:103570007E4140C340C880C97E4140C340C880C925
:103580007E4140C340C880C97E4140C340C880C915
:103590007E4140C36D4140F201095B4602AA4946A3
:1035A0005F46002005A5C046C046C046C046C0468E
:1035B000491920CF40CAAD1B20C3084720CF40CABD
:1035C000B54120C320CF40CAB54120C320CF40CA57
:1035D000B54120C320CF40CAB54120C320CF40CA47
:1035E000B54120C320CF40CAB54120C320CF40CA37
:1035F000B54120C3404100282DD15B4601994A4680
:103600005846002505A6C046C046C046C046C0462E
:10361000921940C880C9F61940C3104740C880C9F4
:103620007E4140C340C880C97E4140C340C880C974
:103630007E4140C340C880C97E4140C340C880C964
:103640007E4140C340C880C97E4140C340C880C954
:103650007E4140C36D4140F2010C02AB5E466246C2
:103660001F00002005A5C046C046C046C046C04653
:10367000521920CF02CE6D1A20C3104720CF02CEA0
:103680008D4120C320CF02CE8D4120C320CF02CE5A
:103690008D4120C320CF02CE8D4120C320CF02CE4A
:1036A0008D4120C320CF02CE8D4120C320CF02CE3A
:1036B0008D4120C3404100282DD102AB01986246C4
:1036C0001900002605A5C046C046C046C046C046F3
:1036D000521920C980C8ED1920C3104720C980C8DD
:1036E0007D4120C320C980C87D4120C320C980C836
:1036F0007D4120C320C980C87D4120C320C980C826
:103700007D4120C320C980C87D4120C320C980C815
:103710007D4120C3764153461B7802AA210012A89E
:103720005BB2C0475246B02312A9D3582000984735
:1037300040F2010C23000AAA61462600002503A7D7
:10374000C91980CE01CA3F1A80C3084780CE01CA7A
:10375000874180C380CE01CA874180C380CE01CA21
:10376000874180C380CE01CA874180C380CE01CA11
:10377000874180C380CE01CA874180C380CE01CA01
:10378000874180C36D41002D2DD1019F63462200EA
:10379000002106A0C046C046C046C046C046C0463E
:1037A0001B1801CA20CF401901C4184701CA20CFF5
:1037B000684101C401CA20CF684101C401CA20CFB9
:1037C000684101C401CA20CF684101C401CA20CFA9
:1037D000684101C401CA20CF684101C401CA20CF99
:1037E000684101C4494123B03CBC90469946A24679
:1037F000AB46F0BD1300210001982200002503A66E
:103800009B1940CA80C8F61940C1184740CA80C8F1
:103810007E4140C140CA80C87E4140C140CA80C884
:103820007E4140C140CA80C87E4140C140CA80C874
:103830007E4140C140CA80C87E4140C140CA80C864
:103840007E4140C16D4123002000E1691C334A08DC
:10385000AC46E261C90718309C4239D240F21409E3
:10386000A369A1445D082943A161D90784422FD2ED
:10387000636958080143200061611030D9074C4545
:1038800026D240F20C092369A1445D082943216135
:10389000D90784421CD2E368580801432000E16044
:1038A0000830D9074C4513D2A3685D082943A160AD
:1038B000D907231D994684420AD2636858080143F8
:1038C0006160D9074C4503D223685B080B43236032
:1038D0006346DB071A43E261F0E5C04670B5556800
:1038E00014682C4395682C43D5682C4315692C43E8
:1038F00055692C4395692C43D5692C4304B970BD97
:1039000043F25114C0F20004A047F8E700000000A1
:10391000F0B54546DE4657464E46E0B5B7B00C908A
:1039200090460D920593002B00DCCAE25F1EFBB2AD
:1039300001339B0046F23F76994646F2757A16AC03
:103940001A00C0F2000620001EADB04741464A46AC
:103950002800B04726AE4A4600213000C0F2000AD7
:10396000D047012326932EAB4A46002118009846E3
:10397000D047FBB20B935BB29A0005990393A3184F
:103980000493AB1817009A46B2188B0014921A00D1
:1039900042441092043A11920822521AD200013283
:1039A00012921A1F110093464144E8181591E1182C
:1039B000F3180693043B0993031F47440F932B1FEF
:1039C00013979946271F0B1F0E900791B344089336
:1039D0000297019500960399002900DA73E0049B91
:1039E0001A6853461B689A4228D800D2BCE00B00E4
:1039F000029F019D009E06E09A00A158AA5891429C
:103A000019D800D2ADE0013B5BB25A1CF4D1059B42
:103A1000002B09DD46F23F730B9A31000132920010
:103A20000C98C0F20003984737B03CBC90469946CA
:103A3000A246AB46F0BD02970195009601230121F5
:103A400022680A4241D1079A08990023A2420ED95E
:103A50001800029F019D009E0A6804395308034321
:103A60004B60D007B942F7D1029701950096012229
:103A7000269B134200D0DCE0069B009A40F2000C2B
:103A80009342A8D900230999029F1800019D009E26
:103A900000E019000A68530803430B60D0070B1FAE
:103AA000B142F6D80297019500966346002B92D05A
:103AB0005A46802312681B0613435A460399136023
:103AC000002900DB8BE7009EA1E701210198026835
:103AD0000A424CD10E9A0F990023824212D9050056
:103AE000A44618004C46029F009E0A6804395308F9
:103AF00003434B60D0078C42F7D1A146644602973E
:103B00000195009601222E9B134200D0C2E0109B2B
:103B100040F2000C434500D85DE700234046119970
:103B2000A046029F019D009E1C0000E019000A684B
:103B3000530823430B60D4070B1F8142F6D8444639
:103B400080460297019500966346002B00D142E71C
:103B5000159A13680A9380230A991B060B43136076
:103B600039E702970195009601235B4267E7012B35
:103B700000D0BEE040F291770200059B2100C0F228
:103B8000000720000A97B847079A08990023A24225
:103B90000ED91800029F019D009E0A68043953083F
:103BA00003434B60D0078F42F7D1029701950096EF
:103BB000149B1A68139B1B689A4200D90AE100D231
:103BC000FFE0039B029F019D009E404606E09A0095
:103BD000B1588258914205D800D2EEE0013B5BB269
:103BE0005A1CF4D101958046350002970096059B3A
:103BF0004246290028000A9FB8470122269B13420B
:103C000000D0E9E0069B40F2000CAB4200D8E2E6AF
:103C100000230999029F1800019D009E00E01900F1
:103C20000A68530803430B60D0070B1FB142F6D854
:103C300038E700990D98129B0F00002203A5C0469B
:103C40005B1920CF40C8AD1920C1184720CF40C80C
:103C5000754120C120CF40C8754120C120CF40C848
:103C6000754120C120CF40C8754120C120CF40C838
:103C7000754120C120CF40C8754120C120CF40C828
:103C8000754120C152419446069B009A934200D947
:103C9000F8E60AE743460D9912984546002203A626
:103CA000801940CD80C9F61940C3004740CD80C976
:103CB0007E4140C340CD80C97E4140C340CD80C9D4
:103CC0007E4140C340CD80C97E4140C340CD80C9C4
:103CD0007E4140C340CD80C97E4140C340CD80C9B4
:103CE0007E4140C35241109B9446434500D914E79E
:103CF0002AE740F29177059B22000100C0F20007FD
:103D000005000A97B8470E9A0F990023AA4212D9C4
:103D1000A44618004C46029F019D009E0A68043983
:103D2000530803434B60D0078C42F7D1A146644649
:103D3000029701950096139B1A68149B1B689A4280
:103D400000D98CE000D281E0039B029F019D009E80
:103D5000404606E09A008158B258914205D800D2F8
:103D600070E0013B5BB25A1CF4D1804632000297EE
:103D700001950096059B414640460A9DA8470122B1
:103D80002E9B134200D06CE0109B40F2000C434588
:103D900000D820E6002340461199A046029F019DCD
:103DA000009E1C0000E019000A68530823430B60C2
:103DB000D4070B1F8142F6D8C1E6804602970195D1
:103DC000009640F231750098059B0D9A0100C0F2F3
:103DD0000005A847009D0AE7009B0D9912981D0059
:103DE000002206A6C046C046C046C046C046C046E1
:103DF000801940CD80C9F61940C3004740CD80C925
:103E00007E4140C340CD80C97E4140C340CD80C982
:103E10007E4140C340CD80C97E4140C340CD80C972
:103E20007E4140C340CD80C97E4140C340CD80C962
:103E30007E4140C352419446069B009A934200D96A
:103E4000E6E632E6804602970195009640F231752B
:103E5000059B0D9A41464046C0F20005A847009ACE
:103E600088E743460D9912984546002203A6C046AE
:103E7000801940CD80C9F61940C3004740CD80C9A4
:103E80007E4140C340CD80C97E4140C340CD80C902
:103E90007E4140C340CD80C97E4140C340CD80C9F2
:103EA0007E4140C340CD80C97E4140C340CD80C9E2
:103EB0007E4140C35241109B9446434500D969E777
:103EC00042E601232693059B16AC5F1E2EAB1EAD6A
:103ED00026AE98464DE5C046F0B54546DE46574607
:103EE0004E46E0B5D1B098465AAB049200229A5E95
:103EF00000235B9F0D90FB5689460B9193460893D8
:103F00001D1E00DCC7E146F23F7A5C1EE6B20136B8
:103F100028ABB60032001800C0F2000A0A93D0475E
:103F2000AB009C464A4662440E93130038AD0C9297
:103F3000190032002800D0474346002B00D19DE1F4
:103F400010AB3200414618009946D047089B002B21
:103F500000DC91E1E4B20134A40046F2517620ABDA
:103F600022000A991800C0F200069A46B04730AB0A
:103F70001800220029000993B0470023FB5640F2A5
:103F8000ED744A46C0F20004494640A80794A04791
:103F9000B02440A918A83B5998470A99002388469D
:103FA00018AAFB5640A8079EB047404640A93B5977
:103FB000984700234A46FB5618A940A8079EB047D9
:103FC00018AB180040A93B599847002318AAFB5684
:103FD000290040A8079EB04740A928003B599847B0
:103FE000A4234046FE584A463B002900B047002320
:103FF000079E4A46FB56494640A8B04740A918A824
:104000003B599847002318AAFB56514640A8B04791
:1040100040A950463B59984700234A46FB5618A9E9
:1040200040A8B04740A918A83B59984709990023D0
:104030008846FB5618AA40A8B0473B5940A94046BD
:1040400098475B46023B1BB2002B00DC36E142F294
:10405000A172C0F20002069240F67D52C0F2000248
:104060000592099A93464A46B9460F921F220121AA
:104070009DB22A4091400A005B1104999B005C5854
:10408000013D14406242624101239E1A534654018D
:104090001F1923007601B0465B441A004B46D044FA
:1040A0005E4400930392130031003A004046069CA0
:1040B000A0474B4642460093039933003800059CC5
:1040C000ADB2A0472BB2002DD0D10F9B4F469946E1
:1040D000049B51461A6801231E0009981640760178
:1040E0009343891980465B010C001A0040F29175D8
:1040F00046449844524420000391434631000097BF
:10410000069C0492A0473B1D9B465246089B0A9979
:104110004846C0F20005A84740B140F23175089BFF
:104120005A4649464846C0F20005A8470023B02534
:104130003200FB56494640A8079CA04740A9484684
:104140007B59984700230B9AFB56494640A8079C89
:10415000A0477B5940A948469847089B002B1ADD89
:10416000591E002200234846C9B20131039C890030
:10417000855804322B438A42FAD103948146002B9E
:1041800000D171E043F61115089B5A46494648464E
:10419000C0F20005A8470023B025079C0C9AFB56E7
:1041A000494640A8A04740A948467B599847039AEA
:1041B00000239346FB56494640A80794A04740A9D0
:1041C00048467B599847330041465A460498009721
:1041D000059EB0470023079C4A46FB56494640A827
:1041E000A04740A918A87B599847002318AAFB5656
:1041F000514640A8A04740A950467B599847002304
:104200004A46FB5618A940A8A04740A918A87B59C0
:104210009847099900238846FB5618AA40A8A0474A
:104220007B5940A940469847089B002B15DD1C0090
:1042300046F23F75013CE4B20D9F0134A400220018
:1042400051463800C0F20005A8470E9A3B0094463C
:104250006344180022004146A84751B03CBC904638
:104260009946A246AB46F0BD46F27573002148461A
:10427000C0F2000398478EE704246EE610AB1800E6
:10428000994646F275733200C0F200030021984748
:10429000012310935AE69B009C460A000E93434666
:1042A00062440C92ABB128AA0A9210AA914620AAA5
:1042B000924630AA089B38AD099260E642F2A1739B
:1042C000C0F20003069340F67D53C0F2000305934D
:1042D000FEE601231093E6E7000000000000000066
:1042E000F0B5DE46454657464E46E0B5EDB03DAB2F
:1042F00004000790180046F275731C220021C0F2DA
:104300000003984701233D9346F23F732100C0F21A
:1043100000031C2236A81893984746F6D813C0F21B
:104320000003199304339C46092544AB62462100DF
:104330002800002605A7C046C046C046C046C04665
:10434000C01980CA10C93F1B80C3004780CA10C96A
:10435000A74180C380CA10C9A74180C380CA10C9C1
:10436000A74180C380CA10C9A74180C380CA10C9B1
:10437000A74180C380CA10C9A74180C380CA10C9A1
:10438000A74180C37641002E2DD144AB624629005F
:104390001800002405A5C046C046C046C046C04619
:1043A000491920C840CAAD1920C3084720C840CACF
:1043B000754120C320C840CA754120C320C840CAE7
:1043C000754120C320C840CA754120C320C840CAD7
:1043D000754120C320C840CA754120C320C840CAC7
:1043E000754120C3644140F2ED75449BC0F2000565
:1043F0000993459B389F0A93469B07240B93479B41
:1044000041F2712B0C93489B40F209090D93499B93
:10441000C0F2000B0E934A9B0F933D9B10933E9B63
:1044200011933F9B1293409B1393419B1493429B88
:104430001593439B1693369B1793379B3998059595
:104440004CADAA4640F63175C0F2000504952FAD7B
:104450000395199D9C460435A84608943A99063C54
:104460003B9A3C9B069428AC6D461826AD5F179E80
:10447000279321966646109B22962893119B23979B
:104480002993129B24902A93139B25912B93149B81
:1044900026922C93159B01272D93169B2E1E2E934F
:1044A000099B2F930A9B30930B9B31930C9B329368
:1044B0000D9B33930E9B34930F9B35930ADD039A28
:1044C00021AB013701920094210018003FB2D84778
:1044D000BE42F4DA3DAA072321005CA8059FB84735
:1044E0005CA95046049DA847079A072351465CA83B
:1044F000B8475CA95046A8475646534642464946E7
:10450000002006A7C046C046C046C046C046C046BA
:10451000C91980CA20CE7F1B80C3084780CA20CE1D
:10452000AF4180C380CA20CEAF4180C380CA20CEB5
:10453000AF4180C380CA20CEAF4180C380CA20CEA5
:10454000AF4180C380CA20CEAF4180C380CA20CE95
:10455000AF4180C3404100282DD1534642464946D1
:104560005046002605A7C046C046C046C046C046C5
:10457000C91980C820CA7F1980C3084780C820CACB
:104580006F4180C380C820CA6F4180C380C820CAE1
:104590006F4180C380C820CA6F4180C380C820CAD1
:1045A0006F4180C380C820CA6F4180C380C820CAC1
:1045B0006F4180C3764136AA21A95CA8059E0723D6
:1045C000B0475CA9049B54A8984754AB524649464F
:1045D0001E00002005A7C046C046C046C046C046D3
:1045E000C91980CE20CA7F1980C3084780CE20CA4F
:1045F0006F4180C380CE20CA6F4180C380CE20CA65
:104600006F4180C380CE20CA6F4180C380CE20CA54
:104610006F4180C380CE20CA6F4180C380CE20CA44
:104620006F4180C3404190B95A9B01333BD1599BA4
:10463000013338D1589B013335D1579B013332D1E7
:10464000569B23B9559B13B9549B002B2BD054ABCD
:10465000424649461800002604A7C046C046C04648
:10466000C91980C820CA7F1B80C3084780C820CAD8
:10467000AF4180C380C820CAAF4180C380C820CA70
:10468000AF4180C380C820CAAF4180C380C820CA60
:10469000AF4180C380C820CAAF4180C380C820CA50
:1046A000AF4180C376413DAA072321A95CA8059F9D
:1046B000B8475CA95046049DA8472200072336A9A5
:1046C0005CA8B8475CA92000A847260023005246F2
:1046D0004946002005A7C046C046C046C046C04661
:1046E000C91980CE20CA7F1980C3084780CE20CA4E
:1046F0006F4180C380CE20CA6F4180C380CE20CA64
:104700006F4180C380CE20CA6F4180C380CE20CA53
:104710006F4180C380CE20CA6F4180C380CE20CA43
:104720006F4180C3404190B92E9B01333BD12D9BFB
:10473000013338D12C9B013335D12B9B013332D13E
:104740002A9B23B9299B13B9289B002B2BD023002C
:10475000424649462000002604A7C046C046C0463F
:10476000C91980C820CA7F1B80C3084780C820CAD7
:10477000AF4180C380C820CAAF4180C380C820CA6F
:10478000AF4180C380C820CAAF4180C380C820CA5F
:10479000AF4180C380C820CAAF4180C380C820CA4F
:1047A000AF4180C376412200072321005CA8059F0A
:1047B000B847039E5CA93000049DA847079A0723C9
:1047C00031005CA80396B847039E5CA93000A84757
:1047D000330042464946002004A7C046C046C046B2
:1047E000C91980CA20CE7F1B80C3084780CA20CE4B
:1047F000AF4180C380CA20CEAF4180C380CA20CEE3
:10480000AF4180C380CA20CEAF4180C380CA20CED2
:10481000AF4180C380CA20CEAF4180C380CA20CEC2
:10482000AF4180C3404100282DD1039B42464946F9
:104830001800002605A7C046C046C046C046C04670
:10484000C91980C820CA7F1980C3084780C820CAF8
:104850006F4180C380C820CA6F4180C380C820CA0E
:104860006F4180C380C820CA6F4180C380C820CAFE
:104870006F4180C380C820CA6F4180C380C820CAEE
:104880006F4180C37641549B569F1E00179321931E
:10489000559B36969C4666463796289E57981096A6
:1048A0003D96299E589911963E962A9E599A229392
:1048B00012965A9B3F962B9E2397249025912692E1
:1048C0002793389739903A913B923C9313964096B0
:1048D0002C9E149641962D9E159642962E9E1696C7
:1048E00043962F9E09964496309E0A964596319E91
:1048F0000B964696329E0C964796339E0D9648969A
:10490000349E0E964996359E0F964A96069E7600E0
:1049100076B20696089E013EF6B20896002E00D0AA
:10492000A2E5039B36AA01931AA921AB3DA80094E6
:10493000D8473D9B419899463E9B429998463F9B5C
:10494000439A9C465D46409F8B465F361100424627
:104950008046604602E0013EB6B2FEB34B4621936C
:10496000434625935B4626931A9B229228931B9BD2
:10497000239029931C9B24972A931D9B27912B936B
:104980001E9B36AA2C931F9B1AA92D93209B3DA8F2
:104990002E93369B2F93379B3093389B3193399BC3
:1049A00032933A9B33933B9B34933C9B00943593D7
:1049B000039B019321ABA8473D9B3E9A3F989946A4
:1049C000409F1343419903433B430B43884642991D
:1049D0000B438B4643990B43002BBCD1299A289B50
:1049E00013432A9A13432B9A13432C9A13432D9A59
:1049F00013432E9A1343BBB93693379338933993A5
:104A00003A933B933C9336AA21A95CA80723059CC3
:104A1000A0475CA90798049B98476DB03CBC9046A2
:104A20009946A246AB46F0BD21001C22189B44A823
:104A30009847199A53460432110031C931C331C91C
:104A400031C3086801211860002340F20909934628
:104A5000559356935793589359935A9354915C9303
:104A60005D935E935F9360936193629344994A9BD5
:104A700098422AD300D9BFE1499C519A944224D844
:104A800000D2B9E1489C509A94421ED800D2B3E1BA
:104A9000479C4F9A944218D800D2ADE1469C4E9A5A
:104AA000944212D800D2A7E1459C4D9A94420CD86A
:104AB00000D2A1E14C9A8A4207D300D99CE11C2282
:104AC00054A936A8189B98479DE7012401220A4261
:104AD00061D1499A5C085608DB0733434993489BE8
:104AE000D2075E0832434892479ADB0756083343A1
:104AF0004793469BD2075E0832434692459A49083F
:104B00005608D20711430022DB0733434593549BD9
:104B1000039201324A9444911A4200D06FE15A9AAA
:104B2000599F94467D08A8466546ED07AC46454624
:104B3000664635435995589DFF07AC466D082F438F
:104B40005897579F5B087D08A8466546ED07AC4619
:104B50004546664635435795569DFF07AC466D085A
:104B60002F435697559F52087D08A8466546ED0786
:104B7000AC4645466646FF073B4354932300039CDF
:104B800035435A925595002C00D171E780242406B4
:104B900022435A926CE752460125126815424FD1C2
:104BA000519F44087E08C0073043509E5190FF0734
:104BB000700807434F985097F60747083E434F96B3
:104BC0004E9EC007770838434E904D9852084708CC
:104BD000C00702430120F6074C925C9A3E43529470
:104BE0004D9694460027104200D00BE26298619ADD
:104BF00046085508C007284361906098D2074508C9
:104C00002A4360925F9AC007550828435F905E98D8
:104C1000D20745082A435E925D9AC007550828438B
:104C20005D906046D2074008024362965C92200085
:104C3000002F00D11CE7802212061643629617E768
:104C4000012C00D00DE144AB524649461800002427
:104C500006A6C046C046C046C046C046C046C0467E
:104C6000891940C880CAF61B40C3084740C880CA9B
:104C7000BE4140C340C880CABE4140C340C880CA8C
:104C8000BE4140C340C880CABE4140C340C880CA7C
:104C9000BE4140C340C880CABE4140C340C880CA6C
:104CA000BE4140C364414A9B5A084A92499ADB0775
:104CB00051080B434993489BD20759080A4348922D
:104CC000479ADB0751080B434793469BD207590885
:104CD0000A434692459ADB0751080B434593449B90
:104CE000D2075B08134344935A9A629B9A4224D892
:104CF00000D2E2E1599A619B9A421ED800D2DCE1CF
:104D0000589A609B9A4218D800D2D6E1579A5F9B76
:104D10009A4212D800D2D0E1569A5E9B9A420CD8A1
:104D200000D2CAE1559A5D9B9A4206D800D2C4E1EE
:104D3000549B5C9A934200D2BFE154AB5CAA4946B3
:104D40001800002405A6C046C046C046C046C0465E
:104D5000891940C880CAF61B40C3084740C880CAAA
:104D6000BE4140C340C880CABE4140C340C880CA9B
:104D7000BE4140C340C880CABE4140C340C880CA8B
:104D8000BE4140C340C880CABE4140C340C880CA7B
:104D9000BE4140C364410123549E0024334200D0ED
:104DA0005FE15A9B599A58085108DB070B43599306
:104DB000589BD20759080A4357995892DB074A086B
:104DC0001343569A5793C90753081943559B569155
:104DD000D20759087608DB070A4333435A905592A5
:104DE0005493002C00D109E180231B0618435A90EC
:104DF00044994A9B52983BE60124644266E654ABD0
:104E00005A4649461800002604A4C046C046C0467B
:104E1000091910C880CAE41910C3084710C880CA0D
:104E20007C4110C310C880CA7C4110C310C880CA1E
:104E30007C4110C310C880CA7C4110C310C880CA0E
:104E40007C4110C310C880CA7C4110C310C880CAFE
:104E50007C4110C376410396549B44994A9C5298D6
:104E60005DE6534644AA49465046002403A6C04680
:104E7000891940C880CAF61B40C3084740C880CA89
:104E8000BE4140C340C880CABE4140C340C880CA7A
:104E9000BE4140C340C880CABE4140C340C880CA6A
:104EA000BE4140C340C880CABE4140C340C880CA5A
:104EB000BE4140C36441529B5A085292519ADB074B
:104EC00051080B435193509BD20759080A43509203
:104ED0004F9ADB0751080B434F934E9BD20759085B
:104EE0000A434E924D9ADB0751080B434D934C9B5E
:104EF000D2075B0813434C93629A5A9B9A4224D878
:104F000000D23AE1619A599B9A421ED800D234E10C
:104F1000609A589B9A4218D800D22EE15F9A579B0C
:104F20009A4212D800D228E15E9A569B9A420CD837
:104F300000D222E15D9A559B9A4206D800D21CE12C
:104F40005C9B549A934200D217E15CAB54AA494649
:104F50001800002405A6C046C046C046C046C0464C
:104F6000891940C880CAF61B40C3084740C880CA98
:104F7000BE4140C340C880CABE4140C340C880CA89
:104F8000BE4140C340C880CABE4140C340C880CA79
:104F9000BE4140C340C880CABE4140C340C880CA69
:104FA000BE4140C3644101235C9E0024334200D0D3
:104FB000B2E0629B619A58085108DB070B4361938A
:104FC000609BD20759080A435F996092DB074A0841
:104FD00013435E9A5F93C907530819435D9B5E9123
:104FE000D20759087608DB070A43334362905D9283
:104FF0005C931CB180231B061843629044994A9B22
:10500000529835E55CAB5A4649461800002703A480
:10501000091910C840CAA41910C3084710C840CACB
:10502000744110C310C840CA744110C310C840CAAC
:10503000744110C310C840CA744110C310C840CA9C
:10504000744110C310C840CA744110C310C840CA8C
:10505000744110C37F415C9B44999C46529C4A9B7F
:10506000C4E554AB5A4649461800002403A6C0467E
:10507000891940C880CAF61940C3084740C880CA89
:105080007E4140C340C880CA7E4140C340C880CAF8
:105090007E4140C340C880CA7E4140C340C880CAE8
:1050A0007E4140C340C880CA7E4140C340C880CAD8
:1050B0007E4140C36441549E73E654AB5A46494610
:1050C0001800002405A6C046C046C046C046C046DB
:1050D000891940C880CAF61940C3084740C880CA29
:1050E0007E4140C340C880CA7E4140C340C880CA98
:1050F0007E4140C340C880CA7E4140C340C880CA88
:105100007E4140C340C880CA7E4140C340C880CA77
:105110007E4140C3644110E65CAB5A4649461800E4
:10512000002406A6C046C046C046C046C046C0468B
:10513000891940C880CAF61940C3084740C880CAC8
:105140007E4140C340C880CA7E4140C340C880CA37
:105150007E4140C340C880CA7E4140C340C880CA27
:105160007E4140C340C880CA7E4140C340C880CA17
:105170007E4140C364415C9E1BE75CAB5A46494696
:105180001800002405A6C046C046C046C046C0461A
:10519000891940C880CAF61940C3084740C880CA68
:1051A0007E4140C340C880CA7E4140C340C880CAD7
:1051B0007E4140C340C880CA7E4140C340C880CAC7
:1051C0007E4140C340C880CA7E4140C340C880CAB7
:1051D0007E4140C36441B8E60000000000000000CA
:1051E000F0B5DE464E4657464546E0B5C1B01E0016
:1051F00010AB0E9318AB0F934B9B05901B78069149
:105200005BB207929B46002B0FDD5C1EE4B20134BB
:10521000A3001C00F018B1463300002202CB0A4361
:105220009842FBD1250004943AB9002041B03CBC1F
:1052300090469946A246AB46F0BD4B9B40F2917A10
:1052400002229B5EC0F2000A1A000A931F231F323B
:10525000D1170B409B186A465B1113739846137B5A
:1052600032005BB21C0009934B9B24331900089356
:1052700030AB180003932300D047421E9041C2B2C6
:10528000002C00DCFEE1012369465B4243440B74C1
:10529000087C0023002101302C00039D80006F5802
:1052A00004313B438142FAD1591E8B410494DBB255
:1052B00052009A1AD3B20B93012BB6D140F21F0AB7
:1052C0004B9B574602229A5E10A811001F31CB1744
:1052D0003B405B1808215B115BB2C91AC9000C93F3
:1052E0000D9201313300089F002204A4C046C0463D
:1052F000091910CB20CF641910C0084710CB20CF5C
:105300006C4110C010CB20CF6C4110C010CB20CF0F
:105310006C4110C010CB20CF6C4110C010CB20CFFF
:105320006C4110C010CB20CF6C4110C010CB20CFEF
:105330006C4110C0524101231C00B2B90C9B0D9A64
:10534000590100231C008A420FDA504640AB9C46AC
:10535000511110400B9A890082406144C03909689C
:105360000A4013005A1E93411C0040F2317A0C9BF4
:10537000C0F2000A089A10A918A8D04740F2000A03
:10538000C2F2000A53461B68002B00D17EE10821BF
:105390000CAA5218A300D3584B9A1D00180040F6CF
:1053A000A503111DC0F200035A469847002800D1FA
:1053B0003BE701232200082143F6D96B5A409300B2
:1053C0000CAA5218D2584B9B4B9901930A9B44311B
:1053D00001331BB2009320A82B00C0F2000BD8476A
:1053E00000220023049C50200CA90918895804327B
:1053F00004910B43A242F6D10494002B00D114E790
:1054000053461B68002B00D14BE140F6A503099AD7
:10541000089910A8C0F200039847002800D104E7BB
:1054200001235B4243449A4640F2ED7440F6CD1BA3
:10543000099D039F2B0010AA31003800C0F2000420
:105440000A94C0F2000BA0472B00089A39003000E4
:10545000D847002D21DD2C216A465346521813707F
:105460002C226B469B181A78494601329200002381
:105470009446049CB01804C913438842FBD1624689
:105480000494002B00D104E143F61119099B089AFA
:1054900031003000C0F20009C847099D039F2B006E
:1054A00010AA310038000A9CA0472B00089A390046
:1054B0003000D8474B9B00225B7803215BB29C46AF
:1054C00001235B42634499466346002B16DD049B2F
:1054D0006546B0469C464E46B31A180050240CAFA1
:1054E00088433F190B403858DB00D8404A9B9854FA
:1054F00001329542F0DC6346464604934B9B022200
:105500009A5E07230732D1170B409B18DB10DA1C79
:1055100099460323D1170B409B189B105AB2002ABF
:105520000ADD5A1E46F27573D2B201329200002192
:1055300010A8C0F2000398474B465A1E059B40F244
:10554000030C98464B46002B15DD049B40469846BD
:105550006146130064468B4310A9894614400178C4
:10556000E400A1404B441C68013021431960013A1A
:10557000EED243460493099C302023000022013BD5
:105580000CA909189B00CA5046F23F73049A20A93F
:10559000C0F2000318A89847230018AA10A903987E
:1055A0000A9FB8472500230041F64D04089A039945
:1055B00018A89046C0F20004D8474B9B079A06995A
:1055C00010A8A04741F6112418AA1000434610A9BC
:1055D000C0F200040095A0472C003200039E2B006F
:1055E00018A93000B84723004246310018A8D84710
:1055F00053466A461373137B5BB2002B04DA0BE04D
:10560000013B5BB25A1C3FD040A98C469A006244D1
:10561000A03A1268002AF3D001335BB2002193B1A3
:1056200040A98C462F4A00219A1892006244A03A61
:10563000126822B152080131002AFBD189B2013B24
:105640005B01C91809B201244B9B1C57E3008B4234
:1056500000DAEAE5002C13DD00220320A4464A9B71
:10566000661E1D19B31A190030240CAF81433F196F
:1056700003407958DB00D940A95401329445F1DC4C
:105680000120D3E5002313E60021DCE700231D0001
:105690008FE646F2757300213000C0F20003984790
:1056A000FBE6099B002B17DD012328216A465B429C
:1056B0004344521813709A4628226B469B181A7856
:1056C00046F2757301329200002110A8C0F2000367
:1056D000984701231093A7E601235B4243449A466F
:1056E000F7E7C046FFFFFF3F00000000000000009A
:1056F000F0B54E4657464546DE46E0B51F001B78DE
:10570000A9B05BB20600894614009846002B10DD54
:1057100013004246551EEDB20135AA001500A0182F
:10572000002202CB0A439842FBD1049502960397CC
:1057300032B929B03CBC90469946A246AB46F0BD72
:1057400040F2ED7B4A46C0F2000B4346494618A89A
:10575000D847B023039F18A9FB5808A8059398477A
:105760000023029DFB5608AA290018A8D847B02399
:10577000FB5818A910A802939847002308AA110003
:10578000FB5618A8D847B023FB5818A908A80293BD
:10579000984700232200FB56494618A8D847B02353
:1057A000FB5818A948460293984700232200FB564D
:1057B000210018A8D847B023FB5818A9200002934D
:1057C00041F6112A98473B0042460433C0F2000AD2
:1057D00029002800009222001E000593D04742466F
:1057E00033000092210022002000D04729004246C9
:1057F000029541F691150092C0F200053300220097
:1058000020000695A8473B783D00029F5BB222002E
:10581000390018A8D847B02218A9AB5838009847C3
:1058200042463300009239003A002000D0474246F9
:1058300033000092390022003800D0473B68DB0774
:1058400074D4029943468C469B0063441A1F9942C4
:1058500018D2501A033080088000181A0023083824
:10586000A4460E0004001800049D039F1168043A2A
:105870004B0803435360C807A242F7D1644604951E
:105880000296039740F2B00A039D029E2B783200E5
:1058900031005BB218A8D847534618A9EB5820002E
:1058A000039598474346059E069F009310AA330030
:1058B00021002000B847434610AA0093210033007E
:1058C0002000B847434610A9080000932200330087
:1058D000B847039D10AA2B7802995BB218A8D84745
:1058E0005246AB58029D18A928009847424600929C
:1058F00008AA330029001000B84700232E00049D99
:10590000E258F2500433AB42FAD100234A46D15850
:10591000E15004339D42FAD1914646F23F732A008A
:1059200008A94846C0F20003984702E74246082308
:105930009B1A029ADB00013394460599100000255A
:1059400006A6C046C046C046C046C046C046C04681
:105950009B1940C880C9F61940C2184740C880C981
:105960007E4140C240C880C97E4140C240C880C913
:105970007E4140C240C880C97E4140C240C880C903
:105980007E4140C240C880C97E4140C240C880C9F3
:105990007E4140C26D41434660469B00C218079558
:1059A0009A46111F90421BD2029E049D8B1B03330B
:1059B0009B089B00D31A0822524294469C44002321
:1059C0006046A4461C00039F0A6804395308234319
:1059D0004B60D4078142F7D1644604950296039741
:1059E000029A53469446043B6344079A1968D207C7
:1059F0000A431A6046E7C04646F65840C0F2000027
:105A000050307047F0B557464E464546DE46E0B545
:105A100045F2E1178DB0C0F2000740F2240940F6CC
:105A2000A50603933B00169DC0F20006A94437006B
:105A300083464E468A460292402440F21F08994609
:105A40000AE0039B01950093029A04AB5146584625
:105A5000C847B8B9013C6CB141460222AB5E04A80C
:105A60001F33DA170A40D218521152B23100B84728
:105A70000028E6D100200DB03CBC90469946A246D5
:105A8000AB46F0BD0120F6E7F0B54E464546DE4692
:105A90005746E0B5B24C9846A544A89B0A911B789E
:105AA0000B925BB20493A89B814602229A5E1F234D
:105AB0001F32D1170B409B185B1107935BB2099300
:105AC000013B9B0078201A000C930023012410A9AD
:105AD00009188B5056AE5EA98B50B350A89B02910B
