S01400004E6F6E5365637572654170702E737265635D
S11380005839002065810000618100006181000011
S1138010000000000000000000000000000000005C
S1138020000000000000000000000000618100006A
S11380300000000000000000618100006181000078
S113804061810000618100006181000061810000A4
S11380506181000061810000618100006181000094
S11380606181000061810000618100006181000084
S11380706181000061810000618100006181000074
S11380806181000061810000618100006181000064
S11380906181000061810000618100006181000054
S11380A06181000061810000618100006181000044
S11380B06181000061810000618100006181000034
S11380C06181000061810000618100006D82000017
S11380D06181000061810000618100006181000014
S11380E06181000061810000618100006181000004
S11380F06181000010B542F2D014C2F2000423786A
S113810063B940F20003C0F200032BB14AF230001D
S1138110C0F2000000E000BF0123237010BDC04680
S113812040F20003C0F2000310B54BB142F2D41187
S11381304AF23000C2F20001C0F2000000E000BFC9
S11381404AF23000C0F20000036803B910BD40F2E7
S11381500003C0F20003002BF8D09847F6E7C046AE
S1138160FEE7C0464AF2300142F20000C0F20001CC
S1138170C2F2000010B581420FD042F2D013C2F215
S11381800003984209D2C243D21849F67B139208DD
S113819001329200C0F20003984742F2D01042F23A
S11381A05473C2F20000C2F2000398420AD2C243DE
S11381B0D21849F68D139208013292000021C0F2C0
S11381C00003984748F200037F22C0F20003934360
S11381D04EF60052CEF20002936049F6F903C0F263
S11381E00003984748F60573C0F200039847FEE77A
S11381F040F60003202110B5C4F20003DA69B82464
S11382000A43DA6141F60042B823C4F20002203185
S1138210D15013591942FCD041F2004340F220627C
S1138220C4F200231A6001221A730F4A02219A82AF
S11382304201121A520092B29A8300229A821A6858
S11382400A431A6010225A724EF20013083ACEF210
S113825000035A6042F2F013C2F2000318600021D6
S113826000209860D96010BDCDFEFFFF42F2F013EC
S113827001200021C2F2000330B59C68DD680019BA
S113828069419860D96041F200431022C4F200238E
S1138290997A0A4200D09A7230BDC046F8B540F2CD
S11382A0004242F24023C4F20022C2F200031A60E8
S11382B042F248230B22C2F200031A6042F2442322
S11382C00224C2F200031C6042F20043C0F2F40331
S11382D09C4649F2490542F200420126000140420F
S11382E06044010CC0F20005C0F2F4020023000453
S11382F0A847B44643F2000380225821022566466B
S1138300C4F2000352049A605A5C3C272A43D2B256
S11383105A545A5C3243D2B25A540F22D95D914313
S11383202943D95580218904596059215E5C2E4323
S1138330F6B25E5404265D5CB54366465D545D5CEE
S11383403543EDB25D54D95D0A4020210A43DA5524
S113835040F60003C4F20003DA694021144341F6F5
S11383600042DC61AC23AC24C4F20002D1501359A6
S11383701942FCD040F200420423C4F20022C4F2A9
S113838031031360C02302219B0280B253609081A9
S113839013680B431360D3691942FCD1F8BDC0467E
S11383A010B5047874B142F240230121C2F20003F3
S11383B01A680130137E1942FCD0A4B214850478E3
S11383C0002CF6D110BDC0460A2290FBF2F130B564
S11383D08C006418640085B0041B01AB30341C703D
S11383E0002900DC91E091FBF2F5AC006419640013
S11383F0091B30315970642190FBF1F1002900D13F
S113840085E091FBF2F5AC0064196400091B30317E
S1138410997040F2E83190FBF1F1002900D178E045
S113842091FBF2F5AC0064196400091B3031D9707A
S113843042F2107190FBF1F1002900D16BE091FB45
S1138440F2F5AC0064196400091B3031197148F26B
S1138450A061C0F2010190FBF1F100295DD091FB14
S1138460F2F5AC0064196400091B3031597144F20F
S11384704021C0F20F0190FBF1F100294FD091FB94
S1138480F2F5AC0064196400091B3031997149F2AA
S11384908061C0F2980190FBF1F1002941D091FB79
S11384A0F2F5AC0064196400091B3031D9714EF245
S11384B00011C0F2F55190FBF1F1002933D091FB8A
S11384C0F2F29400A2185200891A4CF60022C3F664
S11384D09A3290FBF2F03031197230B33030587266
S11384E0092042F2402218186B460121C2F2000210
S11384F01268DD1C0478137E1942FCD0A4B2013842
S11385001485A842F6D105B030BD0020E9E701206A
S1138510E7E70220E5E70320E3E70420E1E705209D
S1138520DFE70620DDE70720DBE70820D9E7C046C0
S113853042F24023C2F200031A68042103E0137ECE
S11385405BB2002B05DB137E1942F8D0108DC0B24C
S113855070478021137E0B431376F7E770B500292B
S113856015DD42F24025802604244118C2F200059C
S113857076422A6803E0137E5BB2002B08DB137E8D
S11385801C42F8D0138D037001308842F1D170BDC4
S1138590137E3343DBB21376138D037001308842AC
S11385A0E7D1F4E730B500290FDD42F2402301247E
S11385B0C2F200031A6841180578137E1C42FCD0ED
S11385C0ADB2013015858842F6D130BD10B542F206
S11385D04C2447F60943C2F20004200040F204513F
S11385E0C0F20003984749F68D1340F2045200216B
S11385F02000C0F20003984747F6114340F20451AB
S11386002000C0F20003984710BDC046F0B5DE4616
S113861057464E46454604009B46180049F68D13BE
S1138620E0B585B015000392C0F200038A4620220B
S11386300021984740F20053EE587EB128000025EF
S1138640002303E00133202B00D1E7E0E15CC25CAE
S11386509142F7D001354030B542F1D149F6592362
S1138660C0F20003009349F60D03C0F20003029325
S113867049F2795849F20D03C0F20008C0F2000330
S1138680A1460025019344460CE0434601229A404A
S11386904B469B5D13435A46935540F200130135F4
S11386A09D422CD0009B9847029B9847C021890586
S11386B0A0470723FC212B40071C890550469846F8
S11386C0A047019B011C381CEE1098470028DCD100
S11386D049F23503391CC0F200035046984700287C
S11386E000D191E0434601229A404B469B5D0135FF
S11386F093435A46935540F200139D42D2D140F21F
S11387000053039A4C46D558132D00D993E040F2F8
S1138710200A9446A801231D82449846D4440600A6
S11387200423614694465B441218243604306044A2
S113873066449C4600231F0084425F410096B9466C
S113874046461F00B2425F414E46374301971E0022
S11387505F4687425E41674630001E00BA425E4172
S11387603043019E032730405E46264337407E4215
S11387707E41370007401800009EB44258411E0055
S11387808146404681425E4130004E4606433E42A9
S11387905CD018005E46009FBE4258416646B14216
S11387A05B410343DBB2002B50D0236813605B466C
S11387B01B680B60636853605B465B684B60A3682F
S11387C093605B469B688B60E368D3605B46DB68C1
S11387D0CB60236913615B461B690B616369536159
S11387E05B465B694B61A36993615B469B698B61E3
S11387F0E369D3615B46DB69CB6140F20053039AC2
S11388000135D55058460FE04B460122995D434649
S11388109A40D3B25A460B4393553EE7AD01039BAE
S113882028009C462030604405B03CBC90469946E4
S1138830A246AB46F0BD49F6D84048F2A133C0F297
S11388400000C0F2000398475846EDE7039B5E46DC
S1138850534419000023E05CD054F05C01330870E9
S11388600131202BF7D1B346C7E7C046F0B5DE4649
S113887057464E46454649F68D14E0B59FB006006E
S1138880C0F200040D1C02920021202206A80593C8
S1138890A047202200210EA8A0472022002116A8CC
S11388A0A0470720012330408340F20806A98B54D7
S11388B048F20D6442F24C220EABC2F20002291CB3
S11388C006A8C0F20004A04749F60D03C0F2000355
S11388D0049349F2795349F6592B49F2350AC0F207
S11388E0000301900026C0F2000B0393C0F2000ABB
S11388F00DE041460598D04708BB402206AB9B18C3
S1138900A543DD5540F2001301369E4224D0D847DA
S1138910049B9847C021039B89059847019BF71046
S1138920DD5D0723012433409C40E4B223008046EC
S11389302B40011C02989946D0470028D9D04B46B9
S1138940002BDAD0402206AB9B182C43DC5540F2B6
S1138950001301369E42DAD142F20021C2F2000134
S11389600A0016AB13CB13C213CB13C203CB03C23F
S11389701FB03CBC90469946A246AB46F0BDC046EB
S1138980F0B5C64642F24C2047F6094300B540F222
S1138990045182B0C2F20000C0F2000348F2315424
S11389A09847C0F20004A0473C28FCD1A047702897
S11389B0F9D1A0473E28F6D142F20023C2F20003C7
S11389C01A6A5E6A90469F6AA0473C28FCD1A04779
S11389D07028F9D1A0473E28F6D148F25D5303210F
S11389E06846C0F20003984748F2A13449F6F840BB
S11389F0C0F20004C0F20000A0476A460023D3700E
S1138A0049F6ED036846C0F20003984748F2C933BB
S1138A100500FF20C0F2000328409847E8B248F65A
S1138A206D053B1C321C4146C0F20005A84749F6BF
S1138A30FC40C0F20000A04742F24C2047F611432C
S1138A4040F20451C2F20000C0F20003984702B0A1
S1138A5004BC9046F0BDC046F0B5DE4657464E46CF
S1138A6045460023E0B5A7B0049342F20F7304997E
S1138A7042F20F72994205DC049B01330493049B78
S1138A809342F9DD49F68D130DAD64220021C0F245
S1138A900003280042F20027984740F2200848F2D9
S1138AA05D53C2F2000739212800C0F20003B84424
S1138AB09847434605AE49F6105149F65D14736074
S1138AC005230522C0F200012800C0F20004F7606B
S1138AD03377B561A047002800D147E149F6A45196
S1138AE00522C0F200012800A047002800D026E19A
S1138AF049F6AC5048F2A134C0F20000C0F20004C0
S1138B00A04704AB9C4629226244537811781B0287
S1138B1019439378D2781B040B4312061A432D236E
S1138B20634400921A0019785B7834201B021943BD
S1138B309378D2781B040B4312061A4331216346FF
S1138B405B1801921A78634601315B181B78013176
S1138B501B021A4363465B1861461B7809181B0401
S1138B6013430A7849F6C0501206110019433523FD
S1138B7063441A00894619785B78C0F200001B022E
S1138B8019439378D2781B0412060B43110019433E
S1138B90392363441A00029119785B7848F2C93B7F
S1138BA01B0219439378D2781B0412060B4311005D
S1138BB019430391A047280048F2A5553921C0F272
S1138BC00005A84749F63450C0F20000A047C0F29F
S1138BD0000B0098D84749F64050C0F20000A04767
S1138BE00198D84749F6CC50C0F20000A04749F29A
S1138BF0795A44F20001484649F2D179C4F21C6121
S1138C00C0F2000AD047C0F20009C847D84749F665
S1138C10D450C0F20000A04744F200010298C4F20C
S1138C201C61D047C847D84749F6DC50C0F2000061
S1138C30A04744F200010398C4F21C61D047C8471E
S1138C40D84749F64850C0F20000A047009B04A949
S1138C5073610C238C46B360143333611133634462
S1138C60190049F67B13019A40463260C0F20003B2
S1138C700C22984704AA94463D236344190098465D
S1138C8047F601433000C0F20003984749F65C50B0
S1138C90C0F20000A047F3681868D84749F6685046
S1138CA0C0F20000A04742F65813F96AC2F200036A
S1138CB01039994200D81EE11A78D92A08D05A7876
S1138CC0D92A05D09A78D92A02D0DA78D92A02D1B9
S1138CD001338B42F0D143F65816C2F20006F61A5D
S1138CE049F67450C0F20000A0473000D84749F656
S1138CF08050C0F20000A0470A26474649F68C502F
S1138D00C0F20000A04742F200202021C2F200007D
S1138D10A84749F6FC50C0F20000A04720213800C3
S1138D20A84749F69450013EC0F20000A047002E27
S1138D30E4D149F69C50C0F20000A0470FE049F688
S1138D40E45048F2A134C0F20000C0F20004A0478D
S1138D502800A04749F65060C0F20000A04727B0A1
S1138D603CBC90469946A246AB46F0BD49F6185025
S1138D7048F2A134C0F20000C0F20004A04704ABE2
S1138D809C4629226244537811781B021943937834
S1138D90D2781B040B4312061A4392462D2249F63D
S1138DA028506244537811781B0219439378D2787F
S1138DB01B040B4312061A43C0F200009146A0475D
S1138DC0280048F2A5553921C0F20005A84749F604
S1138DD0345048F2C93BC0F20000A047C0F2000B77
S1138DE05046D84749F64050C0F20000A0474846D4
S1138DF0D84749F64850C0F20000A0475346736173
S1138E004B4605930C23B3601433336104AB9C4687
S1138E10312149F67B1361440C224046C0F2000321
S1138E20984704AA94463D2363441900984647F69C
S1138E3001433000C0F20003984749F65C50C0F289
S1138E400000A047F3681868D84749F66850C0F294
S1138E500000A04742F65813F96AC2F20003103921
S1138E6099424BD91A78D92A08D05A78D92A05D0E8
S1138E709A78D92A02D0DA78D92A36D1013399429C
S1138E80F0D143F65816C2F20006761A49F6745029
S1138E90C0F20000A0473000D84749F68050C0F225
S1138EA00000A0470A26474649F68C50C0F200004D
S1138EB0A04742F200202021C2F20000A84749F650
S1138EC0FC50C0F20000A04720213800A84749F612
S1138ED09450013EC0F20000A047002EE4D149F6B0
S1138EE09C50C0F20000A04739E743F65816C2F27E
S1138EF00006F61ACAE741F20006F1E641F200065E
S1138F00C4E7C04670B56B4642F20022C2F20002CA
S1138F10D362190042F657121039C2F2000291428C
S1138F200CD94DF29962CDF6FF729A180F3B981A3C
S1138F3049F68D13D921C0F20003984748F2F11382
S1138F4040F2F410C0F200039847E12048F29D2358
S1138F504002C0F20003984748F2A13549F6006088
S1138F60C0F20005C0F20000A84749F61860C0F23C
S1138F700000A84748F2C93448F2CD50C0F20004BA
S1138F80C0F20000A04749F62C60C0F20000A847D8
S1138F9048F68110C0F20000A04749F6486048F640
S1138FA05926C0F2000048F23154A847C0F2000626
S1138FB0C0F20004B047A0474F28FCD1A047412885
S1138FC0F9D1A0474B28F6D149F65460C0F200000D
S1138FD0A847EFE78446081C6146FFE71FB500F089
S1138FE08DFA002801D40021C8421FBD10B500F03D
S1138FF025FA4042013010BD10B500F07FFA002878
S113900001DB002010BD012010BDC04610B500F0EA
S113901075FA002801DD002010BD012010BDC046F6
S113902010B500F031FA002801DC002010BD012049
S113903010BDC04610B500F027FA002801DA002060
S113904010BD012010BDC046002B11D1002A0FD144
S1139050002900D1002802D00021C943081C07B40C
S1139060024802A14018029003BDC0464108000016
S113907003B4684601B5029800F006F8019B9E46C9
S113908002B00CBC7047C046F0B557464546DE46B4
S11390904E469846E0B583B017000192160042464A
S11390A005000C0083468A46002A4CD18F4200D822
S11390B078E0380000F0FCFB50B120232A001B1A92
S11390C0DA40844013008540234386409A46AB46E9
S11390D0370CBAFBF7F2390053464FF6FF7451438D
S11390E01500591A5B463440654309041B0C0B43B5
S11390F09D4209D99B19511E9E4200D97CE19D4293
S113910000D879E1023A9B19591BB1FBF7F35C4390
S11391105F432500C91B4FF6FF745F4609043C40BA
S11391200C43A54200D95CE1120413430022641BE2
S113913001920C9A2AB1C4400C9A0C981460002233
S1139140426018000AE0884510D90C9B002B00D11E
S113915070E118605960002300200193019903B065
S11391603CBC90469946A246AB46F0BD404600F052
S11391709FFB0190002800D0A3E0A04502D3AF429A
S113918000D951E1EF1B4346BD42AD41E41A6D42A3
S1139190631B9A4601200C9B002BDFD052461F60B4
S11391A05A60DBE717B90136B6FBF7F6300000F07A
S11391B07FFBB8BB4FF6FF770123A51B3740340C68
S11391C00193B5FBF4F33A005A43944622005A4300
S11391D0AA1A5D4612042D0C2A43944507D9921904
S11391E05D1E964202D8944500D920E12B006546C5
S11391F0521BB2FBF4F56C435946121B4FF6FF7435
S11392006F4312040C401443A74207D9A4196A1EE1
S1139210A64202D8A74200D903E115001B04E41BAF
S11392202B4386E720212A002300091A8640844024
S1139230CA40CB402243340CB3FBF4F185404FF6D3
S1139240FF77AB460D0037407D43AC4625004D43C8
S11392505D1B2D04130C91462B439C4509D99B1986
S11392604D1E9E4200D9DAE09C4500D8D7E0023971
S11392709B1962469B1AB3FBF4FC62464FF6FF78D7
S113928062439B1A1B049A4642464B4665461A4063
S113929053467D4313439D420DD962469B19013ABF
S11392A09E4200D9B7E09D4200D8B4E00222524267
S11392B090469B19C4445D1B6346090419430191FC
S11392C07FE7202301983A001B1A9C4643466146D7
S11392D08340CA4013432A002600CA408440CE403B
S11392E022431C0C87408540B6FBF4F091464FF6B0
S11392F0FF7201001A405143884621004143761A07
S113930049463604090C0E43B04509D9411EF618E6
S11393108A46B34200D980E0B0457ED90238F618B7
S11393204146761AB6FBF4F841464C434A43361B91
S113933049464FF6FF7436040C403443A2420BD91D
S11393404146E4184E1EA34263D8A24261D90221C9
S113935049428946E418C84441464FF6FF76000462
S11393600843310001408A46010C884651463E407C
S1139370714389464146A21A3C0C4E4361438846D8
S113938051464C434946090C8A46A4195444A64202
S113939003D9802149028A46D044260C46444FF61C
S11393A0FF7821048A464C4641462140894654466A
S11393B04C44B24224D321D00C9B83B12C1BA54234
S11393C0AD41921B6D42521B130061468B400199C3
S11393D0CC40CA401C430C9B1C605A600023019380
S11393E0BCE6A419591EA64204D8A54202D9023BE0
S11393F0A41999E60B0097E60A0085E6A542DBD29C
S1139400E71BF31ABC42B641764201389E1B3C006E
S1139410D2E7B046A0E794464DE7504680E72900DE
S113942027E7023DA419F9E600202F00B3E6023B2A
S11394309219DCE60023002001938FE670B5420008
S113944045024E024C00C30F6D0A120E760A240E1A
S1139450C90F0120FF2A06D0FF2C03D0A24201D15C
S1139460B54206D070BD002DFCD1FF2CFAD1002EE0
S1139470F8D18B4206D00120002AF3D12800451EE2
S1139480A841EFE70020EDE7F0B5420045024C02A9
S1139490C30F48006D0A120E640A000EC90FFF2A9A
S11394A01DD0FF2810D03AB96E426E41F6B280B991
S11394B07CB900203DB103E000B90CB18B4211D05E
S11394C0012158420843F0BD002CECD00220404258
S11394D0F9E7002EF2D0012001390843F3E7002D0B
S11394E0DFD0F3E78242EBDC04DBA542E8D80020BE
S11394F0A542E8D20121581E0843E4E7F0B5420032
S11395004D024C004602760A120EC30F6D0A240E59
S1139510C90FFF2A16D0FF2C10D042B970427041F7
S1139520C0B29CB120B1012001390843F0BD9CB107
S1139530994214D001205B421843F7E70220002D22
S1139540F4D1EAE70220002EF0D1E4E7002DE9D1BE
S11395500020002EEAD0EDE7002DE9D1EAE7A2428F
S113956006DCE0DBAE4203D80020AE42DBD3DDE70D
S1139570012049420843D9E7F0B546464F46D6464E
S11395804302C0B546005B0A360E88469946C40FAE
S1139590002E51D0FF2E23D08020DB00C0041843BE
S11395A08146002740F2000A7F3E434658005D0290
S11395B0000EDB0F6D0A984608B3FF2842D0EB007B
S11395C08025ED041D4300237F3841463618614051
S11395D0701C1F430F2F69D87B4ABF00D25997468E
S11395E0002B48D1434658005D02000EDB0F0827CC
S11395F0FF2640F2020A6D0A98460028DDD1002DAC
S11396003ED100200123E0E74146022B20D0032B6A
S113961000D1CFE0012B00D0ADE0002200201940A2
S1139620CCB24002D205400AE407104320431CBCDC
S113963090469946A246F0BD7BB90427002640F225
S1139640010AB2E7FF200223002DBED00323BCE7AA
S11396500124FF220C400020E3E7180000F028F961
S11396604A46431F76269A4076429146361A002788
S113967040F2000A99E70C27FF2640F2030A94E718
S1139680280000F015F9431F9D4076235B42181A09
S113969000239AE780200024C003FF22C1E74D463F
S11396A05346B2E74D4621005346AEE74B461B0CEA
S11396B098464A464FF6FF731A402B401C00544309
S11396C02F0CA446454644467D43574362466343B4
S11396D0120CFF18D219934203D980235B029846D7
S11396E0454467464FF6FF7314043B40E418A30156
S11396F05F1EBB41120CA40E55191C43AD0125433A
S11397002B0104D5012306006A081D4015433200CD
S11397107F32002A27DD6B0704D00F232B40042B54
S113972000D004352B0103D53200284B80321D4074
S1139730FE2A8DDC0124A801400AD2B20C4070E755
S113974080204B46C003034208D0054205D128437C
S11397504002400A4446FF2263E74B461843400256
S1139760400AFF225DE70124A31A1B2B05DD0C40F0
S11397700022002055E70600C9E72A002020DA402D
S1139780C31A9D402B005D1EAB4113435A0704D0FE
S11397900F221A40042A00D004335A0104D50124AC
S11397A001220C4000203CE701249B01580A0C4094
S11397B0002236E780200124C00328434002400AE7
S11397C00C40FF222DE7C0465C9E0000FFFFFFF720
S11397D041024300C20F490A1B0E00207E2B0CDD00
S11397E09D2B0BDC802000040143952B09DC962083
S11397F0C31AD940484202B908007047024BD01836
S1139800FBE7963B9940F5E7FFFFFF7F70B5002823
S113981030D0C317C4185C40C50F200000F048F8CE
S11398209E231B1A962B0DDC9622D21A94402A00F2
S11398306402640ADBB26402DB05600AD2071843DF
S1139840104370BD992B19DC9922D21A002A29DD04
S113985094402200144C1440510704D00F210A40B4
S1139860042A00D00434620113D4A401640ADBB2D4
S11398702A00E0E7002200230024DCE7052221007F
S1139880121AD140B922D21A9440621E94410C4358
S1139890DAE7054B2A001C409F23A4011B1A640A23
S11398A0DBB2C8E72200D5E7FFFFFFFB7047C046E5
S11398B01C2101231B04984201D3000C10391B0AFC
S11398C0984201D3000A08391B09984201D30009C0
S11398D0043902A2105C40187047C0460403020217
S11398E001010101000000000000000010B50A227F
S11398F0002100F079F910BD70B500250E4B0F4C16
S1139900E41AA410A54209D1002500F07DFB0C4CFB
S11399100C4BE41AA410A54207D170BD064AAB0053
S11399209B181B6898470135ECE7064AAB009B1867
S11399301B6898470135EEE714A0000014A000004E
S113994018A0000014A0000010B5034B0100186813
S113995000F024F810BDC0460020002030B50024DB
S1139960A24201D1002005E0035D651C0C5DA34209
S113997001D0181B30BD2C00F2E7002310B59A4229
S113998000D110BDCC5CC4540133F8E70300821845
S1139990934200D1704719700133F9E7032370B57E
S11399A0CD1C9D43083506000C2D1CD20C25A94264
S11399B01BD8300000F03DF9254A14682100C1B9D4
S11399C0244C23681BB9300000F080F82060290083
S11399D0300000F07BF8431C2DD10C2330003360A1
S11399E000F028F903E0002DE1DA0C2333600020B5
S11399F070BD0B685B1B1BD40B2B03D90B60CC18FD
S1139A00256003E08C420FD163681360300000F0DE
S1139A1011F9200007220B30231D9043C31A002B99
S1139A20E6D05A42E250E3E74B6863600C00EDE78E
S1139A300C004968C3E70323C41C9C43A042DFD045
S1139A40211A300000F042F8431CD9D1C5E7C046C2
S1139A503422002038220020164B10B51C68A36B5A
S1139A60BBB91820FFF770FF43F20E33A0630380E5
S1139A70114B0122438041F2342383800F4BC38076
S1139A800F4B038105234381063383810023026145
S1139A904361A46B0B4A206961690B4B00F0D8F851
S1139AA00122002380185941206161614800400867
S1139AB010BDC04600200020CDABFFFF6DE6FFFFC8
S1139AC0ECDEFFFF2D7F954C2DF45158002370B52B
S1139AD0054C05000800236000F0E8F8431C02D19F
S1139AE0236803B12B6070BD50270020F0B51F0020
S1139AF00E0087B00590039102920C98347800F020
S1139B0085F8082200194378751C13405BB92D2C85
S1139B100BD101332C780193B51C67B1102F14D1EC
S1139B20302C0AD011E02E00E7E701932B2CF4D15E
S1139B302C78B51CF1E7302C2BD120222B789343C1
S1139B40582B4AD110276C780235019B254A991865
S1139B50B1FBF7F63B007343CB1A049301230022B5
S1139B605B4210009C462300303B092B13D81C0099
S1139B70A7421CDD531C09D06246864206D302D19B
S1139B80049BA34202DB0122784320182C78013580
S1139B90E9E70A27D9E72300413B192B01D8373CD1
S1139BA0E6E72300613B192B01D8573CE0E7531C3F
S1139BB007D12223059A08001360029B4BB907B012
S1139BC0F0BD019B03B14042029B002BF7D0039BE5
S1139BD002B16B1E029A1360F1E73024002FB4D156
S1139BE00837B2E7FFFFFF7F37B51300054A0500CA
S1139BF01068046A04B9044C0A0000942900FFF7B1
S1139C0075FF3EBD0020002064200020EC30006879
S1139C10704782B001B901A910002AB133B1137899
S1139C200B601078431E984102B0704702204042F6
S1139C30FAE7704770470B0021B1FF2A04D98A2341
S1139C4003608B3B180070470A700123FAE7000099
S1139C50F0B54FF6FF75CE4647462C0015409946A1
S1139C602B000440160C80B5070C63437D437743F7
S1139C7066431C0C7619A4199C46A54203D980237B
S1139C805B0298464744250CEF1963464FF6FF756F
S1139C901D404B4651434343240464195918C919C0
S1139CA020000CBC90469946F0BDC04642F23C23CD
S1139CB0C2F200031A681AB1101818601000704735
S1139CC042F25872C2F20002F6E7C046256900006B
S1139CD025733A20000000004D61702069732066EE
S1139CE0756C6C2E2043616E6E6F7420696E7365A3
S1139CF072742E0A000000005B535D005B455D0A30
S1139D000000000030780000252E327800000000AA
S1139D105B7374705D0000005B546573745D205365
S1139D20657475703A20000072657475726E696EA0
S1139D30672000002C20636F756E7465723D00000F
S1139D402C2066756E633D00203D20646F6E652097
S1139D50205B2F546573745D200A00005B535374B9
S1139D6061636B5D200000005B53537461636B5D42
S1139D700A0000005B4E53537461636B5D203D0029
S1139D805B4E53537461636B5D0A00005B4F535D1C
S1139D90000000005B4F455D0A0000005B4F7665E4
S1139DA0725D0A005B636C745D0000005B54657354
S1139DB0745D20436F6C6C6563743A20000000008E
S1139DC052657475726E696E672000002C20663DC2
S1139DD0000000002C20703D000000002C20713D8C
S1139DE0000000006661696C656420746F20706116
S1139DF072736520636F6D6D616E643A20000000BC
S1139E002041206C6F74206F662068656C6C6F6FE6
S1139E106F6F6F6F20000000777261707065725F02
S1139E20696E6974422061743A200000207772617F
S1139E30707065725F4C44505F656E65726779201F
S1139E4061743A20000000005B53746172745D20F9
S1139E500A0000005B4E6578745D0A00AC96000051
S1139E600A9600000A960000089600009E960000DC
S1139E709E96000094960000089600009E960000AE
S1139E80949600009E96000008960000A496000098
S1139E90A4960000A4960000409700000000000073
S1139EA000000000000000000000000000000000AE
S1139EB0000000000000000000000000000000009E
S1139EC0000000000000000000000000000000008E
S1139ED0000000000000000000000000000000007E
S1139EE0000000000000000000000000000000006E
S1139EF00000000000000000000000004300504F7C
S1139F00534958002E00002020202020202020200B
S1139F102828282828202020202020202020202015
S1139F202020202020202088101010101010101045
S1139F301010101010101004040404040404040489
S1139F400410101010101010414141414141010111
S1139F5001010101010101010101010101010101ED
S1139F6001011010101010104242424242420202FB
S1139F7002020202020202020202020202020202BD
S1139F800202101010102000000000000000000069
S1139F9000000000000000000000000000000000BD
S1139FA000000000000000000000000000000000AD
S1139FB0000000000000000000000000000000009D
S1139FC0000000000000000000000000000000008D
S1139FD0000000000000000000000000000000007D
S1139FE0000000000000000000000000000000006D
S1139FF0000000000000000000000000000000005D
S113A0000000000000000000F8B5C046F8BC08BC21
S113A0109E46704721810000F8B5C046F8BC08BCD4
S10BA0209E467047F580000024
S10BA02860F0FF7F010000005D
S113A0300420002000000000BC9E0000DC9E000004
S113A0409C9E0000000000000000000000000000D2
S113A05000000000000000000000000000000000FC
S113A06000000000000000000000000000000000EC
S113A07000000000000000000000000000000000DC
S113A08000000000000000000000000000000000CC
S113A0900000000043000000000000000000000079
S113A0A000000000000000000000000000000000AC
S113A0B00000000043000000000000000000000059
S113A0C0000000000000000000000000000000008C
S113A0D00000000043000000000000000000000039
S113A0E0000000000000000000000000000000006C
S113A0F00000000043000000000000000000000019
S113A100000000000000000000000000000000004B
S113A11000000000430000000000000000000000F8
S113A120000000000000000000000000000000002B
S113A13000000000430000000000000000000000D8
S113A140000000000000000000000000000000000B
S113A15000000000430000000000000000000000B8
S113A16000000000000000000000000000000000EB
S113A17000000000379C0000139C00000000000059
S113A180069F0000049F0000059F0000059F00003B
S113A190059F0000059F0000059F0000059F00002B
S113A1A0059F0000059F0000059F0000FFFFFFFFC3
S113A1B0FFFFFFFFFFFFFFFFFFFF00000100415310
S113A1C043494900000000000000000000000000B6
S113A1D000000000000000000000000000004153E7
S113A1E04349490000000000000000000000000096
S113A1F0000000000000000000000000000000005B
S90380007C
