S01100005365637572654170702E737265638B
S21400000060120020190D0000110D0000150D0000F3
S21400001000000000000000000000000000000000DB
S214000020000000000000000000000000110D0000AD
S2140000300000000000000000110D0000110D00007F
S214000040110D0000110D0000110D0000110D000033
S214000050110D0000110D0000110D0000110D000023
S214000060110D0000110D0000110D0000110D000013
S214000070110D0000110D0000110D0000110D000003
S214000080110D0000110D0000110D0000110D0000F3
S214000090110D0000110D0000110D0000110D0000E3
S2140000A0110D0000110D0000110D0000110D0000D3
S2140000B0110D0000110D0000110D0000110D0000C3
S2140000C0110D0000110D0000110D0000110D0000B3
S2140000D0110D0000110D0000110D0000110D0000A3
S2140000E0110D0000110D0000110D0000110D000093
S2140000F0110D000040F6896310B5C0F20003984762
S2140001000020010002000300844610BC01BC8646A5
S21400011080F300880447C04640F62D6310B5C0F251
S214000120000398470020010002000300844610BC2C
S21400013001BC864680F300880447C04640F6DD636F
S21400014010B5C0F20003984700200100020003002B
S214000150844610BC01BC864680F300880447C0462F
S21400016010B540F22404C2F20004237863B940F2CA
S2140001700003C0F200032BB14CF27000C0F2800006
S21400018000E000BF0123237010BDC04640F200030C
S214000190C0F2000310B54BB140F228014CF27000DB
S2140001A0C2F20001C0F2800000E000BF4CF2700016
S2140001B0C0F28000036803B910BD40F20003C0F22D
S2140001C00003002BF8D09847F6E7C04670B541F21A
S2140001D06D150400C0F20005442200212030A84717
S2140001E04EF26763C6F6092323664AF68563CBF6A6
S2140001F0673363664FF27233C3F66E43A3664FF2FD
S2140002003A53CAF24F53E36645F27F23C5F20E1304
S214000210236746F68C03C9F6053363674DF6AB13C2
S214000220C1F68373A3674CF619532000C5F6E03376
S214000230E367082200218030A84770BDF0B5574616
S2140002404E464546DE46D3009C46E0B5E84CFF23C6
S214000250A544069262461A40039263466A461371A4
S214000260137902279A46030006250026072440F243
S214000270FF09059180330190072C00D1BAE1022CCA
S21400028000DDF4E10021DA795218DA71013E013D11
S214000290013B013F013CEFD2019B9B46069B002B96
S2140002A040D086235A46D25C853B13405946872267
S2140002B003263F258A5C0698D2085B01059C9B189E
S2140002C01B1A21789E431D40F30099400B00AA108C
S2140002D092005A44116A0B4313620200631C059392
S2140002E0D34301386C1C5D1BC8B15E46AC4605990D
S2140002F0402C20D06246032512180F782A40D200E0
S21400030097403A00A3109B00F3181D6A01382A4351
S2140003101A62013101340028EAD1B3460591402C17
S21400032000D161E140F244239D443CBC904699468E
S214000330A246AB46F0BDB3460591069041F27C114D
S21400034041F25B1340F20012C0F20001C0F200035B
S21400035010A8984700225B461E6A1A625B6A50968F
S21400036051935B465A629B6A594652935B469A6221
S214000370DB6A102753935B46DA621B6B40F2070872
S21400038054935B461A635B6B40F2120C55935B46C4
S2140003905A639B6B40F2110A56935B469A63DB6B7B
S2140003A051AD57935B46DA631B6C58935B461A64F1
S2140003B05B6C59935B465A649B6C5A935B469A6493
S2140003C0DB6C01975B935B46DA641B6D5C935B4664
S2140003D01A655B6D5D935B469C6D5A659A65DB6D31
S2140003E05E945F93CA652A68404611006746C1411D
S2140003F01000F841574641402000F8411327814637
S2140004002000F8414F46A40A78404440286AA419C0
S21400041081466E68D00841404C446418404631001E
S2140004206746C1413000F841574641401800F84140
S214000430132781461800F8414F469B0A78404340F0
S214000440686AEC6381464B449B18F2085140019A57
S2140004505B1802322B64019208353E2AC3D180AB6A
S21400046099465B4640F2070840F2120C1127132605
S2140004707EAD01936A68414613001400CB41614685
S214000480CC41A96B5C4008000B00F041FB41584092
S2140004902B68D2089B466B6A62409A46D3445B46FA
S2140004A09A188B0A4340D3182B640435A945E1D12A
S2140004B0019B9B461B6E1E0007935B465B6E1A00F5
S2140004C008935B469B6E190009935B46DB6E18002B
S2140004D00A935B461B6F1D000B935B465B6F1C000D
S2140004E00C935B469B6FA2461F000D935B46DB6F2B
S2140004F004000E939C465B46B9460F9300271000F7
S214000500A0460B0005E0D1460300AA4630000D00C9
S21400051016000D2234000221D4413200CA412900BF
S21400052054400B220194D14106242A00E241514056
S21400053010AAD2590291039250AAD25913340492A7
S2140005400499039A8B462900E141029C5A44614073
S2140005505218514629408B4649465C46A94361409D
S214000560521819001C0041400440314061408B463F
S21400057034001621CC412100019C62444C40414687
S2140005805C445118121940F2001404379846CC46C1
S214000590A742B8D10C0019000F9B80469B46079BCC
S2140005A010009C465B4660441866089B5A469C466C
S2140005B05B4666445E66099B434493660A9B5B18EB
S2140005C0D3660B9B9C460C9B64449C460D9B6544E3
S2140005D0534493670E9B14674B44D367069B55673B
S2140005E0002B00D05DE69DE600230693A6E6C046F7
S2140005F0BCFDFFFF6046DA79039902905118FF2987
S21400060033DD019A521980321178481C1070FF2988
S21400061027D1022C25D45A79511C5971FF2A20D192
S214000620032C1ED41A79511C1971FF2A19D1042CD7
S21400063017D4DA78511CD970FF2A12D17A1C10D040
S2140006409A78511C9970FF2A0BD1062C09D45A7837
S214000650511C5970FF2A04D1721C02D01A78511C02
S21400066019706946DA79097A0EE651460CE6E20018
S214000670524206993532D140484608408346DA79D8
S214000680029193445846FF2801DD681CB9D1C9B2CF
S214000690FAE5C04641F26D1370B592B0C0F20003A1
S2140006A004000E0015000021482268469847802363
S2140006B06A461370002D30D140F23D26C0F2000687
S2140006C08623E55C853B2B4087220225EB1AA55C3A
S2140006D05B01ED085D1B082D00DC4035280021007D
S2140006E041F25B130838C0F20003082280316844E8
S2140006F0984720002A006946B047002303200100DF
S2140007009A101832920099431259C900CA40E2540E
S2140007100133202BF3D112B070BD310040F23D26DC
S2140007202A002000C0F20006B047C9E7F0B55746D9
S2140007304E46DE464546E0B5040093B00F00160070
S214000740402A00DDADE0002A00DCA6E140F2200AE7
S214000750002382440A1D50461900904259410A005F
S214000760210024318F425B41134303223A4011009B
S2140007704A424A411A4200D182E1062E00D87FE161
S21400078043F236623968331F9B08C3F23662013380
S214000790514098002162012B4CD07968514061622B
S2140007A0022B47D0B9685140A162032B42D0F968AA
S2140007B05140E162042B3DD0396951402163052B3D
S2140007C038D079694A406263062B33D043F23662EA
S2140007D0B969C3F236625140A163072B2AD0F96982
S2140007E05140E163082B25D0396A51402164092B1A
S2140007F020D0796A514061640A2B1BD0B96A5140F7
S214000800A1640B2B16D0F96A5140E1640C2B11D071
S214000810396B514021650D2B0CD0796B51406165C9
S2140008200E2B07D0B96B5140A165102B02D1FB6B84
S2140008305A40E265B04215D036213A5C23184A4049
S21400084020331A70421C96420CDDA318BA5C203383
S2140008504A4002301A70864204DD3B5C2218203281
S21400086059401170402E00D11CE101223F2E01DCC0
S2140008704022921B300041F26D15203020183621A0
S214000880C0F20005A84740F2600B40F2800940F233
S214000890E00840F23D26A344A144A044C0F200066E
S2140008A0A7E040F2800940F2600B41F26D158144EA
S2140008B0C0F200058344442200214846A8474EF271
S2140008C06763C022C6F60923A3504AF6856304323E
S2140008D0CBF66733A3504FF272330432C3F66E433F
S2140008E0A3504FF23A530432CAF24F53A35045F284
S2140008F07F230432C5F20E13A35046F68C0304324F
S214000900C9F60533A3504DF6AB130432C1F6837314
S214000910A35040F2E0084CF619530432C5F6E03313
S214000920A044A3500021D43A4046A84748220021BC
S2140009306846A84780236A461370320040F23D2678
S21400094039005846C0F20006B0472300E6331A784E
S21400095001231A4001339B1A2200E73212785B010A
S214000960D2089B1A9A46082B00DC85E0504641F2D6
S2140009705B13083808224146C0F2000368449847D3
S214000980524658466946B047002203200700931097
S21400099018339B00E31897431B6E1100FF00FB40C3
S2140009A0603101326354202AF0D143F236632000CE
S2140009B0226EC3F236635A402262626E36215A4075
S2140009C06262A26E40305A40A262E26E40F2200A94
S2140009D05A40E262226FA2445A402263626F5A4033
S2140009E06263A26F5A40A263E26F5340E363202221
S2140009F0A847442200214846A8474EF26763C02213
S214000A00C6F60923A3504AF685630432CBF667334D
S214000A10A3504FF272330432C3F66E43A3504FF224
S214000A203A530432CAF24F53A35045F27F2304329E
S214000A30C5F20E13A35046F68C030432C9F60533EE
S214000A40A3504DF6AB130432C1F68373A3504CF695
S214000A5019530432C5F6E033A3500021D43A404679
S214000A60A847402251465846B04713B03CBC904673
S214000A709946A246AB46F0BD40F2400CE24475E70C
S214000A80300053463625203020183A7801376A4021
S214000A901A7001339842F8D1E4E640F2200A0026A4
S214000AA08244E5E641F26D15C0F20005EBE6C0466D
S214000AB0F0B54546DE4657464E4640F26008E0B57D
S214000AC041F26D1795B004000E00150080444822D0
S214000AD0002102A8C0F20007B847802302AA1370BC
S214000AE0002D00D00BE140F23D26C0F2000640F299
S214000AF0E60BA3445B4640F2E70C1D780123A444B2
S214000B0062462B4002250192EB1A15785B01ED0830
S214000B105D1B082D00DC403502AB40F2E00A2800E1
S214000B209C4641F25B19A2440838604408225146AC
S214000B30C0F20009C8472A00404602A9B047002272
S214000B4003200500931018339B00E31895431B6E93
S214000B501100ED00EB40603101326354202AF0D1E1
S214000B60236E226A2360636E20006360A36E0021FA
S214000B70A360E36E8030E360236F2361636F63617D
S214000B80A36FA361E36FE36146F66A23C6F66A23A2
S214000B905A402262626A5A406262A26A5A40A2625E
S214000BA0E26A5A40E262226B5A402263626B5A4003
S214000BB06263A26B5A40A263E26B5A40E263226C05
S214000BC05A402264626C5A406264A26C5A40A26424
S214000BD0E26C5A40E264226D5A402265626D5A40C9
S214000BE06265A26D5A40A265E26D5340E3654422F9
S214000BF0B8474EF26763C022C6F60923A3504AF6EA
S214000C0085630432CBF66733A3504FF27233043257
S214000C10C3F66E43A3504FF23A530432CAF24F5310
S214000C20A35045F27F230432C5F20E13A35046F6B6
S214000C308C030432C9F60533A3504DF6AB130432C9
S214000C40C1F68373A3504CF619530432C5F6E0334D
S214000C50A3500021D43A5046B84721004022203104
S214000C604046B0474822002102A8B847802302AA7F
S214000C701370210020224046B0475B461D780123B2
S214000C802B400225019AEB1A15785B01ED085D1BD7
S214000C90082D00DC403502AB28009C46083860442E
S214000CA008225146C8472A0002A94046B0470325F5
S214000CB000222900931018339B00E31891431B6E03
S214000CC01000C900CB40603001322354202AF0D1F6
S214000CD0236E2360636E6360A36EA360E36EE360BF
S214000CE0236F2361636F6361A36FA361E36FE361A7
S214000CF015B03CBC90469946A246AB46F0BD3100C6
S214000D0040F23D262A004046C0F20006B047EEE616
S214000D10FEE7C046FEE7C04641F29C2140F20000D6
S214000D20C0F20001C2F2000010B581420FD040F2BE
S214000D302403C2F20003984209D2C243D21841F2F9
S214000D405B13920801329200C0F20003984740F20B
S214000D50240040F25C03C2F20000C2F20003984294
S214000D600AD2C243D21841F26D13920801329200A1
S214000D700021C0F20003984740F200037F22C0F231
S214000D80000393434EF60052CEF20002936041F207
S214000D90ED03C0F20003984740F6B953C0F20003D3
S214000DA09847FEE740F2000340F60012C2F2000346
S214000DB0C0F23D021A60704740F6A55310B5C0F267
S214000DC00003984741F200030E22C4F200031A768D
S214000DD043F2002340F2A032C4F20003C0F24332D2
S214000DE0DA6645F200030121C4F200131A6C0A43C6
S214000DF01A644EF2001340F28022CEF20003033152
S214000E00995004310432995048F200031B6883F36A
S214000E10888848F204031C686408640020002100E7
S214000E202200230000F048F9002010BD40F24003E5
S214000E3070B5C2F200031A7D0500A2B00E000020B5
S214000E40012A01D022B070BD5B7D012BFAD140F2A1
S214000E50CD136846C0F20003984740F29563290018
S214000E6068463200C0F20003984740F20402C2F21D
S214000E70000213006C4607CC07C307CC07C301204B
S214000E8006CC06C3DEE7C04640F2CD1330B5A3B0AD
S214000E900400C0F2000368460D00984740F29563D0
S214000EA02A0021006846C0F20003984740F204007A
S214000EB041F23D1320226946C0F20003C2F2000050
S214000EC0984740F24003C0B2424250410122C2F26B
S214000ED0000318759A7523B030BDC046F0B54E466F
S214000EE04546DE465746E0B58846DFB0060068460B
S214000EF040F24005020040F25F23C2F20005103ABD
S214000F00C2F2000328619A420CD94FF69153CDF6EF
S214000F10FF73C21841F26D130F38801AD921C0F240
S214000F20000398477369AA69934247D940F2CD1BDC
S214000F3040F23D2402A8C0F2000BD847C0F20004DD
S214000F40327FB16902A8A04740F2140CB44463464D
S214000F5040F2956A6146042202A80093A047042244
S214000F60310002A8A047C0F2000AB268716802A861
S214000F70D04740F22D7940F2400124AF1022C2F251
S214000F8000013800C0F20009C84740F6B12320220D
S214000F90C0F2000302A93800019398470023404698
S214000FA0FA5CC15C914206D10133202B0DD0C15CA6
S214000FB0FA5C9142F8D0FF22F3681A705FB03CBC2E
S214000FC090469946A246AB46F0BDF2688A33137047
S214000FD073698046AB6101236B75002302A8AB756D
S214000FE02B75D847009902A80422A047310002A812
S214000FF00422A047B268716802A8A04748F200021F
S21400100048F2000102A8A04772B63468640864007B
S214001010200021002200230000F04EF86B7D5BB11B
S214001020AB7D4BB12B7D3BB9AB21F26811706B7574
S214001030AB752B7562B6C1E73269F16802A8D04776
S21400104040F2400138001022C2F20001C84702A94F
S2140010503800019B2022984741F25B13202239007A
S2140010604046C0F20003984700236B75AB752B759E
S21400107062B640F260232969C2F200031039F068B4
S214001080994215D91A78D92A08D05A78D92A05D07B
S2140010909A78D92A02D0DA78D92A02D101338B423B
S2140010A0F0D141F26022C2F20002D31A036085E753
S2140010B041F20003036081E7E0B545464E465746D9
S2140010C0E0B45D4620B4254626462746A046A146FF
S2140010D0A246A346A44684F30088A44720BCAB4699
S2140010E0E0BCBA46B146A846E0BD000070B5002593
S2140010F00E4B0F4CE41AA410A54209D1002500F0AF
S214001100BDF80C4C0C4BE41AA410A54207D170BDD8
S214001110064AAB009B181B6898470135ECE7064A61
S214001120AB009B181B6898470135EEE78812000055
S214001130881200008C1200008812000030B50024CF
S214001140A24201D1002005E0035D651C0C5DA342B0
S21400115001D0181B30BD2C00F2E7002310B59A42D0
S21400116000D110BDCC5CC4540133F8E703008218EC
S214001170934200D1704719700133F9E7982F8A42DD
S21400118091443771CFFBC0B5A5DBB5E95BC25639D4
S214001190F111F159A4823F92D55E1CAB98AA07D8EC
S2140011A0015B8312BE853124C37D0C55745DBE720F
S2140011B0FEB1DE80A706DC9B74F19BC1C1699BE48F
S2140011C08647BEEFC69DC10FCCA10C246F2CE92D1F
S2140011D0AA84744ADCA9B05CDA88F97652513E9843
S2140011E06DC631A8C82703B0C77F59BFF30BE0C64A
S2140011F04791A7D55163CA0667292914850AB727D8
S21400120038211B2EFC6D2C4D130D385354730A6574
S214001210BB0A6A762EC9C281852C7292A1E8BFA24B
S2140012204B661AA8708B4BC2A3516CC719E892D1B3
S214001230240699D685350EF470A06A1016C1A41936
S214001240086C371E4C774827B5BCB034B30C1C3935
S2140012504AAAD84E4FCA9C5BF36F2E68EE828F74F4
S2140012606F63A5781478C8840802C78CFAFFBE900E
S214001270EB6C50A4F7A3F9BEF27871C6F8B5C04679
S214001280F8BC08BC9E4670478D010000F8B5C04605
S210001290F8BC08BC9E46704761010000D8
S21400129C00093D008B3827B7BAE22F976E2A59E91A
S2140012AC957BA8B3B9CEE57A4CF923A4DA970A8FC6
S2080012BC3C1E79C591
S214007C007FE97FE9F8F79ABA7FE97FE9F8F772BA71
S214007C107FE97FE9F8F780BA000000000000000066
S2148040007F438FB0BBF8FFFF802008400100000090
S2148040108400000000000000220000003F438FB0B4
S214804020BB1800008020084001000000A4020000A9
S210804030000000002E00000000000000D1
S20C80C0000000000000000300B0
S21480C010FFFFFFFFFFFFFFFFFFFFFFFFFFFFFFFFAB
S21480C020FFFFFFFFFFFFFFFFFFFFFFFFFFFFFFFF9B
S21480C030FFFFFFFFFFFFFFFFFFFFFFFFFFFFFFFF8B
S21480C050FFFFFFFFFFFFFFFFFFFFFFFFFFFFFFFF6B
S21480C060FFFFFFFFFFFFFFFFFFFFFFFFFFFFFFFF5B
S804000000FB
