S01400004E6F6E5365637572654170702E737265635D
S11380000828002063810000618100006181000074
S1138010000000000000000000000000000000005C
S1138020000000000000000000000000618100006A
S11380300000000000000000618100006181000078
S113804061810000618100006181000061810000A4
S11380506181000061810000618100006181000094
S11380606181000061810000618100006181000084
S11380706181000061810000618100006181000074
S11380806181000061810000618100006181000064
S11380906181000061810000618100006181000054
S11380A06181000061810000618100006181000044
S11380B06181000061810000618100006181000034
S11380C06181000061810000618100006D84000015
S11380D06181000061810000618100006181000014
S11380E06181000061810000618100006181000004
S11380F06181000010B542F2D014C2F2000423786A
S113810063B940F20003C0F200032BB149F63C000E
S1138110C0F2000000E000BF0123237010BDC04680
S113812040F20003C0F2000310B54BB142F2D41187
S113813049F63C00C2F20001C0F2000000E000BFBA
S113814049F63C00C0F20000036803B910BD40F2D8
S11381500003C0F20003002BF8D09847F6E7C046AE
S1138160FEE710B549F63C02C0F2000242F20003F9
S1138170C2F200039A4212D042F20003C2F2000398
S113818049F63C02C0F2000203E0116819600433AE
S1138190043242F2D011C2F200018B42F5D342F212
S11381A0D013C2F2000302E000221A60043342F248
S11381B00422C2F200029342F6D348F20003C0F252
S11381C000037F2293434EF60052CEF200029360E6
S11381D048F68513C0F20003984748F29543C0F26D
S11381E000039847FEE74301181A43009AB241F28C
S11381F00043C4F200239A8300229A82704710B588
S113820040F60003C4F20003DA6920210A43DA616C
S113821041F60043C4F200032031B822995041F6DC
S11382200043C4F20003B8229B585B06F7D541F221
S11382300044C4F2002440F220632360012323732A
S11382400023A382642048F2E713C0F20003984796
S11382502368022213432360102363724EF2001337
S1138260CEF2000306325A6010BD70B503071B1A24
S1138270180142F2004CC0F2F40C6044010C0004FA
S113828048F25154C0F2000442F20042C0F2F40237
S11382900023A04743F20003C4F2000380225204E7
S11382A09A6058241A5D02210A43D2B21A551A5D03
S11382B001263243D2B21A553C255A5D493CA243A9
S11382C00A435A55802292045A6059229C5C0C43FA
S11382D0E4B29C54995C0424A1439954995C3143BD
S11382E0C9B29954595D4A3A0A4020210A435A5561
S11382F040F60003C4F20003DA6902210A43DA619A
S113830041F60043C4F200033E31AC22995041F6D9
S11383100043C4F20003AC229B585B06F7D540F23D
S11383200043C4F20023A83AC4F231021A60C02206
S113833092025A6080B298811A6802210A431A6034
S113834040F20043C4F20023DB699B07F8D470BDFC
S113835040F20043C4F200231B7EDB07F8D580B251
S113836040F20043C4F200231885704710B504009E
S113837005E0013448F25133C0F2000398472078F5
S11383800028F6D110BD10B584B0002400E01C0014
S11383900A2390FBF3F39A00D2185100401A3030AC
S11383A001AA10551800631C0028F0DC07E001AB9B
S11383B0185D48F25133C0F200039847013C002C89
S11383C0F5DA04B010BD40F20043C4F200231B7E72
S11383D05B0711D440F20043C4F200231B7E5BB25E
S11383E0002BF0DA40F20042C4F20022137E802116
S11383F049420B43DBB2137640F20043C4F200233C
S1138400188DC0B27047F8B50700002548F2C7338D
S1138410C0F200039847040048F25133C0F200034D
S113842098470D2C02D07C550135EFE7412048F2E6
S11384305133C0F2000398477D1900232B70F8BD17
S113844000B585B001A848F20743C0F2000398477D
S113845049F21461C0F200016A4601A848F6D51336
S1138460C0F200039847009805B000BD41F20043F4
S1138470C4F200239B7ADB060BD543F20003C4F25B
S113848000038022DA6141F20043C4F20023703A0F
S11384909A72704770B548F2FF13C0F20003984710
S11384A0E120400248F26B23C0F20003984749F2EE
S11384B01860C0F2000048F26D34C0F20004A04716
S11384C048F24143C0F200039847060049F228608D
S11384D0C0F20000A047300047F60943C0F2000391
S11384E0984742F2FC15C2F200052860300047F6B6
S11384F00143C0F20003984742F2F816C2F20006A4
S1138500306049F22C60C0F20000A047286848F2AD
S11385108735C0F20005A84749F25060C0F2000058
S1138520A0473068A84749F25460C0F20000A04751
S113853043F20003C4F200038021996047201A5CCF
S113854002242243D2B21A545961002070BD0000A3
S1138550002B11D1002A0FD1002900D1002802D00C
S11385600021C943081C07B4024802A14018029024
S113857003BDC046D103000003B4684601B50298A8
S113858000F006F8019B9E4602B00CBC7047C04642
S1138590F0B557464546DE464E469846E0B583B0AC
S11385A0170001921600424605000C0083468A46D5
S11385B0002A4CD18F4200D878E0380000F0C4F98A
S11385C050B120232A001B1ADA408440130085404E
S11385D0234386409A46AB46370CBAFBF7F2390080
S11385E053464FF6FF7451431500591A5B46344005
S11385F0654309041B0C0B439D4209D99B19511E69
S11386009E4200D97CE19D4200D879E1023A9B194F
S1138610591BB1FBF7F35C435F432500C91B4FF6BD
S1138620FF745F4609043C400C43A54200D95CE159
S1138630120413430022641B01920C9A2AB1C44011
S11386400C9A0C9814600022426018000AE08845D5
S113865010D90C9B002B00D170E1186059600023E5
S113866000200193019903B03CBC90469946A24670
S1138670AB46F0BD404600F067F90190002800D0F9
S1138680A3E0A04502D3AF4200D951E1EF1B43461A
S1138690BD42AD41E41A6D42631B9A4601200C9B16
S11386A0002BDFD052461F605A60DBE717B9013652
S11386B0B6FBF7F6300000F047F9B8BB4FF6FF778A
S11386C00123A51B3740340C0193B5FBF4F33A00A6
S11386D05A43944622005A43AA1A5D4612042D0CAA
S11386E02A43944507D992195D1E964202D89445AF
S11386F000D920E12B006546521BB2FBF4F56C4314
S11387005946121B4FF6FF746F4312040C40144376
S1138710A74207D9A4196A1EA64202D8A74200D9C3
S113872003E115001B04E41B2B4386E720212A00E8
S11387302300091A86408440CA40CB402243340CAB
S1138740B3FBF4F185404FF6FF77AB460D0037409D
S11387507D43AC4625004D435D1B2D04130C91460F
S11387602B439C4509D99B194D1E9E4200D9DAE042
S11387709C4500D8D7E002399B1962469B1AB3FB8B
S1138780F4FC62464FF6FF7862439B1A1B049A4638
S113879042464B4665461A4053467D4313439D4229
S11387A00DD962469B19013A9E4200D9B7E09D4219
S11387B000D8B4E00222524290469B19C4445D1B87
S11387C063460904194301917FE7202301983A0085
S11387D01B1A9C46434661468340CA4013432A0001
S11387E02600CA408440CE4022431C0C874085406A
S11387F0B6FBF4F091464FF6FF7201001A40514364
S1138800884621004143761A49463604090C0E4332
S1138810B04509D9411EF6188A46B34200D980E012
S1138820B0457ED90238F6184146761AB6FBF4F8FC
S113883041464C434A43361B49464FF6FF743604BF
S11388400C403443A2420BD94146E4184E1EA342C5
S113885063D8A24261D9022149428946E418C84436
S113886041464FF6FF7600040843310001408A4632
S1138870010C884651463E40714389464146A21A3E
S11388803C0C4E436143884651464C434946090CCF
S11388908A46A4195444A64203D9802149028A462F
S11388A0D044260C46444FF6FF7821048A464C46B1
S11388B041462140894654464C44B24224D321D0F7
S11388C00C9B83B12C1BA542AD41921B6D42521BE4
S11388D0130061468B400199CC40CA401C430C9B59
S11388E01C605A6000230193BCE6A419591EA642D9
S11388F004D8A54202D9023BA41999E60B0097E6D5
S11389000A0085E6A542DBD2E71BF31ABC42B64156
S1138910764201389E1B3C00D2E7B046A0E794465D
S11389204DE7504680E7290027E7023DA419F9E600
S113893000202F00B3E6023B9219DCE6002300205E
S113894001938FE67047C0461C2101231B04984203
S113895001D3000C10391B0A984201D3000A0839CC
S11389601B09984201D30009043902A2105C401883
S11389707047C04604030202010101010000000027
S11389800000000070B500250E4B0F4CE41AA41033
S1138990A54209D1002500F03DFF0C4C0C4BE41A14
S11389A0A410A54207D170BD064AAB009B181B68F2
S11389B098470135ECE7064AAB009B181B689847BB
S11389C00135EEE72098000020980000249800006C
S11389D0209800000EB440F2042370B59DB002ACA0
S11389E021AD40CDA3810290069000F01DF80B4B01
S11389F0606063620023606109486363A364013BB0
S1138A00E38132002B0021000068019500F06AF830
S1138A101DB070BC08BC03B01847C046258A0000CE
S1138A2000200020002070470023C25C0133002A8C
S1138A30FBD1581E704770B514004B1C03D101259F
S1138A406D42280070BD938920229343626BA381F9
S1138A50CEB2CDB2636882B1A26B934207DA2368C7
S1138A60013B23601E70636801336360E9E7210002
S1138A7000F05EFC0028F2D0E1E72169226839B1F8
S1138A80914205D2511E0878854201D12160EBE75D
S1138A9023642300443363630323A3632300463323
S1138AA0E2631E7023600123DFE710B50C00496BFD
S1138AB069B123004433994201D000F0A7FC00209F
S1138AC0236C6063636013B1E36B236010BD23699F
S1138AD0012023600023A289636020331343A38110
S1138AE04042F3E7F0B5BD4C40F20C15A5440393A6
S1138AF000234893499305AB4A9340F27C130090BA
S1138B000C0002A8B6494019C15040F2801702ABCC
S1138B105B191500B349D9512B78002B00D15BE1C7
S1138B2000F044FC08222B78C018019343781340CA
S1138B30002B40D1019A6E1C252A00D0A7E0479350
S1138B4045936B782A2B02D11A3B4593AE1C350012
S1138B500A2229780B00303B092B47D9A24E032265
S1138B60300000F03FFC38B10123801B8340459A5C
S1138B7001351343029245932B786E1C672B58D80A
S1138B80652B00D3DDE0472B38D8452B00D3D8E044
S1138B90002B00D11DE1252B79D003234B93073300
S1138BA0469353E0499A0133019201324992626833
S1138BB02360013A62606368002B0BDD00F0F6FB72
S1138BC0082123681A78801842780A42EAD16E1C78
S1138BD03500A1E740F20C1202AB9B18DB592100CF
S1138BE00098019398470028E8D0F0E7479B0135A7
S1138BF002935343303B59184791AAE75B2B00D1AA
S1138C0077E00FD8582BC8D1459A019240F2002240
S1138C1001990A4345921022469203226E2B14DDD9
S1138C20013212E0632B00D171E0642BB5D10A222A
S1138C30F2E7702B52D022D86E2B00D16FE054D8BB
S1138C40692BAAD10023032246934B926368002B1D
S1138C5000DC78E0459B01935B0600D48BE04B9BE2
S1138C60022B00DD9DE003AB220045A9009800F033
S1138C70BFF8012800D1AFE00228A9D125E0752B67
S1138C80D5D0782BC0D0732B87D102233DE0636805
S1138C90002B0FDD236801991A78914200D09BE0E4
S1138CA0013362682360499B013A01930133626096
S1138CB049938DE740F20C1202AB9B18DB5921005B
S1138CC00098029398470028E4D04898002800D0E0
S1138CD07BE0013840F29C239D44F0BD459A01920B
S1138CE0202201990A4345928EE7082304224693E1
S1138CF0ABE7310005A800F0D3F9459B06000193CA
S1138D004023019A1343459301234B939EE7459BCC
S1138D1001934023019A134345930023F5E74599B2
S1138D20CB0600D554E7039B499AC80704D5191DFF
S1138D3003911B681A804BE7191D03911B681A6085
S1138D4046E70523E1E740F20C1202AB9B18DB591E
S1138D502100009801939847002800D17AE7B4E7EE
S1138D60499A0192013249926268013A6260002A8A
S1138D700BDD0133236000F019FB082123681A7806
S1138D80801842780A42EBD169E740F20C1202AB38
S1138D909B18DB5921000098019398470028EAD0DA
S1138DA093E7042B06DC03AB220045A9009800F0EE
S1138DB07DF85EE70D4B002B00D109E703AB2200E1
S1138DC045A9009800E000BF53E7A3895B0600D4DF
S1138DD080E7012040427DE748987BE764FDFFFF80
S1138DE0378A0000AB8A00007C9600000000000077
S1138DF0F7B515008A6801900C0032B98A69511ED2
S1138E008A41012152420A43A2602268D20603D455
S1138E101A68111D196017680026A369D3B1012BC4
S1138E2007D12B6862691B78D35C9BB9002E2ED1C5
S1138E3005E0022B05D056BBA369012B27D10120E5
S1138E40FEBD00F0B3FA08222B681B78C0184378E3
S1138E501342F0D1102223680136134203D12B6848
S1138E601B783B7001372A686B6801322A60A2685C
S1138E70013B013A6B60A2604AB1002BCDDC40F2A9
S1138E8080132900E358019898470028C5D010237F
S1138E90226813402BB9E2680132E260A26902B190
S1138EA03B70236900209E192661C9E7F0B50C00C8
S1138EB08DB00293744B0590160009AA23CB23C2EC
S1138EC0A369032B00D180E0704B002040F25C12B8
S1138ED00693A3680490591E914205D95E3BFF3B5B
S1138EE0049340F25D13A36023001C33019340F606
S1138EF000530027226813432360019B03933368C4
S1138F0009A81978BB000222185800F06BFA48B37C
S1138F10012F5CD1636833B9083322686360F93385
S1138F20FF33134323605A4B226813402360A36822
S1138F305A1EA260B3B1039B5D1C33685A1C326095
S1138F401B78039A039513707368013B7360002BBD
S1138F5008DC40F28013E3583100059807939847E2
S1138F6000287CD10137032FC9D163680BB90A33B8
S1138F7063601021002763686069C91A454BC918EA
S1138F8000F08EF8039DA368002B41D0326860691D
S1138F901178405CE0B3302929D140F60000216803
S1138FA0014224D0049A01371AB1013A01330492E0
S1138FB0A3607368013B7360002B20DD33680133C9
S1138FC03360A368013BA360DDE7334B7DE7022FE9
S1138FD0ADD140F2006140F2002322681140994271
S1138FE0C3D1F13BFF3B6360F03313439EE7216839
S1138FF02A4B0B40236013782B700135D9E740F2DC
S11390008013E35831000598039398470028D8D07B
S11390102368DB050ED5019B9D4207D940F27C13E2
S1139020013D2978E358320005989847019B0120B7
S11390309D4227D0102223681A40E2B92A7063683F
S113904001990598069EB047029B22681B68910609
S113905007D502991A1D0A601B68186008E00027EA
S1139060D6E7D107F5D502991A1D0A601B68188046
S1139070E3680133E3600020019BED1A2369EF19D3
S1139080DF1927610DB0F0BD809600001593000034
S1139090FFFAFFFF8C960000FD910000FFF6FFFF32
S11390A070B50B785E2B0CD04A1C00210400451CC3
S11390B0FF3521700134A542FBD133B9013A1000C8
S11390C070BD8A1C4B780121F0E701244C4011004B
S11390D0C4540D784A1C2D2D06D05D2DEFD00DB94A
S11390E00A00ECE72B00F2E74E785D2EFAD0B3428B
S11390F0F8DC02310133C4549E42FBDCE9E7000092
S1139100F0B51F000E0087B00590039102920C98F1
S1139110347800F047F9082200194378751C13408D
S11391205BB92D2C0BD101332C780193B51C67B19D
S1139130102F14D1302C0AD011E02E00E7E7019350
S11391402B2CF4D12C78B51CF1E7302C2BD1202218
S11391502B789343582B4AD110276C780235019B06
S1139160254A9918B1FBF7F63B007343CB1A0493D5
S1139170012300225B4210009C462300303B092B54
S113918013D81C00A7421CDD531C09D0624686423A
S113919006D302D1049BA34202DB012278432018A8
S11391A02C780135E9E70A27D9E72300413B192B3D
S11391B001D8373CE6E72300613B192B01D8573C23
S11391C0E0E7531C07D12223059A08001360029B91
S11391D04BB907B0F0BD019B03B14042029B002B89
S11391E0F7D0039B02B16B1E029A1360F1E730249F
S11391F0002FB4D10837B2E7FFFFFF7F13B5044C4B
S11392002468246A04B9034C0094FFF779FF16BD5F
S11392100020002064200020F0B51F000E0087B05D
S11392200590039101920C98347800F0BBF8082261
S113923000194378751C13405BB92D2C0BD10133F5
S11392402C780293B51C67B1102F14D1302C0AD09E
S113925011E02E00E7E702932B2CF4D12C78B51CF7
S1139260F1E7302C29D120222B789343582B4BD172
S113927010276C78023501214942B1FBF7F63B0017
S11392807343DB430493002340F2010C18002200D3
S1139290303A092A13D81400A7421EDD002B1ADB2A
S11392A00B00864206D302D1049AA24202DB634633
S11392B0784320182C780135E9E70A27DBE72200F8
S11392C0413A192A01D8373CE6E72200613A192AC3
S11392D003D8573CE0E70B00ECE7002B08DA222325
S11392E00120059A40421360019B4BB907B0F0BDC1
S11392F0029A02B14042019A002AF7D0039A03B1BC
S11393006A1E019B1A60F1E73024002FB3D108379D
S1139310B1E7000013B5044C2468246A04B9034C73
S11393200094FFF779FF16BD002000206420002080
S11393300B00F7B54D6B44330C009D421DD140F238
S11393400046310000F0ACF810B901204042FEBDE7
S113935023006063A66346331A7840F2FF33C25495
S1139360230045331A7840F2FE33C2542A78013B75
S1139370C254C01820600020E9E78E6B29007300F6
S11393801A00019300F0EAF805000028DDD08719DF
S113939001003200380000F030F8019B276065635B
S11393A0A363E8E7EC30006870470000034B1B68D8
S11393B01B6A03B9024BEC33186870470020002085
S11393C06420002082B001B901A910002AB133B190
S11393D013780B601078431E984102B07047022046
S11393E04042FAE7C9B28218904201D10020704786
S11393F003788B42FBD00130F6E7002310B59A4284
S113940000D110BDCC5CC4540133F8E770B505003D
S113941081B10C1F2368002B00DAE418280000F047
S1139420DFF81E4A136811002BB96360146028002A
S113943000F0D7F870BDA3420BD92268A01883426C
S113944003D118685B688218226063600C60EEE7E1
S113945013005A680AB1A242FAD919685818A042EE
S11394600BD120680918581819608242DFD110689E
S11394705268411819605A60D9E7A04202D90C23F6
S11394802B60D4E721686018824203D110685268C7
S11394904118216062605C60C9E7C046EC2100208D
S11394A0032370B5CD1C9D43083506000C2D1CD23A
S11394B00C25A9421BD8300000F092F8254A146804
S11394C02100C1B9244C23681BB9300000F06CF8AA
S11394D020602900300000F067F8431C2DD10C23D4
S11394E03000336000F07DF803E0002DE1DA0C2356
S11394F03360002070BD0B685B1B1BD40B2B03D99E
S11395000B60CC18256003E08C420FD163681360B4
S1139510300000F066F8200007220B30231D904332
S1139520C31A002BE6D05A42E250E3E74B6863606B
S11395300C00EDE70C004968C3E70323C41C9C43FB
S1139540A042DFD0211A300000F02EF8431CD9D1FC
S1139550C5E7C046EC210020F0210020F8B5070043
S11395600D00160029B91100FFF79AFF040020002E
S1139570F8BD1AB9FFF74AFF3400F8E700F032F8F3
S11395802C008642F3D931003800FFF789FF04002C
S11395900028ECD029003200FFF72FFF2900380003
S11395A0FFF734FFE3E70000002370B5054C050026
S11395B00800236000F01EF8431C02D1236803B1A5
S11395C02B6070BD002200200B0021B1FF2A04D9BA
S11395D08A2303608B3B180070470A700123FAE763
S11395E0704770470B1F1B68181F002B01DA0B58BC
S11395F0C018704742F2F413C2F200031A681AB199
S1139600101818601000704742F20822C2F20002DB
S1139610F6E7C04625640000456E746572206E75D9
S11396206D6265723A2000000D0A00000D0A48655B
S11396306C6C6F2C206E6F6E2D7365637572652074
S1139640776F726C64210D0A204F75747075743ACB
S1139650200000000D0A206E6F6E2D736563757215
S11396606520776F726C6420697320676F696E6719
S113967020746F20736C6565700A0000686C4C0080
S11396809E960000A1960000A4960000412D46611C
S11396902D66383930313233343536375D002B2D71
S11396A00030300078580000000000000000000086
S11396B000000000000000000000000000000000A6
S11396C00000000000000000000000000000000096
S11396D00000000000000000000000000000000086
S11396E00000000000000000000000000000000076
S11396F00000000000000000000000000000000066
S113970000000000000000004300504F534958007F
S11397102E00002020202020202020202828282857
S1139720282020202020202020202020202020202D
S1139730202020881010101010101010101010107D
S1139740101010040404040404040404041010108D
S11397501010101041414141414101010101010139
S113976001010101010101010101010101011010C7
S1139770101010104242424242420202020202020D
S11397800202020202020202020202020202101099
S11397901010200000000000000000000000000085
S11397A000000000000000000000000000000000B5
S11397B000000000000000000000000000000000A5
S11397C00000000000000000000000000000000095
S11397D00000000000000000000000000000000085
S11397E00000000000000000000000000000000075
S11397F00000000000000000000000000000000065
S11398000000000000000000000000000000000054
S113981000000000F8B5C046F8BC08BC9E4670477E
S113982021810000F8B5C046F8BC08BC9E467047CC
S1079830F5800000BB
S10B98345CEDFF7F0100000060
S113983C0420002000000000C8960000E8960000F8
S113984CA8960000000000000000000000000000CA
S113985C00000000000000000000000000000000F8
S113986C00000000000000000000000000000000E8
S113987C00000000000000000000000000000000D8
S113988C00000000000000000000000000000000C8
S113989C0000000043000000000000000000000075
S11398AC00000000000000000000000000000000A8
S11398BC0000000043000000000000000000000055
S11398CC0000000000000000000000000000000088
S11398DC0000000043000000000000000000000035
S11398EC0000000000000000000000000000000068
S11398FC0000000043000000000000000000000015
S113990C0000000000000000000000000000000047
S113991C00000000430000000000000000000000F4
S113992C0000000000000000000000000000000027
S113993C00000000430000000000000000000000D4
S113994C0000000000000000000000000000000007
S113995C00000000430000000000000000000000B4
S113996C00000000000000000000000000000000E7
S113997C00000000C9950000C59300000000000021
S113998C1297000010970000A0960000A09600000B
S113999CA0960000A0960000A0960000A0960000DF
S11399ACA0960000A0960000A0960000FFFFFFFF09
S11399BCFFFFFFFFFFFFFFFFFFFF0000010041530C
S11399CC43494900000000000000000000000000B2
S11399DC00000000000000000000000000004153E3
S11399EC4349490000000000000000000000000092
S11399FC0000000000000000000000000000000057
S90380007C
